:0400000056EF1CF0AB
:10080000005465726D6F6375706C61203A202530FD
:100810002E34660A0D00494E46004E414E00696E68
:1008200066006E616E006C660000000E00017B6F5A
:10083000000E7A6F30C08CF031C08DF032C08EF077
:1008400033C08FF08FBF29EF04F027EF04F03FEFA4
:1008500004F0000E7B6F010E7A6F8CC001F08DC02A
:1008600002F08EC003F08FC004F0DCEC1BF001C07E
:100870008CF002C08DF003C08EF004C08FF0000E2B
:100880000001936F000E926FB2C07EF0B3C07FF094
:100890007A517B11D8A44FEF04F051EF04F058EFD8
:1008A00004F0B6A556EF04F058EF04F072EF04F030
:1008B0007A517B11D8A45FEF04F061EF04F067EF89
:1008C00004F0000E616F2B0E606F6BEF04F0000EF2
:1008D000616F2D0E606F60C000F1924B932B7E070D
:1008E000D8A07F078CC001F08DC002F08EC003F04D
:1008F0008FC004F09BEC17F001040210D8A483EF22
:1009000004F085EF04F0DCEF04F0BF0E356EFF0E4F
:10091000366E3450376E386A3550372636503822A6
:1009200038500AE11A0E375CD8A099EF04F09CEF1A
:1009300004F0010E9DEF04F0000E0001626F636B86
:1009400062516311D8B4A7EF04F0A9EF04F0B7EF38
:1009500004F0000E9225016E010E9321026E160E18
:10096000036E080E046E24EC1BF0C3EF04F0000EBF
:100970009225016E010E9321026E1E0E036E080E6B
:10098000046E24EC1BF00001FD0E7E27FF0E7F237A
:100990002EC012F02FC013F0000E146E010E156E53
:1009A0007EC016F07FC017F085EC18F012C02EF054
:1009B00013C02FF067EF0AF08CC001F08DC002F079
:1009C0008EC003F08FC004F09BEC17F001500210B2
:1009D000D8A4EDEF04F0EFEF04F046EF05F0BF0E02
:1009E000356EFF0E366E3450376E386A3550372606
:1009F0003650382238500AE11A0E375CD8A003EF7F
:100A000005F006EF05F0010E07EF05F0000E0001FE
:100A1000646F656B64516511D8B411EF05F013EF85
:100A200005F021EF05F0000E9225016E010E9321D5
:100A3000026E1A0E036E080E046E24EC1BF02DEFEE
:100A400005F0000E9225016E010E9321026E220E1A
:100A5000036E080E046E24EC1BF00001FD0E7E27D1
:100A6000FF0E7F232EC012F02FC013F0000E146E65
:100A7000010E156E7EC016F07FC017F085EC18F0E1
:100A800012C02EF013C02FF067EF0AF0000E000125
:100A9000946F000E956F800E966F3F0E976F000E4D
:100AA000916F000E906F8CC001F08DC002F08EC06F
:100AB00003F08FC004F0000E056E000E066E000EEF
:100AC000076E000E086EA2EC19F0D8B06AEF05F0C0
:100AD0006CEF05F0EFEF05F08BEF05F094C001F03F
:100AE00095C002F096C003F097C004F0000E056EAA
:100AF000000E066E200E076E410E086E6FEC0FF0B2
:100B000001C094F002C095F003C096F004C097F0C5
:100B10000001904B912B8CC01AF08DC01BF08EC041
:100B20001CF08FC01DF0000E056E000E066E200E2C
:100B3000076E410E086E94C001F095C002F096C099
:100B400003F097C004F06FEC0FF001C01EF002C07C
:100B50001FF003C020F004C021F019EC17F0D8B04A
:100B6000B4EF05F0B6EF05F06EEF05F0D6EF05F047
:100B700094C001F095C002F096C003F097C004F055
:100B8000000E056E000E066E200E076E410E086EFA
:100B900084EC11F001C094F002C095F003C096F00F
:100BA00004C097F000019007D8A091078CC01AF0FC
:100BB0008DC01BF08EC01CF08FC01DF094C01EF0C5
:100BC00095C01FF096C020F097C021F019EC17F0E7
:100BD000D8A0EDEF05F0EFEF05F0B8EF05F034C069
:100BE00007F0086AC5EC1AF007500001816F81C058
:100BF00080F0670E8119D8A400EF06F002EF06F02E
:100C000028EF06F0B451B511D8A409EF06F00BEFA8
:100C100006F00FEF06F0000EB56F010EB46FB5BF12
:100C20001CEF06F0B55106E1B405D8B01AEF06F096
:100C30001CEF06F022EF06F0000E7D6F060E7C6FB3
:100C400031EF06F0B4C07CF0B5C07DF031EF06F0B6
:100C5000B5BF2DEF06F02FEF06F01CEF06F022EFE8
:100C600006F0670E8119D8A438EF06F03AEF06F0C7
:100C700069EF06F091AF48EF06F0FC0E905DFF0EB5
:100C80009159D8A046EF06F048EF06F067EF06F05E
:100C9000FF0E356EFF0E366E7CC037F07DC038F02B
:100CA00035503726365038229051375C3850800AFC
:100CB000396E9151800A3958D8A061EF06F063EF80
:100CC00006F067EF06F0660E806F69EF06F0650EBE
:100CD000806F7CC072F07DC073F0670E8119D8A45C
:100CE00074EF06F076EF06F086EF06F0660E8019D8
:100CF000D8A47DEF06F07FEF06F088EF06F091BFF5
:100D000086EF06F084EF06F088EF06F0724B732B47
:100D1000660E8019D8A48FEF06F091EF06F0B1EFC0
:100D200006F091BF98EF06F096EF06F0A4EF06F0FC
:100D3000000E946F000E956F800E966F3F0E976FAA
:100D4000000E916F000E906F670E8119D8B4ABEF53
:100D500006F0ADEF06F0B1EF06F090517227915119
:100D60007323000E8B6F000E8A6F8CC082F08DC0D3
:100D700083F08EC084F08FC085F094C074F095C06D
:100D800075F096C076F097C077F042EF07F082C01A
:100D900001F083C002F084C003F085C004F094C069
:100DA00005F095C006F096C007F097C008F084ECF7
:100DB00011F001C01AF002C01BF003C01CF004C007
:100DC0001DF051EC13F01AC086F01BC087F01CC058
:100DD00088F01DC089F086C001F087C002F088C08D
:100DE00003F089C004F096EC16F001C078F002C060
:100DF00079F082C01AF083C01BF084C01CF085C05B
:100E00001DF094C005F095C006F096C007F097C09D
:100E100008F086C001F087C002F088C003F089C0E6
:100E200004F06FEC0FF001C01EF002C01FF003C011
:100E300020F004C021F07BEC1BF01AC082F01BC034
:100E400083F01CC084F01DC085F094C001F095C0F3
:100E500002F096C003F097C004F0000E056E000E7D
:100E6000066E200E076E410E086E84EC11F001C074
:100E700094F002C095F003C096F004C097F0000112
:100E80008A4B8B2B72518A5D8B51800A356E735160
:100E9000800A3558D8A04FEF07F051EF07F0C7EFA1
:100EA00006F094C001F095C002F096C003F097C020
:100EB00004F0000E056E000E066EA00E076E400ECA
:100EC000086E6FEC0FF001C086F002C087F003C01F
:100ED00088F004C089F082C01AF083C01BF084C07F
:100EE0001CF085C01DF086C01EF087C01FF088C0B2
:100EF00020F089C021F019EC17F0D8B082EF07F08C
:100F000084EF07F08FEF07F0000E0001866F000EF0
:100F1000876F000E886F000E896FB8EF07F082C0F0
:100F200001F083C002F084C003F085C004F086C0E5
:100F300005F087C006F088C007F089C008F0A2EC71
:100F400019F0D8A0A6EF07F0A8EF07F0B8EF07F068
:100F5000000178B1AEEF07F0B0EF07F0B8EF07F09F
:100F6000000E866F000E876F000E886F000E896F6F
:100F70008CC001F08DC002F08EC003F08FC004F071
:100F800086C005F087C006F088C007F089C008F069
:100F90000FEC0DF001C082F002C083F003C084F0BA
:100FA00004C085F082C01AF083C01BF084C01CF01E
:100FB00085C01DF0000E056E000E066E200E076E39
:100FC000410E086E74C001F075C002F076C003F0E7
:100FD00077C004F06FEC0FF001C01EF002C01FF0EC
:100FE00003C020F004C021F019EC17F0D8A0FBEFEB
:100FF00007F0FDEF07F026EF08F00001904B912B72
:1010000074C001F075C002F076C003F077C004F040
:10101000000E056E000E066E200E076E410E086E65
:101020006FEC0FF001C074F002C075F003C076F0F1
:1010300004C077F0660E00018019D8A422EF08F0F2
:1010400024EF08F026EF08F0724B732B74C094F075
:1010500075C095F076C096F077C097F0650E0001E8
:101060008019D8B436EF08F038EF08F03EEF08F0FA
:1010700090C070F091C071F042EF08F0000E716FF7
:10108000000E706F000E6F6F000E6E6F000E6D6FB2
:10109000000E6C6F000E8B6F000E8A6F3DEF09F033
:1010A00082C001F083C002F084C003F085C004F068
:1010B00094C005F095C006F096C007F097C008F000
:1010C00084EC11F001C01AF002C01BF003C01CF048
:1010D00004C01DF051EC13F01AC086F01BC087F05D
:1010E0001CC088F01DC089F086C001F087C002F0E6
:1010F00088C003F089C004F096EC16F001C078F0C7
:1011000002C079F00001B6B988EF08F08AEF08F064
:10111000A7EF08F078517911D8A491EF08F093EF78
:1011200008F0A7EF08F0670E8119D8A49AEF08F02D
:101130009CEF08F0A7EF08F071BFA3EF08F0A1EF54
:1011400008F0A7EF08F06C4B6D2BF1EF08F06E5133
:101150006F11D8A4AEEF08F0B0EF08F0DAEF08F0A6
:1011600071BFB7EF08F0B5EF08F0DAEF08F0000E46
:101170009225D96E010E9321DA6E2E0EDF6E924B00
:10118000932B7E07D8A07F07000E6F6F010E6E6F46
:10119000DAEF08F0000E9225D96E010E9321DA6E77
:1011A000300EDF6E924B932B7E07D8A07F076C0723
:1011B000D8A06D076C516D11D8A4E1EF08F0E3EFF2
:1011C00008F0CAEF08F0000E9225D96E010E9321A7
:1011D000DA6E7851300FDF6E924B932B7E07D8A0DA
:1011E0007F0782C01AF083C01BF084C01CF085C04A
:1011F0001DF094C005F095C006F096C007F097C0AA
:1012000008F086C001F087C002F088C003F089C0F2
:1012100004F06FEC0FF001C01EF002C01FF003C01D
:1012200020F004C021F07BEC1BF01AC082F01BC040
:1012300083F01CC084F01DC085F094C001F095C0FF
:1012400002F096C003F097C004F0000E056E000E89
:10125000066E200E076E410E086E84EC11F001C080
:1012600094F002C095F003C096F004C097F000011E
:101270007007D8A071078A4B8B2B72518A5D8B51F6
:10128000800A356E7351800A3558D8B04AEF09F09C
:101290004CEF09F05AEF09F093BF58EF09F0935162
:1012A00009E14B0E925DD8A058EF09F05AEF09F012
:1012B00050EF08F06E516F11D8A461EF09F063EFA1
:1012C00009F074EF09F0B6A968EF09F06AEF09F0C8
:1012D00074EF09F0000E9225D96E010E9321DA6E9B
:1012E0002E0EDF6E924B932B000E9225D96E010EBF
:1012F0009321DA6E000EDF6E650E8019D8A483EF9D
:1013000009F085EF09F055EF0AF0000E8B6F4F0ED4
:101310008A6F000E8A25D96E010E8B21DA6E000EBF
:10132000DF6E000E7B6F000E7A6F91BF9CEF09F0AD
:101330009AEF09F0A4EF09F0000E7B6F010E7A6FAF
:10134000906D911FD8B0912B000E7D6F020E7C6FB7
:10135000D5EF09F08A07D8A08B07000E8A25D96E31
:10136000010E8B21DA6E90C001F091C002F0000EE8
:10137000046E0A0E036E4AEC19F00150300FDF6E56
:1013800090C001F091C002F0000E046E0A0E036ED0
:10139000E8EC18F001C090F002C091F000017C0769
:1013A000D8A07D077E07D8A07F0790519111D8A4BF
:1013B000DCEF09F0DEEF09F0AAEF09F07DBFEBEFFB
:1013C00009F07D5106E17C05D8B0E9EF09F0EBEFBB
:1013D00009F0AAEF09F08A07D8A08B077A517B1190
:1013E000D8A4F5EF09F0F7EF09F0FDEF09F0000ED2
:1013F000676F2B0E666F01EF0AF0000E676F2D0E00
:10140000666F000E8A25D96E010E8B21DA6E66C0DA
:10141000DFFF7E07D8A07F078A07D8A08B07BF0E03
:10142000356EFF0E366E3450376E386A35503726BB
:101430003650382238500AE11A0E375CD8A023EF14
:101440000AF026EF0AF0010E27EF0AF0000E6A6F8D
:101450006B6B6A516B11D8A430EF0AF032EF0AF0CF
:1014600038EF0AF0000E696F650E686F3CEF0AF006
:10147000000E696F450E686F000E8A25D96E010E49
:101480008B21DA6E68C0DFFF7E07D8A07F07000ED1
:101490009225016E010E9321026E000E8A25036EC5
:1014A000010E8B21046E24EC1BF02EC012F02FC015
:1014B00013F0000E146E010E156E7EC016F07FC084
:1014C00017F085EC18F012C02EF013C02FF01200A8
:1014D0003CC0D9FF3DC0DAFFDECFF6FFDDCFF7FF1E
:1014E0000800F550250AD8A478EF0AF07AEF0AF040
:1014F000F3EF0CF03CC0D9FF3DC0DAFFDE2A000E4E
:10150000DD22000E0001B36F000EB26FB2C0B6F064
:10151000B3C0B7F0B469B569000E456E000E446EF5
:10152000DDEF0AF00001B6813CC0D9FF3DC0DAFF13
:10153000DE2A000EDD22DDEF0AF00001B68394EF13
:101540000AF00001B68594EF0AF00001B68794EF27
:101550000AF00001B68994EF0AF0000E456E010E04
:10156000446EDDEF0AF03CC0D9FF3DC0DAFFDECFAC
:10157000F6FFDDCFF7FF0800F550406E416A41509D
:10158000000AD8B4C6EF0AF0ADEF0AF04050200AC6
:10159000D8B4A5EF0AF0030AD8B4A9EF0AF0080AF4
:1015A000D8B4A1EF0AF0060AD8B492EF0AF01D0AE7
:1015B000D8B49DEF0AF0ADEF0AF044504510D8B40E
:1015C000E4EF0AF0E6EF0AF0B3EF0AF00001B6A18B
:1015D000ECEF0AF0EEEF0AF0EFEF0AF0B6933CC042
:1015E000D9FF3DC0DAFFDECFF6FFDDCFF7FF080001
:1015F000F5502E0AD8A4FFEF0AF001EF0BF07EEFB2
:101600000BF0000EB56F000EB46F3CC0D9FF3DC0AB
:10161000DAFFDE2A000EDD223CC0D9FF3DC0DAFF32
:10162000DECFF6FFDDCFF7FF0800F5502A0AD8A479
:101630001CEF0BF01EEF0BF03BEF0BF03CC0D9FFA3
:101640003DC0DAFFDE2A000EDD223EC0D9FF3FC0DA
:10165000DAFFDFCF40F0020EDE26DFCF41F0000ED2
:10166000DD2240C0D9FF41C0DAFFDECFB4F0DDCFCC
:10167000B5F07EEF0BF03CC0D9FF3DC0DAFFDECF06
:1016800008F0DDCF09F034EC15F008C0B4F009C063
:10169000B5F052EF0BF03CC0D9FF3DC0DAFFDE2AB7
:1016A000000EDD22D00E406EFF0E416E3CC0D9FF11
:1016B0003DC0DAFFDECFF6FFDDCFF7FF0800F550C3
:1016C000426E436A405042264150432243500AE151
:1016D0000A0E425CD8A06FEF0BF072EF0BF0010E18
:1016E00073EF0BF0000E466E476A46504710D8A4C1
:1016F0007CEF0BF07EEF0BF04BEF0BF03CC0D9FF13
:101700003DC0DAFFDECFF6FFDDCFF7FF0800F55072
:10171000076E086AC5EC1AF007504E6E4E50D8B4EA
:1017200094EF0BF096EF0BF0CEEF0BF03CC0D9FF2F
:101730003DC0DAFFDECF40F0DDCF41F0010E4026A4
:10174000000E412240C0F6FF41C0F7FF0800F550EF
:10175000076E086AC5EC1AF007504F6E4F50D8B4A8
:10176000B4EF0BF0B6EF0BF0CEEF0BF03CC0D9FFAF
:101770003DC0DAFFDECF40F0DDCF41F0020E402663
:10178000000E412240C0F6FF41C0F7FF0800F550AF
:10179000076E086AC5EC1AF00750506E660E4E18B8
:1017A000D8A4D5EF0BF0D7EF0BF017EF0CF03CC03F
:1017B000D9FF3DC0DAFFDECFF6FFDDCFF7FF08002F
:1017C000F5CF51F03CC0D9FF3DC0DAFFDE2A000E54
:1017D000DD223EC0D9FF3FC0DAFFDFCF40F0040E6C
:1017E000DE26DFCF41F0000EDD2240C0D9FF41C030
:1017F000DAFFDECF4AF0DECF4BF0DECF4CF0DECFAB
:101800004DF03AC02EF03BC02FF04AC030F04BC034
:1018100031F04CC032F04DC033F051C034F015EC13
:1018200004F02EC03AF02FC03BF00EEF0DF04E0E3C
:10183000016E000E026E260E036E080E046E000E80
:10184000066E020E056E1AEC18F001500210D8A4B4
:101850002CEF0CF02EEF0CF0BDEF0CF03CC0D9FFDC
:101860003DC0DAFFDECF40F0DDCF41F0010E402673
:10187000000E412240C0F6FF41C0F7FF0800F5CF3F
:1018800051F0BF0E406EFF0E416E3CC0D9FF3DC00F
:10189000DAFFDECFF6FFDDCFF7FF0800F550426E2E
:1018A000436A405042264150432243500AE11A0EF7
:1018B000425CD8A05EEF0CF061EF0CF0010E62EF1D
:1018C0000CF0000E486E496A48504910D8B46BEFCE
:1018D0000CF06DEF0CF087EF0CF03EC0D9FF3FC06D
:1018E000DAFFDFCF40F0040EDE26DFCF41F0000E3E
:1018F000DD2240C0D9FF41C0DAFFDECF4AF0DECFA3
:101900004BF0DECF4CF0DECF4DF09FEF0CF03EC041
:10191000D9FF3FC0DAFFDFCF40F0040EDE26DFCF75
:1019200041F0000EDD2240C0D9FF41C0DAFFDECF1A
:101930004AF0DECF4BF0DECF4CF0DECF4DF0020EA2
:101940003CC0D9FF3DC0DAFFDE26000EDD223AC0E2
:101950002EF03BC02FF04AC030F04BC031F04CC0ED
:1019600032F04DC033F051C034F015EC04F02EC00D
:101970003AF02FC03BF00EEF0DF03CC0D9FF3DC058
:10198000DAFFDECFF6FFDDCFF7FF0800F550250ABE
:10199000D8A4CDEF0CF0CFEF0CF0E6EF0CF03CC08C
:1019A000D9FF3DC0DAFFDE2A000EDD22000E036EF5
:1019B000250E026E3AC004F03BC005F049EC1AF067
:1019C000000E3B6E010E3A6E0EEF0DF03CC0D9FFDB
:1019D0003DC0DAFFDE2A000EDD22000E3B6E000E57
:1019E0003A6E0EEF0DF03CC0D9FF3DC0DAFFDECFFE
:1019F000F6FFDDCFF7FF0800F550026E036A3AC02C
:101A000004F03BC005F049EC1AF03CC0D9FF3DC0E2
:101A1000DAFFDE2A000EDD22E0EF0CF012000450A7
:101A2000800B0D6E045004240F6E03AE1AEF0DF000
:101A30001CEF0DF01DEF0DF00F800F50D8B423EF09
:101A40000DF025EF0DF03AEF0DF00F28D8A42BEF95
:101A50000DF02DEF0DF035EF0DF0000E016E000EC4
:101A6000026E000E036E000E046E038E000E046EF6
:101A700042EF0DF0000E016E000E026E000E036EBE
:101A8000000E046E0850800B0E6E0D500E18D8B468
:101A90004CEF0DF04EEF0DF04FEF0DF00D8C0850A8
:101AA00008240E6E07AE57EF0DF059EF0DF05AEF08
:101AB0000DF00E800E50D8B460EF0DF062EF0DF017
:101AC00077EF0DF00E28D8A468EF0DF06AEF0DF057
:101AD00072EF0DF0000E056E000E066E000E076E22
:101AE000000E086E078E000E086E7FEF0DF0000EE0
:101AF000056E000E066E000E076E000E086E0F508B
:101B00000E5CD8B086EF0DF088EF0DF0AFEF0DF062
:101B10000DAC8DEF0DF08FEF0DF091EF0DF0800E0D
:101B20000D1A0FC010F00EC00FF010C00EF001C063
:101B300010F005C001F010C005F002C010F006C0A2
:101B400002F010C006F003C010F007C003F010C090
:101B500007F004C010F008C004F010C008F0000E38
:101B6000106E0F500EC009F00A6A095E000E0A5A84
:101B70000ABEC4EF0DF00A5009E11A0E095CD8A0A4
:101B8000C4EF0DF0C6EF0DF0FDEF0DF001500210A7
:101B900003100410D8A4CFEF0DF0D2EF0DF0010E1A
:101BA000D3EF0DF0000E106E000E016E000E026EEF
:101BB000000E036E000E046E0EC00FF006EF0EF066
:101BC00010A0E5EF0DF0E7EF0DF0EDEF0DF0D89080
:101BD00010300109106EEFEF0DF0D890103201A017
:101BE000F4EF0DF0F6EF0DF0F7EF0DF0108E04347A
:101BF00004320332023201320F2A0E500F5CD8A099
:101C000004EF0EF006EF0EF0E0EF0DF00DBC0BEF61
:101C10000EF00DEF0EF04DEF0EF00F50D8A413EFB5
:101C20000EF015EF0EF01FEF0EF0000E016E000E1D
:101C3000026E000E036E000E046E6EEF0FF0055084
:101C4000012606500222075003220850042204A055
:101C50002CEF0EF02EEF0EF0DAEF0EF010A033EFB7
:101C60000EF035EF0EF03BEF0EF0D890103001097A
:101C7000106E3DEF0EF0D890103201A042EF0EF042
:101C800044EF0EF045EF0EF0108E043404320332B0
:101C9000023201320F2ADAEF0EF00550015C0650D5
:101CA0000258075003580450800A096E0850800AF1
:101CB0000958D8B05EEF0EF060EF0EF08BEF0EF02B
:101CC0000150055C096E025006580A6E0350075811
:101CD0000B6E045008580C6EFF0E0924016EFF0EA7
:101CE0000A20026EFF0E0B20036EFF0E0C20046E06
:101CF000800E0D1A106C1050D8A481EF0EF083EFF7
:101D00000EF093EF0EF0010E0126000E02220322C8
:101D1000042293EF0EF00550015E0650025A075060
:101D2000035A0850045A0150021003100410D8A49A
:101D30009CEF0EF09EEF0EF0D3EF0EF01050D8A4F3
:101D4000A4EF0EF0A6EF0EF0D3EF0EF0000E016E32
:101D5000000E026E000E036E000E046E6EEF0FF0AA
:101D6000D890013602360336043610AEBAEF0EF0C4
:101D7000BCEF0EF0BDEF0EF0018010A0C2EF0EF030
:101D8000C4EF0EF0C8EF0EF0D8801036CAEF0EF098
:101D9000D89010360F50D8B4D0EF0EF0D2EF0EF02E
:101DA000D3EF0EF00F0603AED8EF0EF0DAEF0EF021
:101DB000B0EF0EF0000E0E6E10AEE1EF0EF0E3EF9E
:101DC0000EF0FBEF0EF010C009F07F0E0916D8B42C
:101DD000ECEF0EF0EEEF0EF0F2EF0EF0010E0E6EE5
:101DE000FBEF0EF001A0F7EF0EF0F9EF0EF0FBEFB6
:101DF0000EF0EEEF0EF00E50D8B401EF0FF003EF3F
:101E00000FF02EEF0FF0010E0126000E022203222A
:101E1000042204A00EEF0FF010EF0FF02EEF0FF0E2
:101E200001C009F002C00AF003C00BF004C00CF0BE
:101E30000C340C320B320A32093209C001F00AC0EC
:101E400002F00BC003F00CC004F00F28D8B42BEF45
:101E50000FF02DEF0FF02EEF0FF00F2A0F28D8B450
:101E600034EF0FF036EF0FF03EEF0FF00F50D8A425
:101E70003CEF0FF03EEF0FF050EF0FF0000E016E51
:101E8000000E026E000E036E000E046E0F50D8A4FA
:101E90004CEF0FF04EEF0FF050EF0FF0000E0D6E05
:101EA0000FA055EF0FF057EF0FF05AEF0FF0038E22
:101EB0005BEF0FF0039ED8900F30046E0DAE63EF12
:101EC0000FF065EF0FF066EF0FF0048E01C001F028
:101ED00002C002F003C003F004C004F0120004507A
:101EE000800B0D6E04500424136E03AE7AEF0FF0D6
:101EF0007CEF0FF07DEF0FF013801350D8B483EF19
:101F00000FF085EF0FF098EF0FF01328D8A48BEFA8
:101F10000FF08DEF0FF095EF0FF0000E016E000E39
:101F2000026E000E036E000E046E038EA0EF0FF023
:101F3000000E016E000E026E000E036E000E046EA7
:101F40000850800B0D1A08500824126E07AEABEF34
:101F50000FF0ADEF0FF0AEEF0FF012801250D8B4CB
:101F6000B4EF0FF0B6EF0FF0C9EF0FF01228D8A4BE
:101F7000BCEF0FF0BEEF0FF0C6EF0FF0000E056ED6
:101F8000000E066E000E076E000E086E078ED1EF73
:101F90000FF0000E056E000E066E000E076E000EAE
:101FA000086E1250D8B4D7EF0FF0D9EF0FF0E1EF71
:101FB0000FF01350D8A4DFEF0FF0E1EF0FF0EBEFCD
:101FC0000FF0000E016E000E026E000E036E000E8A
:101FD000046E83EF11F007500102F3CF18F0F4CF35
:101FE00019F018500E6E0F6A106A116A1950146EAB
:101FF000156A166A176A06500202F3CF18F0F4CF7A
:1020000019F018500E26000E0F221022112219501E
:102010001426000E15221622172205500302F3CFB4
:1020200018F0F4CF19F018500E26000E0F221022CF
:10203000112219501426000E15221622172210C044
:1020400011F00FC010F00EC00FF00E6A0550020222
:10205000F3CF18F0F4CF19F018500E2619500F22B4
:10206000000E1022000E112206500102F3CF18F0CC
:10207000F4CF19F018500E2619500F22000E10221E
:10208000000E112210C011F00FC010F00EC00FF0A2
:102090000E6A05500102F3CF18F0F4CF19F0185072
:1020A0000E2619500F22000E1022000E112207508A
:1020B0000202F3CF18F0F4CF19F01850142619507B
:1020C0001522000E1622000E172206500302F3CF2F
:1020D00018F0F4CF19F01850142619501522000EDC
:1020E0001622000E172207500302F3CF18F0F4CF88
:1020F00019F01850096E19500A6E0B6A0C6A0BC061
:102100000CF00AC00BF009C00AF0096A0950142645
:102110000A5015220B5016220C5017220EC009F03F
:102120000FC00AF010C00BF011C00CF0190E9EEF9A
:1021300010F0D8900C320B320A320932E82E99EFA7
:1021400010F0095014260A5015220B5016220C507C
:10215000172210C011F00FC010F00EC00FF00E6A61
:10216000125013C009F00A6A0926000E0A22820ED4
:102170000924186EFF0E0A20196ED4EF10F0D890C3
:10218000143615361636173611AEC9EF10F0CBEFF0
:1021900010F0CCEF10F01480D8900E360F361036B9
:1021A00011361806D8A0190616AED9EF10F0DBEFDD
:1021B00010F0BFEF10F0000E126E11AEE2EF10F053
:1021C000E4EF10F008EF11F0FF0E0E14096EFF0E91
:1021D0000F140A6EFF0E10140B6E7F0E11140C6E8E
:1021E00009500A100B100C10D8B4F9EF10F0FBEFE7
:1021F00010F0FFEF10F0010E126E08EF11F014A0B6
:1022000004EF11F006EF11F008EF11F0FBEF10F002
:102210001250D8B40EEF11F010EF11F034EF11F0AE
:10222000010E1426000E15221622172217A01BEFEE
:1022300011F01DEF11F034EF11F014C009F015C0CA
:102240000AF016C00BF017C00CF00C340C320B3235
:102250000A32093209C014F00AC015F00BC016F09A
:102260000CC017F0184A192A19BE3FEF11F0195087
:1022700008E11828D8A03FEF11F041EF11F04BEF23
:1022800011F0000E146E000E156E800E166E7F0E8D
:10229000176E79EF11F019BE58EF11F0195006E1E1
:1022A0001804D8B056EF11F058EF11F064EF11F0A8
:1022B000000E146E000E156E000E166E000E176ED8
:1022C000000E0D6E79EF11F018C013F0FF0E14160A
:1022D000FF0E15167F0E1616000E171613A073EFBD
:1022E00011F075EF11F076EF11F0168ED8901330D3
:1022F000176E0D50171214C001F015C002F016C071
:1023000003F017C004F012000450800B116E04504B
:102310000424186E03AE8FEF11F091EF11F092EFDD
:1023200011F018801850D8B498EF11F09AEF11F00E
:10233000AFEF11F01828D8A4A0EF11F0A2EF11F020
:10234000AAEF11F0000E016E000E026E000E036E79
:10235000000E046E038E000E046EB7EF11F0000E37
:10236000016E000E026E000E036E000E046E085029
:10237000800B111A08500824196E07AEC2EF11F035
:10238000C4EF11F0C5EF11F019801950D8B4CBEF9C
:1023900011F0CDEF11F0E2EF11F01928D8A4D3EF2E
:1023A00011F0D5EF11F0DDEF11F0000E056E000E0B
:1023B000066E000E076E000E086E078E000E086E89
:1023C000EAEF11F0000E056E000E066E000E076EAD
:1023D000000E086E0550061007100810D8A4F3EF81
:1023E00011F0F5EF11F00DEF12F0000E016E000E7E
:1023F000026E000E036E000E046E800E03127F0E3E
:1024000004121150041201C001F002C002F003C016
:1024100003F004C004F050EF13F01850D8A413EFE9
:1024200012F015EF12F01FEF12F0000E016E000E09
:10243000026E000E036E000E046E50EF13F0195082
:1024400018C009F00A6A095E000E0A5A7F0E0924B4
:10245000126E000E0A20136E01C00DF002C00EF0C5
:1024600003C00FF004C010F0000E016E000E026EEB
:10247000000E036E000E046E000E146E000E156E3C
:10248000000E166E000E176E000E196E80EF12F021
:102490001950D8B44EEF12F050EF12F067EF12F06F
:1024A000D8900D360E360F361036D89001360236DB
:1024B0000336043617AE5FEF12F061EF12F062EFF1
:1024C00012F00180D890143615361636173605509E
:1024D0000D5C06500E5807500F5808501058D8A0E1
:1024E00074EF12F076EF12F07FEF12F0178C0550B8
:1024F0000D5E06500E5A07500F5A0850105A192AEE
:10250000190E196486EF12F088EF12F048EF12F0FE
:102510000D500E100F101010D8B491EF12F093EF71
:1025200012F0ABEF12F01480ABEF12F0D89001363E
:1025300002360336043617AEA0EF12F0A2EF12F007
:10254000A3EF12F00180D8901436153616361736E0
:102550001206D8A0130603AEB0EF12F0B2EF12F0DD
:1025600096EF12F0000E196E17AEB9EF12F0BBEF36
:1025700012F0DFEF12F0FF0E1414096EFF0E1514A7
:102580000A6EFF0E16140B6E7F0E17140C6E095098
:102590000A100B100C10D8B4D0EF12F0D2EF12F0DA
:1025A000D6EF12F0010E196EDFEF12F001A0DBEF93
:1025B00012F0DDEF12F0DFEF12F0D2EF12F019504F
:1025C000D8B4E5EF12F0E7EF12F00BEF13F0010EC5
:1025D0000126000E02220322042204A0F2EF12F0D0
:1025E000F4EF12F00BEF13F001C009F002C00AF093
:1025F00003C00BF004C00CF00C340C320B320A3266
:10260000093209C001F00AC002F00BC003F00CC08F
:1026100004F0124A132A13BE16EF13F0135008E108
:102620001228D8A016EF13F018EF13F023EF13F0D1
:10263000000E136E1268000E016E000E026E000E88
:10264000036E000E046E13BE30EF13F0135006E15C
:102650001204D8B02EEF13F030EF13F03EEF13F06A
:10266000000E136E000E126E000E016E000E026E52
:10267000000E036E000E046E000E116E12C018F0F4
:1026800018A045EF13F047EF13F04AEF13F0038E55
:102690004BEF13F0039ED8901830046E01EF12F048
:1026A0001200A4C02AF0A5C02BF0A6C02CF0A7C031
:1026B0002DF01AC02AF01BC02BF01CC02CF01DC03E
:1026C0002DF0810E1E6EFF0E1F6E2AC020F02BC053
:1026D00021F02CC022F02DC023F0180E75EF13F05E
:1026E000D8902332223221322032E82E70EF13F0BC
:1026F00020501E24286E000E1F20296E29BE8AEF4E
:1027000013F0295009E1170E285CD8A08AEF13F0C6
:102710008CEF13F096EF13F01AC01AF01BC01BF0E9
:102720001CC01CF01DC01DF059EF14F029BE9BEF1A
:1027300013F09DEF13F00DEF14F028C01EF0FF0E04
:102740001F6EFF0E206E7F0E216E000E226E1E6623
:10275000ACEF13F0B4EF13F02234223221322032E6
:102760001F321E2EA7EF13F01FC024F020C025F04B
:1027700021C026F022C027F024502A141E6E2550B6
:102780002B141F6E26502C14206E27502D14216EF2
:102790001E501F1020102110D8A4D1EF13F0D3EF3A
:1027A00013F0D5EF13F08CEF13F02AC01EF02BC0FE
:1027B0001FF02CC020F02DC021F0200EE5EF13F00B
:1027C000D890213220321F321E32E82EE0EF13F073
:1027D0001E501F1020102110D8B4F1EF13F0F3EFAA
:1027E00013F0FBEF13F024502A2625502B222650FD
:1027F0002C2227502D22241C1E6E251C1F6E261CE9
:10280000206E271C216E1E502A161F502B1620509A
:102810002C1621502D1651EF14F02AC01EF02BC09B
:102820001FF02CC020F02DC021F0200E1DEF14F061
:10283000D890213220321F321E32E82E18EF14F0C9
:102840001E501F1020102110D8A429EF14F02BEFD8
:1028500014F035EF14F0000E2A6E000E2B6E000EF1
:102860002C6E000E2D6E51EF14F0D8902A341E6E8F
:102870002B341F6E2C34206E2D34216E1E501F10F1
:1028800020102110D8B447EF14F049EF14F051EFA5
:1028900014F0000E2A6E000E2B6E800E2C6EBF0EF2
:1028A0002D6E2AC01AF02BC01BF02CC01CF02DC0BE
:1028B0001DF01200116E1150D8B461EF14F063EFE7
:1028C00014F085EF14F00CBE6AEF14F068EF14F00A
:1028D00085EF14F009C00DF00AC00EF00BC00FF028
:1028E0000CC010F00D1E0E1E0F1E101E0D2A000E25
:1028F0000E220F2210220DC013F00EC014F00FC0D4
:1029000015F010C016F08DEF14F009C013F00AC0D6
:1029100014F00BC015F00CC016F009500A100B1083
:102920000C10D8A496EF14F098EF14F0A2EF14F066
:10293000000E096E000E0A6E000E0B6E000E0C6E7D
:1029400033EF15F0960E126EACEF14F0122AD890F9
:102950001632153214321332000E13140D6E000E9F
:1029600014140E6E000E15140F6EFE0E1614106E5B
:102970000D500E100F101010D8A4C1EF14F0C3EFBB
:1029800014F0A6EF14F0D1EF14F0122A010E132662
:10299000000E142215221622D89016321532143247
:1029A0001332000E13140D6E000E14140E6E000E72
:1029B00015140F6EFF0E1614106E0D500E100F1022
:1029C0001010D8A4E6EF14F0E8EF14F0C5EF14F0FF
:1029D000F0EF14F01206D89013361436153616366A
:1029E00015BEF5EF14F0F7EF14F0FFEF14F0020E40
:1029F0001260FDEF14F0FFEF14F0EAEF14F012B0E4
:102A000004EF15F006EF15F007EF15F0159ED890BE
:102A1000123212C00DF00E6A0F6A106A0DC010F06B
:102A20000F6A0E6A0D6A0D5013120E5014120F50D9
:102A30001512105016121150D8B421EF15F023EFD3
:102A400015F02BEF15F00CBE2AEF15F028EF15F05E
:102A50002BEF15F0168E13C009F014C00AF015C044
:102A60000BF016C00CF01200000E166E000E156E64
:102A7000000E0F6E000E0E6E40EF15F0084A092A88
:102A8000010E146E08C0F6FF09C0F7FF0800F550EC
:102A9000200AD8B44EEF15F050EF15F06DEF15F099
:102AA000F70E0A6EFF0E0B6E08C0F6FF09C0F7FFA7
:102AB0000800F5500C6E0D6A0A500C260B500D22C2
:102AC0000D5009E1050E0C5CD8A069EF15F06BEF15
:102AD00015F06DEF15F0000E146E14C010F0116AB1
:102AE00010501110D8A477EF15F079EF15F03EEFE4
:102AF00015F083EF15F0000E0F6E010E0E6E084AF2
:102B0000092AB8EF15F008C0F6FF09C0F7FF080062
:102B1000F5500A6E0B6A0B50000AD8B492EF15F00C
:102B2000B8EF15F00A502B0AD8B47FEF15F0060A5B
:102B3000D8B47BEF15F0B8EF15F015C001F016C052
:102B400002F0000E046E0A0E036E43EC1CF008C087
:102B5000F6FF09C0F7FF0800F550015E000E025AAB
:102B6000300E0124156E000E0220166E7FEF15F058
:102B7000D00E0A6EFF0E0B6E08C0F6FF09C0F7FFFD
:102B80000800F5500C6E0D6A0A500C260B500D22F1
:102B90000D500AE10A0E0C5CD8A0D1EF15F0D4EF6D
:102BA00015F0010ED5EF15F0000E126E136A1250DB
:102BB0001310D8A4DEEF15F0E0EF15F09DEF15F03F
:102BC0000E500F10D8A4E7EF15F0E9EF15F0F7EF6E
:102BD00015F015C00AF016C00BF00A1E0B1E0A4AAB
:102BE0000B2A0AC008F00BC009F0FBEF15F015C066
:102BF00008F016C009F0120072EC1CF0800E0E6E88
:102C0000250E0F6E000E106E000E116EF5EC1AF010
:102C10009592959692888C82100E926E8C9200D02E
:102C2000000E0001B86F0F0EB86519EF16F01BEF1C
:102C300016F01DEF16F038EF16F08C8680CF9FF05F
:102C40009F3B0F0E9F17010E9F179F51B9C0A0F019
:102C5000BAC0A1F0D890A037A137A011B96FA15187
:102C6000BA6F00D08C9600D00001B82B13EF16F08D
:102C70008C82000E046E040E036EB9C09FF0BAC0C1
:102C8000A0F0A035A0339F33A035A0339F33A035EB
:102C9000A0339F33FF0E9F15016E0F0EA015026E1D
:102CA000E8EC18F0E80E01240001A26FFF0E0220EC
:102CB000A36F000E046E0A0E036EA2C001F0A3C043
:102CC00002F0E8EC18F001C009F002C00AF0000EB2
:102CD0000ABEFF0E0B6E0C6E010E5AEC14F009C00A
:102CE000ACF00AC0ADF00BC0AEF00CC0AFF0010EFE
:102CF0005A6E080E5B6EACC05CF0ADC05DF0AEC04D
:102D00005EF0AFC05FF02FEC1CF0090E0001A06F69
:102D10001E0E9F6FE40EE82EFED79F2FFCD7A02F2C
:102D2000FAD700F00EEF16F000EF00F00334043491
:102D30000A6E0A50D8A49FEF16F0A1EF16F0ABEF81
:102D400016F0000E016E000E026E000E036E000EF5
:102D5000046E18EF17F001C005F002C006F003C0C2
:102D600007F004C008F0200EBBEF16F0D890083230
:102D7000073206320532E82EB6EF16F00550096E1E
:102D8000038EFF0E0116FF0E0216FF0E0316000E35
:102D90000416960E0A5E0ABED2EF16F0D0EF16F0B9
:102DA000E8EF16F00A50800A970FD8B0DAEF16F065
:102DB000DCEF16F0DEEF16F0A1EF16F0D89004323B
:102DC0000332023201320A3EDEEF16F000EF17F056
:102DD0001F0E0A64EEEF16F0F0EF16F0F8EF16F0A3
:102DE000A1EF16F0D89001360236033604360A06F3
:102DF0000A50D8A4FEEF16F000EF17F0F2EF16F02D
:102E00000950D8B406EF17F008EF17F010EF17F0DD
:102E1000041E031E021E016C000E02220322042265
:102E200001C001F002C002F003C003F004C004F0CE
:102E30001200000E1A14226E000E1B14236E800E58
:102E40001C14246E7F0E1D14256E22502310241096
:102E50002510D8A42EEF17F030EF17F038EF17F049
:102E6000000E1A6E000E1B6E000E1C6E000E1D6E04
:102E7000000E1E14226E000E1F14236E800E2014EE
:102E8000246E7F0E2114256E22502310241025104D
:102E9000D8A44DEF17F04FEF17F057EF17F0000ED3
:102EA0001E6E000E1F6E000E206E000E216E1DAEF7
:102EB0005CEF17F05EEF17F067EF17F01A6C1B1E50
:102EC000D8B01B2A1C1ED8B01C2A800E1D5621AE5D
:102ED0006CEF17F06EEF17F077EF17F01E6C1F1EF8
:102EE000D8B01F2A201ED8B0202A800E2156000EEE
:102EF0001A1A000E1B1A000E1C1A800E1D1A000E44
:102F00001E1A000E1F1A000E201A800E211A1E50C3
:102F10001A5C1F501B5820501C5821501D58D8B007
:102F200094EF17F096EF17F099EF17F0D8909AEF0B
:102F300017F0D8801200A8C00BF0A9C00CF0AAC0EE
:102F40000DF0ABC00EF001C00BF002C00CF003C0DE
:102F50000DF004C00EF00BC005F00CC006F00DC063
:102F600007F00EC008F0180EBBEF17F0D89008322B
:102F7000073206320532E82EB6EF17F00550096E1B
:102F80000A6A09500A10D8A4C8EF17F0CAEF17F060
:102F9000EAEF17F0D8900B34056E0C34066E0D3442
:102FA000076E0E34086E0550061007100810D8A4DE
:102FB000DCEF17F0DEEF17F0E4EF17F0000E026E13
:102FC000020E016E19EF18F0000E026E030E016E74
:102FD00019EF18F009280A10D8A4F1EF17F0F3EF51
:102FE00017F015EF18F00BC005F00CC006F00DC07F
:102FF00007F00EC008F0090ED890053606360736E1
:103000000836E82EFCEF17F00550061007100810E0
:10301000D8B40DEF18F010EF18F0010E11EF18F002
:10302000000E016E026A19EF18F0000E026E040E17
:10303000016E120001C008F002C009F003C00AF0DE
:1030400004C00BF00506D8A00606052806E10628F0
:10305000D8A42DEF18F02FEF18F03CEF18F0000E69
:10306000026E000E016E84EF18F0084A092A0A4A1F
:103070000B2A0506D8A0060608C0D9FF09C0DAFF4A
:10308000DF50D8B446EF18F048EF18F073EF18F09F
:103090000AC0F6FF0BC0F7FF0800F5500009D8B4CE
:1030A00054EF18F056EF18F073EF18F005500610B3
:1030B000D8B45DEF18F05FEF18F073EF18F008C0A8
:1030C000D9FF09C0DAFFDF50076E0AC0F6FF0BC058
:1030D000F7FF0800F5500718D8B471EF18F073EF38
:1030E00018F035EF18F008C0D9FF09C0DAFFDF503B
:1030F000076E0AC0F6FF0BC0F7FF0800F550075C2B
:10310000016E026AD8A0020612000001B6A18BEF80
:1031100018F08DEF18F097EF18F014C00BF015C0F1
:103120000CF012C00DF013C00EF09EEC1BF017BE99
:103130009CEF18F09EEF18F0A4EF18F016C01BF0EB
:1031400017C01CF0A8EF18F0000E1C6E000E1B6ECE
:10315000000E1A6E000E196EBAEF18F0000E036E14
:10316000200E026E12C004F013C005F049EC1AF0F4
:10317000194A1A2A1B50195C1A50800A186E1C50E2
:10318000800A1858D8A0C7EF18F0C9EF18F0AEEFB2
:1031900018F00001B6B1CFEF18F0D1EF18F0DBEF67
:1031A00018F014C00BF015C00CF012C00DF013C0D5
:1031B0000EF09EEC1BF014C001F015C002F014ECF0
:1031C0001CF01B500124126E1C500220136E1200C2
:1031D000000E066E04BEF1EF18F0EFEF18F0F7EFF7
:1031E00018F0036C041ED8B0042A010E066E02BE4D
:1031F000FEEF18F0FCEF18F004EF19F0016C021E5E
:10320000D8B0022A010E061A000E086E000E076ED4
:1032100003500410D8B40FEF19F011EF19F039EF83
:1032200019F0010E056E19EF19F0D8900336043627
:10323000052A04AE1EEF19F020EF19F015EF19F072
:10324000D890073608360350015C04500258D8A0C5
:103250002CEF19F02EEF19F033EF19F00350015E47
:103260000450025A0780D89004320332052E20EF12
:1032700019F00650D8B43FEF19F041EF19F045EFBF
:1032800019F0076C081ED8B0082A07C001F008C062
:1032900002F01200000E066E02BE53EF19F051EF5D
:1032A00019F059EF19F0016C021ED8B0022A010E74
:1032B000066E04BE60EF19F05EEF19F064EF19F0CE
:1032C000036C041ED8B0042A03500410D8B46BEF6A
:1032D00019F06DEF19F091EF19F0010E056E75EF11
:1032E00019F0D89003360436052A04AE7AEF19F0A7
:1032F0007CEF19F071EF19F00350015C0450025893
:10330000D8A085EF19F087EF19F08BEF19F0035073
:10331000015E0450025AD89004320332052E7CEF2D
:1033200019F00650D8B497EF19F099EF19F09DEF06
:1033300019F0016C021ED8B0022A01C001F002C0CF
:1033400002F01200000E0114096E000E02140A6E43
:10335000800E03140B6E7F0E04140C6E09500A10BD
:103360000B100C10D8A4B7EF19F0B9EF19F0C1EF9A
:1033700019F0000E016E000E026E000E036E000EBC
:10338000046E000E0514096E000E06140A6E800EFF
:1033900007140B6E7F0E08140C6E09500A100B10E8
:1033A0000C10D8A4D6EF19F0D8EF19F0E0EF19F00F
:1033B000000E056E000E066E000E076E000E086E03
:1033C000055001180FE1065002180CE107500318D0
:1033D00009E108500418D8B4F0EF19F0F2EF19F031
:1033E000F5EF19F0D890F6EF19F0D8801200000E22
:1033F000096E000E0A6E000E0B6E000E0C6E05506C
:10340000061007100810D8B408EF1AF00AEF1AF0E7
:1034100040EF1AF0010E0D6E14EF1AF0D890053639
:103420000636073608360D2A08AE19EF1AF01BEFDC
:103430001AF00EEF1AF0D89009360A360B360C3611
:103440000550015C065002580750035808500458B4
:10345000D8A02DEF1AF02FEF1AF038EF1AF0055020
:10346000015E0650025A0750035A0850045A098058
:10347000D89008320732063205320D2E1BEF1AF0B3
:1034800009C001F00AC002F00BC003F00CC004F048
:10349000120004500510D8B450EF1AF052EF1AF091
:1034A0005BEF1AF004500510D8A459EF1AF05BEF47
:1034B0001AF060EF1AF0025067EC1CF093EF1AF06C
:1034C00020EE04F00450D9260550DA22DE50DE103A
:1034D000D8B46DEF1AF06FEF1AF08AEF1AF020EE01
:1034E00004F00450D9260550DA2210EE02F0045000
:1034F000E1260550E222DE50E65CE650800A0A6EC4
:10350000DE50800A0A58D8B088EF1AF08AEF1AF015
:1035100093EF1AF020EE02F00450D9260550DA227B
:10352000DE2A000EDD22120054C058F055C059F0BA
:10353000000E0001B16F000EB06FB2EF1AF052C072
:103540003AF053C03BF0580E3C6E000E3D6E56C034
:103550003EF057C03FF068EC0AF03A500001B02747
:103560003B50B12358C0F6FF59C0F7FF0800F55093
:103570000009D8A4BEEF1AF0C0EF1AF09FEF1AF0BE
:10358000B0C052F0B1C053F01200BF0E096EFF0E72
:103590000A6E07C00BF008C00CF009500B260A5049
:1035A0000C220C500AE11A0E0B5CD8A0DAEF1AF0CC
:1035B000DDEF1AF0010EDEEF1AF0000E0D6E0E6A4E
:1035C0000D500E10D8B4E7EF1AF0E9EF1AF0F0EF53
:1035D0001AF0200E0710076E0850086EF4EF1AF06C
:1035E00007C007F008C008F01200949C240EAC6ECF
:1035F000900EAB6E080EB86E000E016E120E026ECB
:103600007A0E036E000E046E0EC005F00FC006F0B9
:1036100010C007F011C008F0F7EC19F0030E16EF18
:103620001BF0D8900432033202320132E82E11EF3F
:103630001BF0FF0E0124126EFF0E0220136E12C04B
:10364000AFFF1350B06E120003C007F004C008F0C3
:1036500001C009F002C00AF00750056E0850066E5E
:10366000074A082A05C0F6FF06C0F7FFF86A09C036
:10367000D9FF0AC0DAFF094A0A2A070EF76403D005
:103680000800F55005D0F6CFE9FFF7CFEAFFEF507D
:10369000DF6EDF50D8A44FEF1BF051EF1BF02CEF83
:1036A0001BF01200010E076E200E01180210D8B494
:1036B0005CEF1BF05EEF1BF077EF1BF0F70E036E75
:1036C000FF0E046E01C005F002C006F0035005268F
:1036D00004500622065009E1050E055CD8A073EFE0
:1036E0001BF075EF1BF077EF1BF0000E076E07C0A5
:1036F00001F0026A1200000E1E1A000E1F1A000EC0
:10370000201A800E211A1AC001F01BC002F01CC042
:1037100003F01DC004F01EC005F01FC006F020C05D
:1037200007F021C008F00FEC0DF001C01AF002C044
:103730001BF003C01CF004C01DF01200000E116E3F
:10374000000E106EAFEF1BF00FC002F0036A0DC049
:1037500004F00EC005F049EC1AF0104A112A10507E
:103760000B24D96E11500C20DA6EDF500F6E0F5003
:10377000D8A4BDEF1BF0BFEF1BF0A4EF1BF01200AD
:10378000BF0E036EFF0E046E01C005F002C006F00E
:10379000035005260450062206500AE11A0E055C65
:1037A000D8A0D5EF1BF0D8EF1BF0010ED9EF1BF01E
:1037B000000E016E026A1200015002100310041084
:1037C000D8B4E5EF1BF0E7EF1BF0EFEF1BF0000EB6
:1037D000011A000E021A000E031A800E041A01C00C
:1037E00001F002C002F003C003F004C004F01200B4
:1037F000D00E036EFF0E046E01C005F002C006F08D
:10380000035005260450062206500AE10A0E055C04
:10381000D8A00DEF1CF010EF1CF0010E11EF1CF002
:10382000000E016E026A120001C003F002C004F033
:103830001CEF1CF0014A022A01C0D9FF02C0DAFFC6
:10384000DF50D8A426EF1CF028EF1CF01AEF1CF074
:103850000350015C016E04500258026E12005C0EAF
:103860000001986F000E996F000E526E000E536E9D
:103870005AC054F05BC055F0980E566E000E576E4D
:1038800094EC1AF0120001500302F3CF05F0F4CFCC
:1038900006F001500402F350062602500302F350D2
:1038A000062605C001F006C002F0120001EE00F08D
:1038B000500EEE6AE806FDE100EEA4F0170EEE6A87
:1038C000E806FDE1000EF86E0001FCEF15F0016E58
:1038D00001C0ADFFACA26FEF1CF071EF1CF06AEFFE
:0A38E0001CF01200700ED31212004B
:020000040020DA
:08000000FFFFFFFFFFFFFFFF00
:020000040030CA
:0E000000000A1F1EFF8385FF0FC00FE00F4098
:00000001FF
