:04000000DDEF0DF033
:1008000000413A25303275204D3A2530327520446A
:100810005F4D3A2530327520445F533A25303275AA
:10082000200A0D00483A25303275204D3A253032E5
:0D0830007520533A25303275200A0D000066
:10083E003FC0D9FF40C0DAFFDECFF6FFDDCFF7FFB6
:10084E000800F550250AD8A42FEF04F031EF04F07C
:10085E00ADEF05F03FC0D9FF40C0DAFFDE2A000E33
:10086E00DD22000E0001636F000E626F62C066F043
:10087E0063C067F064696569000E506E000E4F6EBE
:10088E0094EF04F0000166813FC0D9FF40C0DAFF4B
:10089E00DE2A000EDD2294EF04F0000166834BEF9A
:1008AE0004F0000166854BEF04F0000166874BEF04
:1008BE0004F0000166894BEF04F0000E506E010E3D
:1008CE004F6E94EF04F03FC0D9FF40C0DAFFDECF89
:1008DE00F6FFDDCFF7FF0800F550436E446A445033
:1008EE00000AD8B47DEF04F064EF04F04350200A00
:1008FE00D8B45CEF04F0030AD8B460EF04F0080A31
:10090E00D8B458EF04F0060AD8B449EF04F01D0A23
:10091E00D8B454EF04F064EF04F04F505010D8B434
:10092E009BEF04F09DEF04F06AEF04F0000166A166
:10093E00A3EF04F0A5EF04F0A6EF04F066933FC01A
:10094E00D9FF40C0DAFFDECFF6FFDDCFF7FF08009C
:10095E00F5502A0AD8A4B6EF04F0B8EF04F0E1EF90
:10096E0004F03FC0D9FF40C0DAFFDE2A000EDD22C0
:10097E0041C0D9FF42C0DAFFDFCF43F0020EDE26C0
:10098E00DFCF44F0000EDD2243C0D9FF44C0DAFFB2
:10099E00DECF62F0DDCF63F063BFDAEF04F0D8EFA5
:1009AE0004F024EF05F06681626D631FD8B0632BEF
:1009BE0024EF05F03FC0D9FF40C0DAFFDECF08F0CC
:1009CE00DDCF09F0CAEC06F008C062F009C063F092
:1009DE00F8EF04F03FC0D9FF40C0DAFFDE2A000E68
:1009EE00DD22D00E436EFF0E446E3FC0D9FF40C0D5
:1009FE00DAFFDECFF6FFDDCFF7FF0800F550456ECC
:100A0E00466A435045264450462246500AE10A0E95
:100A1E00455CD8A015EF05F018EF05F0010E19EFA3
:100A2E0005F0000E516E526A51505210D8A422EFAA
:100A3E0005F024EF05F0F1EF04F03FC0D9FF40C000
:100A4E00DAFFDECFF6FFDDCFF7FF0800F550750AAF
:100A5E00D8A434EF05F036EF05F077EF05F03FC080
:100A6E00D9FF40C0DAFFDE2A000EDD2241C0D9FFD9
:100A7E0042C0DAFFDFCF43F0020EDE26DFCF44F0B6
:100A8E00000EDD2243C0D9FF44C0DAFFDECF45F0B1
:100A9E00DDCF46F045C047F046C048F0496A4A6A85
:100AAE004B6A4C6A4D6A4E6A3DC01DF03EC01EF048
:100ABE0047C01FF048C020F049C021F04AC022F0C4
:100ACE004BC023F04CC024F04DC025F04EC026F094
:100ADE00C9EC05F01DC03DF01EC03EF0C8EF05F09C
:100AEE003FC0D9FF40C0DAFFDECFF6FFDDCFF7FF04
:100AFE000800F550250AD8A487EF05F089EF05F018
:100B0E00A0EF05F03FC0D9FF40C0DAFFDE2A000E8D
:100B1E00DD22000E036E250E026E3DC004F03EC0B7
:100B2E0005F039EC0CF0000E3E6E010E3D6EC8EF76
:100B3E0005F03FC0D9FF40C0DAFFDE2A000EDD22ED
:100B4E00000E3E6E000E3D6EC8EF05F03FC0D9FFA1
:100B5E0040C0DAFFDECFF6FFDDCFF7FF0800F5501D
:100B6E00026E036A3DC004F03EC005F039EC0CF095
:100B7E003FC0D9FF40C0DAFFDE2A000EDD229AEF19
:100B8E0005F01200000165BFCFEF05F0D1EF05F0C3
:100B9E00D2EF05F0669365BFDFEF05F0655106E114
:100BAE006405D8B0DDEF05F0DFEF05F0E5EF05F0F9
:100BBE00000E306E010E2F6EE9EF05F064C02FF0BF
:100BCE0065C030F062C031F063C032F01FC033F048
:100BDE0020C034F021C035F022C036F023C037F0EB
:100BEE0024C038F025C039F026C03AF0000E3C6E15
:100BFE001F0E3B6E000E8D6F7BEF06F03B06D8A0EE
:100C0E003C066E0E3B24D96E000E3C20DA6E33C0CD
:100C1E0001F034C002F035C003F036C004F037C026
:100C2E0005F038C006F039C007F03AC008F00A0ED9
:100C3E00096E000E0A6E000E0B6E000E0C6E000E8C
:100C4E000D6E000E0E6E000E0F6E000E106E04EC8A
:100C5E000AF001C027F002C028F003C029F004C03A
:100C6E002AF005C02BF006C02CF007C02DF008C0EE
:100C7E002EF02750300FDF6E2F06D8A0300631062B
:100C8E00D8A0320633C001F034C002F035C003F0F4
:100C9E0036C004F037C005F038C006F039C007F092
:100CAE003AC008F00A0E096E000E0A6E000E0B6EA8
:100CBE00000E0C6E000E0D6E000E0E6E000E0F6E00
:100CCE00000E106EA6EC08F001C033F002C034F036
:100CDE0003C035F004C036F005C037F006C038F05A
:100CEE0007C039F008C03AF03B503C10D8B482EF40
:100CFE0006F084EF06F0B5EF06F0335034103510E1
:100D0E0036103710381039103A10D8A491EF06F07B
:100D1E0093EF06F005EF06F030BEA0EF06F0305070
:100D2E0006E12F04D8B09EEF06F0A0EF06F005EF17
:100D3E0006F032BEABEF06F0325008E13104D8A017
:100D4E00ABEF06F0ADEF06F0B5EF06F0000166B3BF
:100D5E00B3EF06F0B5EF06F005EF06F01DC012F08A
:100D6E001EC013F06E0E3B24146E000E3C20156E4A
:100D7E0031C016F032C017F06CEC0AF012C01DF044
:100D8E0013C01EF01200000E166E000E156E000E31
:100D9E000F6E000E0E6ED6EF06F0084A092A010EEF
:100DAE00146E08C0F6FF09C0F7FF0800F550200AC0
:100DBE00D8B4E4EF06F0E6EF06F003EF07F0F70E17
:100DCE000A6EFF0E0B6E08C0F6FF09C0F7FF080093
:100DDE00F5500C6E0D6A0A500C260B500D220D505C
:100DEE0009E1050E0C5CD8A0FFEF06F001EF07F04D
:100DFE0003EF07F0000E146E14C010F0116A1050BD
:100E0E001110D8A40DEF07F00FEF07F0D4EF06F096
:100E1E0019EF07F0000E0F6E010E0E6E084A092A2A
:100E2E004EEF07F008C0F6FF09C0F7FF0800F550B7
:100E3E000A6E0B6A0B50000AD8B428EF07F04EEF7B
:100E4E0007F00A502B0AD8B415EF07F0060AD8B4EB
:100E5E0011EF07F04EEF07F015C001F016C002F0CB
:100E6E00000E046E0A0E036EB8EC0DF008C0F6FF0D
:100E7E0009C0F7FF0800F550015E000E025A300E51
:100E8E000124156E000E0220166E15EF07F0D00E1F
:100E9E000A6EFF0E0B6E08C0F6FF09C0F7FF0800C2
:100EAE00F5500C6E0D6A0A500C260B500D220D508B
:100EBE000AE10A0E0C5CD8A067EF07F06AEF07F0A4
:100ECE00010E6BEF07F0000E126E136A1250131024
:100EDE00D8A474EF07F076EF07F033EF07F00E505B
:100EEE000F10D8A47DEF07F07FEF07F08DEF07F01E
:100EFE0015C00AF016C00BF00A1E0B1E0A4A0B2A6A
:100F0E000AC008F00BC009F091EF07F015C008F009
:100F1E0016C009F0120011EC0EF0D00ECBEC0DF055
:100F2E00030ECBEC0DF008EC0EF0D10ECBEC0DF069
:100F3E000AC001F00BC002F0000E036E84EC0CF040
:100F4E0008C001F009C002F0000E036E84EC0CF034
:100F5E0006C001F007C002F0000E036E84EC0CF028
:100F6E0004C001F005C002F0010E036E84EC0CF01B
:100F7E00FFEC0DF00AC0D9FF0BC0DAFFDF500C6E8C
:100F8E000F0E0C160AC0D9FF0BC0DAFFDF500D6E24
:100F9E000D380F0B0F0B0A0DF3500C240AC0D9FF9E
:100FAE000BC0DAFFDF6E08C0D9FF09C0DAFFDF50D1
:100FBE000C6E0F0E0C1608C0D9FF09C0DAFFDF50F9
:100FCE000D6E0D380F0B0F0B0A0DF3500C2408C0CD
:100FDE00D9FF09C0DAFFDF6E06C0D9FF07C0DAFFFE
:100FEE00DF500C6E0F0E0C1606C0D9FF07C0DAFFCD
:100FFE00DF500D6E0D380F0B0F0B0A0DF3500C2436
:10100E0006C0D9FF07C0DAFFDF6E04C0D9FF05C0E6
:10101E00DAFFDF500C6E0F0E0C1604C0D9FF05C0A0
:10102E00DAFFDF500D6E0D380F0B0F0B0A0DF3505C
:10103E000C2404C0D9FF05C0DAFFDF6E12000E6E5D
:10104E000EC001F0026A000E046E0A0E036E8FECE3
:10105E000BF001C00CF002C00DF00EC001F0026AE0
:10106E00000E046E0A0E036ECFEC0AF00138F00B80
:10107E000C100E6E09C001F0026A000E046E0A0E0C
:10108E00036E8FEC0BF001C00CF002C00DF009C026
:10109E0001F0026A000E046E0A0E036ECFEC0AF027
:1010AE000138F00B0C10096E0AC001F0026A000E36
:1010BE00046E0A0E036E8FEC0BF001C00CF002C032
:1010CE000DF00AC001F0026A000E046E0A0E036EE5
:1010DE00CFEC0AF00138F00B0C100A6E0BC001F0C9
:1010EE00026A000E046E0A0E036E8FEC0BF001C046
:1010FE000CF002C00DF00BC001F0026A000E046E7F
:10110E000A0E036ECFEC0AF00138F00B0C100B6ECA
:10111E0011EC0EF0D00ECBEC0DF0030ECBEC0DF06F
:10112E000B50CBEC0DF00E50CBEC0DF00950CBEC80
:10113E000DF00A50CBEC0DF0FFEC0DF0120020EE8E
:10114E0011F0070EDE6AE806FDE209500A100B10D8
:10115E000C100D100E100F101010D8B4B9EF08F0BF
:10116E00BBEF08F00DEF09F0010E196EC9EF08F094
:10117E00D89009360A360B360C360D360E360F362B
:10118E001036192A10AECEEF08F0D0EF08F0BFEFF0
:10119E0008F0D89011361236133614361536163628
:1011AE00173618360950015C0A5002580B50035876
:1011BE000C5004580D5005580E5006580F50075835
:1011CE0010500858D8A0EEEF08F0F0EF08F001EF3D
:1011DE0009F00950015E0A50025A0B50035A0C5086
:1011EE00045A0D50055A0E50065A0F50075A1050F9
:1011FE00085A1180D89010320F320E320D320C3246
:10120E000B320A320932192ED0EF08F011C001F05C
:10121E0012C002F013C003F014C004F015C005F0A4
:10122E0016C006F017C007F018C008F0120020EC28
:10123E000EF0F4EC0DF0800E0E6E250E0F6E000EFD
:10124E00106E000E116EF3EC0CF01AEC0EF01E0E7A
:10125E00096E000E0A6E120E31EC0BF0090E096EBD
:10126E00160E0A6E070E0B6E040E26EC08F0940E88
:10127E00046E000E056E930E066E000E076E920E35
:10128E00086E000E096E91EC09F0910E046E000EC0
:10129E00056E900E066E000E076E8F0E086E000E17
:1012AE00096E8E0E0A6E000E0B6E92EC07F0240E77
:1012BE000001956F080E966F94C097F0986B93C0CF
:1012CE0099F09A6B92C09BF09C6BA5EC0DF0010E01
:1012DE000001956F080E966F91C097F0986B90C0B5
:1012EE0099F09A6B8FC09BF09C6B8EC09DF09E6B9D
:1012FE00A5EC0DF0030E5E6E080E5D6E770EE82EF9
:10130E00FED75D2EFCD75E2EFAD700F03EEF09F029
:10131E0000EF00F011EC0EF0D00ECBEC0DF0000E45
:10132E00CBEC0DF008EC0EF0D10ECBEC0DF008C0AE
:10133E0001F009C002F0000E036E84EC0CF006C042
:10134E0001F007C002F0000E036E84EC0CF004C036
:10135E0001F005C002F0010E036E84EC0CF0FFEC00
:10136E000DF008C0D9FF09C0DAFFDF500A6E0F0E6C
:10137E000A1608C0D9FF09C0DAFFDF500B6E0B3812
:10138E000F0B0F0B0A0DF3500A2408C0D9FF09C02A
:10139E00DAFFDF6E06C0D9FF07C0DAFFDF500A6E34
:1013AE000F0E0A1606C0D9FF07C0DAFFDF500B6E0C
:1013BE000B380F0B0F0B0A0DF3500A2406C0D9FF82
:1013CE0007C0DAFFDF6E04C0D9FF05C0DAFFDF50B9
:1013DE000A6E0F0E0A1604C0D9FF05C0DAFFDF50E1
:1013EE000B6E0B380F0B0F0B0A0DF3500A2404C0B3
:1013FE00D9FF05C0DAFFDF6E120009500A100B107C
:10140E000C100D100E100F101010D8B411EF0AF0B2
:10141E0013EF0AF05BEF0AF0010E116E21EF0AF0E6
:10142E00D89009360A360B360C360D360E360F3678
:10143E001036112A10AE26EF0AF028EF0AF017EF39
:10144E000AF00950015C0A5002580B5003580C5018
:10145E0004580D5005580E5006580F50075810508E
:10146E000858D8A03DEF0AF03FEF0AF04FEF0AF010
:10147E000950015E0A50025A0B50035A0C50045A7E
:10148E000D50055A0E50065A0F50075A1050085A52
:10149E00D89010320F320E320D320C320B320A321D
:1014AE000932112E28EF0AF001C001F002C002F03D
:1014BE0003C003F004C004F005C005F006C006F03A
:1014CE0007C007F008C008F01200000166A172EF15
:1014DE000AF074EF0AF07EEF0AF014C00BF015C09C
:1014EE000CF012C00DF013C00EF04CEC0DF017BE48
:1014FE0083EF0AF085EF0AF08BEF0AF016C01BF0AF
:10150E0017C01CF08FEF0AF0000E1C6E000E1B6E43
:10151E00000E1A6E000E196EA1EF0AF0000E036E89
:10152E00200E026E12C004F013C005F039EC0CF060
:10153E00194A1A2A1B50195C1A50800A186E1C5030
:10154E00800A1858D8A0AEEF0AF0B0EF0AF095EF67
:10155E000AF0000166B1B6EF0AF0B8EF0AF0C2EF7A
:10156E000AF014C00BF015C00CF012C00DF013C031
:10157E000EF04CEC0DF014C001F015C002F08AEC28
:10158E000DF01B500124126E1C500220136E12001F
:10159E00000E066E04BED8EF0AF0D6EF0AF0DEEFAC
:1015AE000AF0036C041ED8B0042A010E066E02BEA9
:1015BE00E5EF0AF0E3EF0AF0EBEF0AF0016C021E22
:1015CE00D8B0022A010E061A000E086E000E076E23
:1015DE0003500410D8B4F6EF0AF0F8EF0AF020EF3B
:1015EE000BF0010E056E00EF0BF0D89003360436AB
:1015FE00052A04AE05EF0BF007EF0BF0FCEF0AF037
:10160E00D890073608360350015C04500258D8A013
:10161E0013EF0BF015EF0BF01AEF0BF00350015E0A
:10162E000450025A0780D89004320332052E07EF79
:10163E000BF00650D8B426EF0BF028EF0BF02CEF82
:10164E000BF0076C081ED8B0082A07C001F008C0BE
:10165E0002F01200106E0AC001F0026A000E046E53
:10166E000A0E036E8FEC0BF001C00BF002C00CF0F3
:10167E000AC001F0026A000E046E0A0E036ECFEC71
:10168E000AF00138F00B0B100D6E09C001F0026A62
:10169E00000E046E0A0E036E8FEC0BF001C00BF001
:1016AE0002C00CF009C001F0026A000E046E0A0EB0
:1016BE00036ECFEC0AF00138F00B0B100E6E10C05B
:1016CE0001F0026A000E046E0A0E036E8FEC0BF030
:1016DE0001C00BF002C00CF010C001F0026A000E47
:1016EE00046E0A0E036ECFEC0AF00138F00B0B10ED
:1016FE000F6E000ECBEC0DF00D50CBEC0DF00E502E
:10170E00CBEC0DF00F50CBEC0DF0FFEC0DF012000A
:10171E00000E066E02BE98EF0BF096EF0BF09EEFEA
:10172E000BF0016C021ED8B0022A010E066E04BE2A
:10173E00A5EF0BF0A3EF0BF0A9EF0BF0036C041E5B
:10174E00D8B0042A03500410D8B4B0EF0BF0B2EFA7
:10175E000BF0D6EF0BF0010E056EBAEF0BF0D89032
:10176E0003360436052A04AEBFEF0BF0C1EF0BF0C3
:10177E00B6EF0BF00350015C04500258D8A0CAEF2C
:10178E000BF0CCEF0BF0D0EF0BF00350015E0450DA
:10179E00025AD89004320332052EC1EF0BF00650D8
:1017AE00D8B4DCEF0BF0DEEF0BF0E2EF0BF0016CD8
:1017BE00021ED8B0022A01C001F002C002F01200CF
:1017CE00000E096E000E0A6E000E0B6E000E0C6EF1
:1017DE000550061007100810D8B4F8EF0BF0FAEF0A
:1017EE000BF030EF0CF0010E0D6E04EF0CF0D890F4
:1017FE0005360636073608360D2A08AE09EF0CF008
:10180E000BEF0CF0FEEF0BF0D89009360A360B36C4
:10181E000C360550015C065002580750035808500C
:10182E000458D8A01DEF0CF01FEF0CF028EF0CF0B1
:10183E000550015E0650025A0750035A0850045ACA
:10184E000980D89008320732063205320D2E0BEF82
:10185E000CF009C001F00AC002F00BC003F00CC07E
:10186E0004F0120004500510D8B440EF0CF042EF13
:10187E000CF04BEF0CF004500510D8A449EF0CF00F
:10188E004BEF0CF050EF0CF00250E9EC0DF083EF43
:10189E000CF020EE04F00450D9260550DA22DE506A
:1018AE00DE10D8B45DEF0CF05FEF0CF07AEF0CF0B9
:1018BE0020EE04F00450D9260550DA2210EE02F084
:1018CE000450E1260550E222DE50E65CE650800A26
:1018DE000A6EDE50800A0A58D8B078EF0CF07AEF14
:1018EE000CF083EF0CF020EE02F00450D9260550D8
:1018FE00DA22DE2A000EDD221200C5860350D8A49D
:10190E008BEF0CF08DEF0CF0A3EF0CF0C7A092EF65
:10191E000CF094EF0CF08DEF0CF001C0D9FF02C06B
:10192E00DAFFC9CFDFFFC59AC588C5B8A1EF0CF0A5
:10193E00A3EF0CF09CEF0CF00304D8A4A9EF0CF06D
:10194E00ABEF0CF0C1EF0CF0C7A0B0EF0CF0B2EFA4
:10195E000CF0ABEF0CF001C0D9FF02C0DAFFC9CF1B
:10196E00DFFFC58AC588C5B8BFEF0CF0C1EF0CF01C
:10197E00BAEF0CF0120055C059F056C05AF0000ED6
:10198E000001616F000E606FE0EF0CF053C03DF090
:10199E0054C03EF0590E3F6E000E406E57C041F0DF
:1019AE0058C042F01FEC04F03D50000160273E503D
:1019BE00612359C0F6FF5AC0F7FF0800F550000921
:1019CE00D8A4ECEF0CF0EEEF0CF0CDEF0CF060C005
:1019DE0053F061C054F01200949C948E240EAC6EA1
:1019EE00900EAB6E080EB86E000E016E120E026EE9
:1019FE007A0E036E000E046E0EC005F00FC006F0D8
:101A0E0010C007F011C008F0E7EC0BF0030E15EF55
:101A1E000DF0D8900432033202320132E82E10EF6C
:101A2E000DF0FF0E0124126EFF0E0220136E12C077
:101A3E00AFFF1350B06E1200010E076E200E01188C
:101A4E000210D8B42DEF0DF02FEF0DF048EF0DF082
:101A5E00F70E036EFF0E046E01C005F002C006F015
:101A6E000350052604500622065009E1050E055CBA
:101A7E00D8A044EF0DF046EF0DF048EF0DF0000E3C
:101A8E00076E07C001F0026A1200000E116E000E02
:101A9E00106E5DEF0DF00FC002F0036A0DC004F082
:101AAE000EC005F039EC0CF0104A112A10500B2420
:101ABE00D96E11500C20DA6EDF500F6E0F50D8A475
:101ACE006BEF0DF06DEF0DF052EF0DF01200D00E2A
:101ADE00036EFF0E046E01C005F002C006F0035047
:101AEE0005260450062206500AE10A0E055CD8A00F
:101AFE0083EF0DF086EF0DF0010E87EF0DF0000E67
:101B0E00016E026A120001C003F002C004F092EFEF
:101B1E000DF0014A022A01C0D9FF02C0DAFFDF50E0
:101B2E00D8A49CEF0DF09EEF0DF090EF0DF003504A
:101B3E00015C016E04500258026E1200970E5B6E2D
:101B4E00000E5C6E000E536E000E546E95C055F076
:101B5E0096C056F05B0E576E000E586EC2EC0CF02F
:101B6E00120001500302F3CF05F0F4CF06F001503E
:101B7E000402F350062602500302F350062605C057
:101B8E0001F006C002F01200016E01C0C9FFC7B01D
:101B9E00D3EF0DF0D5EF0DF0CEEF0DF0C7B4DAEFB9
:101BAE000DF0DCEF0DF0D5EF0DF0120000EE60F051
:101BBE00350EEE6AE806FDE15F6A000EF86E000172
:101BCE001EEF09F0016E01C0ADFFACA2F1EF0DF0FA
:101BDE00F3EF0DF0ECEF0DF01200030E9312C78E23
:101BEE00C68AC650F00B0809C66E130EC86E1200D8
:101BFE00C584C5B405EF0EF007EF0EF000EF0EF042
:101C0E001200C582C5B20EEF0EF010EF0EF009EF06
:101C1E000EF01200C580C5B017EF0EF019EF0EF0E2
:101C2E0012EF0EF0120011EC0EF0D00ECBEC0DF008
:081C3E001200700ED312120017
:020000040020DA
:08000000FFFFFFFFFFFFFFFF00
:020000040030CA
:0E000000000A1F1EFF8385FF0FC00FE00F4098
:00000001FF
