:04000000FEEFFFF020
:020000040001F9
:10FFAE000001E0EFFFF0600E0001AD6F080EB16FC3
:10FFBE001200DAECFFF0CB960401289729972C97C4
:10FFCE002A972B87C788089909890C990A990B8952
:10FFDE00CFB8F4EFFFF0F6EFFFF0F9EFFFF0C386C6
:10FFEE00EFEFFFF0C396EFEFFFF0FEEFFFF0D7EF6E
:02FFFE00FFF012
:020000040020DA
:10000000FF0FFF0FFF0FFF0FFF0FFF0FFF0FFF0F80
:10001000FF0FFF0FFF0FFF0FFF0FFF0FFF0FFF0F70
:020000040030CA
:0A0000008CDDFFFF9FFFDFFFFFFF15
:00000001FF
