:04000000FEEFFFF020
:020000040001F9
:10FFA8000001EBEFFFF0600E0001AD6F080EB16FBE
:10FFB8001200CB960401289729972C972A972B870C
:10FFC800C788089909890C990A990B891200D7ECF6
:10FFD800FFF0DDECFFF0CFB8F4EFFFF0F6EFFFF045
:10FFE800F9EFFFF0C386EFEFFFF0C396EFEFFFF0F6
:08FFF800FEEFFFF0D4EFFFF073
:020000040020DA
:10000000FF0FFF0FFF0FFF0FFF0FFF0FFF0FFF0F80
:10001000FF0FFF0FFF0FFF0FFF0FFF0FFF0FFF0F70
:020000040030CA
:0A0000008CDDFFFF9FFFDFFFFFFF15
:00000001FF
