:040000007DEF02F09E
:1004000070017001700170013E0170013E017001C8
:100410007001700170017001700170017001700154
:1004200070013E013E013E017001700170017001DA
:10043000700170017001700170017001700169013B
:1004400070017001700170013E013E017001700188
:100450007001700170013E01700170017001700146
:100460007001700170017001700170017001700104
:1004700070017001700170013E0170017001700126
:1004800070017001700170017001700170017001E4
:1004900070017001700170013E0170013E013E016A
:1004A00070017001700170017001700170017001C4
:1004B00070017001700170017001700170017001B4
:1004C00070017001700170017001700170017001A4
:1004D0007001700170017001700170017001700194
:1004E0003E017001700170013E013E013E013E017E
:1004F0007001700170017001FF00C7EF02F0036E20
:1005000095EF02F003011A9F1A891A51F00B0109A5
:100510001A6F1B511F0B40091B6F1B99F00E1B1705
:10052000186919691A8FAAEF02F00350016E026A66
:100530000250000AD8B49FEF02F0AAEF02F0015077
:10054000000AD8B4AAEF02F0010AD8B482EF02F090
:10055000AAEF02F01200D68ED68CD68AA18EB19E5A
:100560000301658FD69E000E04015F6F040E5E6F5F
:10057000000E5D6FD68E1200D9EC02F0ABEC02F0EB
:10058000010E7FEC02F0C3EF02F07DEF02F00401F8
:10059000000E5D6F040E5E6F000E5F6F0001BCEF1A
:0205A00002F067
:1005A400100EBF1A030118691969B19E1100600E7B
:0A05B4000001AD6F000EB16F1200E0
:0205C000110028
:020000040020DA
:10000000FF0FFF0FFF0FFF0FFF0FFF0FFF0FFF0F80
:10001000FF0FFF0FFF0FFF0FFF0FFF0FFF0FFF0F70
:020000040030CA
:0A000000ECDDFFFF9FFFFFFFFFFF95
:00000001FF
