:040000000EEF00F00F
:04000800D7EF38F006
:08001800ADEF32F08DEF40F076
:1026000000494E46494E49545900696E66696E69E3
:10261000747900252E32660A0D00494E46004E415F
:102620004E00696E66006E616E006C6600001C50A4
:102630001D10D8B41EEF13F020EF13F030EF13F09D
:10264000610070F4D9F4610074F4DAF4610068F4A4
:10265000DEF461006CF4DDF430EF13F01A4A1B2A4B
:10266000010E346E610068F4D9F461006CF4DAF4A0
:10267000200EDE18D8B43FEF13F042EF13F0010E36
:1026800043EF13F0000E396E3A6A39503A10D8A46D
:102690004CEF13F04EEF13F072EF13F0F70E1E6EC7
:1026A000FF0E1F6E610068F4D9F461006CF4DAF477
:1026B000DF50206E2050396E3A6A39C521F53AC58F
:1026C00022F51E5021261F502222225009E1050E1C
:1026D000215CD8A06EEF13F070EF13F072EF13F0DF
:1026E000000E346E34C524F5256A24502510D8A474
:1026F0007CEF13F07EEF13F02EEF13F0000E366E2A
:102700002D0E39183A10D8A488EF13F08AEF13F081
:1027100090EF13F0010E366E1A4A1B2A9CEF13F04D
:102720002B0E39183A10D8A498EF13F09AEF13F043
:102730009CEF13F08CEF13F0000E3F6EA1EF13F03F
:102740003F2A3F501A24D96E000E1B20DA6EDF504C
:10275000D8B4ADEF13F0AFEF13F0E5EF13F03F5047
:102760001A24D96E000E1B20DA6EDF501E6E0A0E80
:102770003F24F66EF76A260EF722F86A000EF8225A
:102780000800F5501E18D8B4C8EF13F0CAEF13F0C4
:10279000A0EF13F03F501A24D96E000E1B20DA6E02
:1027A000DF501E6E010E3F24F66EF76A260EF722EA
:1027B000F86A000EF8220800F5501E18D8B4E3EFAE
:1027C00013F0E5EF13F0A0EF13F0020E3F64EBEF10
:1027D00013F0EDEF13F01DEF14F0000E3B6E000E42
:1027E0003C6E800E3D6E7F0E3E6E1C501D10D8B4A8
:1027F000FCEF13F0FEEF13F0E2EF1BF0080E3F18B2
:10280000D8B405EF14F007EF14F009EF14F0030E3D
:102810003F6E3F501A241E6E000E1B201F6E61007B
:1028200070F4D9F4610074F4DAF4610078F4DEF441
:1028300061007CF4DDF4E2EF1BF0000E3F6E22EF4E
:1028400014F03F2A3F501A24D96E000E1B20DA6E76
:10285000DF50D8B42EEF14F030EF14F066EF14F020
:102860003F501A24D96E000E1B20DA6EDF501E6E08
:10287000260E3F24F66EF76A260EF722F86A000E3F
:10288000F8220800F5501E18D8B449EF14F04BEFA9
:1028900014F021EF14F03F501A24D96E000E1B20C3
:1028A000DA6EDF501E6E1E0E3F24F66EF76A260E9D
:1028B000F722F86A000EF8220800F5501E18D8B466
:1028C00064EF14F066EF14F021EF14F0030E3F18DC
:1028D000D8A46DEF14F06FEF14F0E3EF14F0190EBD
:1028E000016E260E026E76EC43F001C53BF502C583
:1028F0003CF503C53DF504C53EF51C501D10D8B48C
:1029000084EF14F086EF14F0E2EF1BF03F501A262C
:10291000000E1B22610068F4D9F461006CF4DAF453
:10292000280EDE18D8A497EF14F099EF14F0D5EF25
:1029300014F0000E3F6E9EEF14F03F2A3F501A2411
:10294000D96E000E1B20DA6EDF50D8B4AAEF14F057
:10295000ACEF14F0BBEF14F03F501A24D96E000E08
:102960001B20DA6E290EDE18D8A4B9EF14F0BBEFE5
:1029700014F09DEF14F03F501A24D96E000E1B2066
:10298000DA6E290EDE18D8A4C8EF14F0CAEF14F0DE
:10299000D5EF14F03F501E6E1F6A010E1E26000E6A
:1029A0001F221E501A261F501B22610070F4D9F4FA
:1029B000610074F4DAF4610068F4DEF461006CF430
:1029C000DDF4E2EF1BF0000E3A6E000E396E000EE1
:1029D0003B6E000E3C6E000E3D6E000E3E6E000E15
:1029E000386E000E376E000E3F6EF8EF14F03F2A7F
:1029F0003F501A24D96E000E1B20DA6E300EDE18FE
:102A0000D8B405EF15F007EF15F0F7EF14F03F50CD
:102A1000D8B40DEF15F00FEF15F0AAEF18F03F50F6
:102A20001A24D96E000E1B20DA6E780EDE18D8B488
:102A30001CEF15F01EEF15F02DEF15F03F501A2486
:102A4000D96E000E1B20DA6E580EDE18D8A42BEFBC
:102A500015F02DEF15F0AAEF18F03F501E6E1F6A0B
:102A6000010E1E26000E1F221E501A261F501B226A
:102A7000000E3F6E3DEF15F03F2A3F501A24D96EED
:102A8000000E1B20DA6E300EDE18D8B44AEF15F0B7
:102A90004CEF15F03CEF15F0000E3F6E3F501A243E
:102AA000D96E000E1B20DA6E700EDE18D8B45BEF04
:102AB00015F05DEF15F0E9EF16F03F501A24D96ECE
:102AC000000E1B20DA6E500EDE18D8A46AEF15F047
:102AD0006CEF15F06EEF15F0E9EF16F03F501A2489
:102AE000D96E000E1B20DA6E2E0EDE18D8A47BEFF6
:102AF00015F07DEF15F081EF15F036883F2AE9EFEC
:102B000016F03F501A24D96E000E1B20DA6EDF50EB
:102B10001E6E1E50016E026AFBEC3EF00150021068
:102B2000D8B495EF15F097EF15F012EF16F0000EF0
:102B3000356ED00E1E6EFF0E1F6E3F501A24D96EDA
:102B4000000E1B20DA6EDF50206E216A1E502026F8
:102B50001F50212221500AE10A0E205CD8A0B3EFB9
:102B600015F0B6EF15F0010EB7EF15F0000E266E5A
:102B7000276A26502710D8B4C0EF15F0C2EF15F021
:102B8000CDEF15F03F501A24D96E000E1B20DA6EDF
:102B9000DF50D00F356EDDEF15F03F501A24D96E9F
:102BA000000E1B20DA6EDF501E6E1E50076E086A84
:102BB00031EC40F00750C90F356E3ABEEBEF15F01F
:102BC0003A5007E1080E395CD8B0E9EF15F0EBEFA9
:102BD00015F00AEF16F0395007081E6ED8901E3611
:102BE000D8901E3635C51FF5206A216A226A1E2A32
:102BF000FFEF15F0D8901F362036213622361E2ED4
:102C0000FAEF15F01F503B1220503C1221503D129C
:102C100022503E12394A3A2A040E3726000E382234
:102C20001CEF16F0000E1A6E000E1B6E000E1C6ECE
:102C3000000E1D6E03EF1CF03F2A4EEF15F03F50C3
:102C40001A24D96E000E1B20DA6E700EDE18D8B46E
:102C50002CEF16F02EEF16F0F0EF16F03F501A247E
:102C6000D96E000E1B20DA6E500EDE18D8A43BEF92
:102C700016F03DEF16F03FEF16F0F0EF16F03F5074
:102C80001A24D96E000E1B20DA6E300EDE18D8A47E
:102C90004CEF16F04EEF16F05DEF16F039503A108B
:102CA000D8A455EF16F057EF16F05DEF16F0FC0EB6
:102CB0003726FF0E3822E8EF16F03F501A24D96E5F
:102CC000000E1B20DA6EDF501E6E1E50016E026A6F
:102CD000FBEC3EF001500210D8B471EF16F073EF28
:102CE00016F0E8EF16F0000E356ED00E1E6EFF0ED9
:102CF0001F6E3F501A24D96E000E1B20DA6EDF5073
:102D0000206E216A1E5020261F50212221500AE1E8
:102D10000A0E205CD8A08FEF16F092EF16F0010E8D
:102D200093EF16F0000E286E296A28502910D8B4A7
:102D30009CEF16F09EEF16F0A9EF16F03F501A2404
:102D4000D96E000E1B20DA6EDF50D00F356EB9EF52
:102D500016F03F501A24D96E000E1B20DA6EDF5099
:102D60001E6E1E50076E086A31EC40F00750C90F06
:102D7000356E3ABEC7EF16F03A5007E1080E395CDF
:102D8000D8B0C5EF16F0C7EF16F0E6EF16F03950E1
:102D900007081E6ED8901E36D8901E3635C51FF512
:102DA000206A216A226A1E2ADBEF16F0D8901F36AD
:102DB0002036213622361E2ED6EF16F01F503B123B
:102DC00020503C1221503D1222503E12394A3A2ADC
:102DD0003F2A36B8EEEF16F0F0EF16F01FEF16F0C0
:102DE0003F501A24D96E000E1B20DA6E700EDE18CA
:102DF000D8B4FDEF16F0FFEF16F018EF17F03F50C4
:102E00001A24D96E000E1B20DA6E500EDE18D8B4CC
:102E10000CEF17F00EEF17F018EF17F0000E1A6E08
:102E2000000E1B6E000E1C6E000E1D6E03EF1CF0DC
:102E30003F2A3F501A24D96E000E1B20DA6E2B0E4B
:102E4000DE18D8A426EF17F028EF17F02BEF17F0B5
:102E50003F2A3CEF17F03F501A24D96E000E1B207A
:102E6000DA6E2D0EDE18D8A438EF17F03AEF17F00F
:102E70003CEF17F036863F2A3F501A26000E1B22E1
:102E8000000E3F6E45EF17F03F2A3F501A24D96ECF
:102E9000000E1B20DA6E300EDE18D8B452EF17F099
:102EA00054EF17F044EF17F0000E3A6E000E396E33
:102EB00086EF17F03F50D8B460EF17F062EF17F0CD
:102EC00070EF17F039C501F53AC502F5000E046E32
:102ED0000A0E036E29EC43F001C539F502C53AF537
:102EE000D00E1E6EFF0E1F6E3F501A24D96E000EBC
:102EF0001B20DA6EDF50206E216A1E5020261F50E4
:102F000021222050392621503A223F2AD00E1E6E0F
:102F1000FF0E1F6E3F501A24D96E000E1B20DA6E72
:102F2000DF50206E216A1E5020261F502122215082
:102F30000AE10A0E205CD8A0A0EF17F0A3EF17F06B
:102F4000010EA4EF17F0000E2A6E2B6A2A502B10E8
:102F5000D8A4ADEF17F0AFEF17F05AEF17F03F50CE
:102F6000D8A4B5EF17F0B7EF17F0C1EF17F0000EC8
:102F70001A6E000E1B6E000E1C6E000E1D6E03EF0F
:102F80001CF036A6C6EF17F0C8EF17F0CCEF17F01D
:102F9000396C3A1ED8B03A2A395037263A5038227E
:102FA0001C501D10D8B4D7EF17F0D9EF17F0EBEF86
:102FB00017F03F501A241E6E000E1B201F6E61007A
:102FC00070F4D9F4610074F4DAF4610078F4DEF49A
:102FD00061007CF4DDF43B503C103D103E10D8A461
:102FE000F4EF17F0F6EF17F000EF18F0000E1A6E7E
:102FF000000E1B6E000E1C6E000E1D6E03EF1CF00B
:10300000FF0E3B141E6E000E3C141F6E000E3D148E
:10301000206E000E3E14216E215020101F1009E179
:10302000810E1E5CD8A017EF18F019EF18F02BEFE7
:1030300018F0000E3B26010E3C22000E3D22000E31
:103040003E222BEF18F0D8903B363C363D363E36CC
:103050003706D8A038063EAE30EF18F032EF18F041
:1030600023EF18F038AE3EEF18F0830E375CFF0EFA
:103070003858D8B03EEF18F040EF18F04CEF18F089
:10308000FF0E386E810E376E000E3B6E000E3C6EEA
:10309000000E3D6E000E3E6E810E371808E1382896
:1030A000D8B455EF18F057EF18F05FEF18F0D8903C
:1030B0003B363C363D363E363706D8A0380638BE5D
:1030C0006BEF18F0385009E1800E375CD8A06BEF39
:1030D00018F06DEF18F079EF18F0000E3B6E000E4F
:1030E0003C6E000E3D6E000E3E6E000E386E800E81
:1030F000376E090E1E6ED8903E323D323C323B3266
:103100001E2E7BEF18F0FF0E3B16FF0E3C167F0EB7
:103110003D16000E3E167F0E37241E6E000E382020
:103120001F6EFF0E1E14206E216A226A236A170E7C
:10313000D8902036213622362336E82E98EF18F024
:1031400020503B1221503C1222503D1223503E127F
:10315000E2EF1BF036B8AFEF18F0B1EF18F0C5EFA3
:1031600018F0610068F4D9F461006CF4DAF42E0E02
:10317000DE18D8A4BEEF18F0C0EF18F0C5EF18F0B5
:1031800036881A4A1B2AAAEF18F0D00E1E6EFF0EC0
:103190001F6E610068F4D9F461006CF4DAF4DF505A
:1031A000206E216A1E5020261F50212221500AE144
:1031B0000A0E205CD8A0DFEF18F0E2EF18F0010E45
:1031C000E3EF18F0000E2C6E2D6A2C502D10D8A4B1
:1031D000ECEF18F0EEEF18F0F0EF18F040EF19F008
:1031E0003682090E39183A10D8B4F9EF18F0FBEF0F
:1031F00018F033EF19F036A800EF19F002EF19F0CC
:1032000005EF19F03706D8A03806394A3A2A3BC5E7
:1032100001F53CC502F53DC503F53EC504F50A0EB2
:10322000056E000E066E000E076E000E086E68EC4E
:103230003FF001C53BF502C53CF503C53DF504C5AE
:103240003EF5610068F4D9F461006CF4DAF4DF5003
:103250001E6ED00E1E261E503B26000E3C223D2226
:103260003E223CEF19F036B838EF19F03AEF19F07A
:103270003CEF19F0374A382A1A4A1B2AAAEF18F0ED
:10328000000E3A6E000E396E610068F4D9F46100E8
:103290006CF4DAF4650EDE18D8B451EF19F053EF80
:1032A00019F062EF19F0610068F4D9F461006CF470
:1032B000DAF4450EDE18D8A460EF19F062EF19F0C9
:1032C00063EF1AF01A4A1B2A610068F4D9F461000E
:1032D0006CF4DAF42D0EDE18D8A471EF19F073EF48
:1032E00019F078EF19F036861A4A1B2A89EF19F07F
:1032F000610068F4D9F461006CF4DAF42B0EDE1886
:10330000D8A485EF19F087EF19F089EF19F01A4A60
:103310001B2A610068F4D9F461006CF4DAF4300E11
:10332000DE18D8B496EF19F098EF19F087EF19F07E
:10333000D00E1E6EFF0E1F6E610068F4D9F461009E
:103340006CF4DAF4DF50206E216A1E5020261F50E4
:10335000212221500AE10A0E205CD8A0B2EF19F018
:10336000B5EF19F0010EB6EF19F0000E2E6E2F6AB0
:103370002E502F10D8B4BFEF19F0C1EF19F058EF4D
:103380001AF0610068F4D9F461006CF4DAF4DF50EB
:103390001E6ED00E1E261E50396E3A6A1A4A1B2A1D
:1033A000D00E1E6EFF0E1F6E610068F4D9F461002E
:1033B0006CF4DAF4DF50206E216A1E5020261F5074
:1033C000212221500AE10A0E205CD8A0EAEF19F070
:1033D000EDEF19F0010EEEEF19F0000E306E316ACC
:1033E00030503110D8B4F7EF19F0F9EF19F058EF69
:1033F0001AF0610068F4D9F461006CF4DAF4DF507B
:103400001E6ED00E1E2639C501F53AC502F5000E16
:10341000046E0A0E036E29EC43F01E500124396E2F
:10342000000E02203A6E1A4A1B2AD00E1E6EFF0EA4
:103430001F6E610068F4D9F461006CF4DAF4DF50B7
:10344000206E216A1E5020261F50212221500AE1A1
:103450000A0E205CD8A02FEF1AF032EF1AF0010EFE
:1034600033EF1AF0000E326E336A32503310D8B494
:103470003CEF1AF03EEF1AF058EF1AF0610068F4D2
:10348000D9F461006CF4DAF4DF501E6ED00E1E2603
:1034900039C501F53AC502F5000E046E0A0E036E39
:1034A00029EC43F01E500124396E000E02203A6EC2
:1034B00036A65DEF1AF05FEF1AF063EF1AF0396C81
:1034C0003A1ED8B03A2A395037263A5038221C5082
:1034D0001D10D8B46EEF1AF070EF1AF083EF1AF0E7
:1034E00036A275EF1AF077EF1AF083EF1AF0610049
:1034F00070F4D9F4610074F4DAF4610068F4DEF475
:1035000061006CF4DDF43BC501F53CC502F53DC539
:1035100003F53EC504F5000EB1EC36F001C53BF5F0
:1035200002C53CF503C53DF504C53EF53BC501F5B7
:103530003CC502F53DC503F53EC504F5000E056E1C
:10354000000E066E000E076E000E086E5EEC3EF07A
:10355000D8A0ADEF1AF0AFEF1AF0B9EF1AF0000EE5
:103560001A6E000E1B6E000E1C6E000E1D6E03EF19
:103570001CF038BEC0EF1AF0BEEF1AF04EEF1BF091
:10358000376C381ED8B0382AE4EF1AF03BC501F585
:103590003CC502F53DC503F53EC504F5F90E056EC3
:1035A000020E066E150E076E500E086EE0EC30F03F
:1035B00001C53BF502C53CF503C53DF504C53EF527
:1035C000F60E3726FF0E382238BEF2EF1AF03850CA
:1035D00007E10A0E375CD8B0F0EF1AF0F2EF1AF0FC
:1035E000C6EF1AF011EF1BF03BC501F53CC502F523
:1035F0003DC503F53EC504F5000E056E000E066ED2
:10360000200E076E410E086EE0EC30F001C53BF570
:1036100002C53CF503C53DF504C53EF53706D8A007
:10362000380637503810D8A418EF1BF01AEF1BF0EB
:10363000F4EF1AF03BC501F53CC502F53DC503F5B5
:103640003EC504F5000E056E000E066E800E076E78
:10365000000E086EDEEC39F0D8B031EF1BF033EF1E
:103660001BF0E2EF1BF036A038EF1BF03AEF1BF037
:1036700044EF1BF0000E1A6E000E1B6E800E1C6EC7
:10368000800E1D6E03EF1CF0000E1A6E000E1B6EF6
:10369000800E1C6E000E1D6E03EF1CF038BE59EF3D
:1036A0001BF0385008E13704D8A059EF1BF05BEF4E
:1036B0001BF0E2EF1BF07BEF1BF03BC501F53CC5B7
:1036C00002F53DC503F53EC504F5F90E056E020E83
:1036D000066E150E076E500E086EEBEC2CF001C551
:1036E0003BF502C53CF503C53DF504C53EF5F60EB8
:1036F0003726FF0E3822385007E10A0E375CD8B063
:1037000084EF1BF086EF1BF05DEF1BF0A5EF1BF0C5
:103710003BC501F53CC502F53DC503F53EC504F5C5
:10372000000E056E000E066E200E076E410E086E2E
:10373000EBEC2CF001C53BF502C53CF503C53DF5AE
:1037400004C53EF53706D8A0380637503810D8A43F
:10375000ACEF1BF0AEEF1BF088EF1BF0FF0E016E1D
:10376000FF0E026E7F0E036E7F0E046E3BC505F5E5
:103770003CC506F53DC507F53EC508F5DEEC39F05C
:10378000D8B0C5EF1BF0C7EF1BF0E2EF1BF036A07F
:10379000CCEF1BF0CEEF1BF0D8EF1BF0000E1A6E33
:1037A000000E1B6E800E1C6E800E1D6E03EF1CF053
:1037B000000E1A6E000E1B6E800E1C6E000E1D6E2B
:1037C00003EF1CF036A0E7EF1BF0E9EF1BF0FBEF77
:1037D0001BF03BC501F53CC502F53DC503F53EC5F3
:1037E00004F5ABEC42F001C53BF502C53CF503C561
:1037F0003DF504C53EF53BC51AF53CC51BF53DC579
:103800001CF53EC51DF51200000E0601996F000E55
:10381000986FC4C5A8F6C5C5A9F6C6C5AAF6C7C59A
:10382000ABF6ABBF18EF1CF016EF1CF02EEF1CF040
:10383000000E996F010E986FA8C691F5A9C692F572
:10384000AAC693F5ABC694F572EC42F091C5A8F602
:1038500092C5A9F693C5AAF694C5ABF6000E06016B
:10386000B16F000EB06F1EC69DF61FC69EF6985132
:103870009911D8A43EEF1CF040EF1CF047EF1CF06C
:1038800022A545EF1CF047EF1CF061EF1CF09851AA
:103890009911D8A44EEF1CF050EF1CF056EF1CF01D
:1038A000000E7F6F2B0E7E6F5AEF1CF0000E7F6FA5
:1038B0002D0E7E6F7EC62AF6B04BB12B9D07D8A089
:1038C0009E07A8C660F5A9C661F5AAC662F5ABC693
:1038D00063F560EC3AF0050160056111D8A473EF5F
:1038E0001CF075EF1CF0D3EF1CF0BF0EC96FFF0E7C
:1038F000CA6FC851CB6FCC6BC951CB27CA51CC23EF
:10390000CC510AE11A0ECB5DD8A089EF1CF08CEFE8
:103910001CF0010E8DEF1CF0000E0601806F816B14
:1039200080518111D8B497EF1CF099EF1CF0AAEFE9
:103930001CF02A0EB0250501606F060E0601B121AC
:103940000501616F1A0E626F260E636F9DEC3FF0EA
:10395000B9EF1CF02A0EB0250501606F060E0601B6
:10396000B1210501616F220E626F260E636F9DEC1F
:103970003FF00601FD0E9D27FF0E9E23C2C570F588
:10398000C3C571F52A0E0501726F060E736F9DC6D1
:1039900074F59EC675F5CBEC3BF070C5C2F571C5EC
:1039A000C3F567EF22F0A8C660F5A9C661F5AAC6FF
:1039B00062F5ABC663F560EC3AF005016051611148
:1039C000D8A4E5EF1CF0E7EF1CF02DEF1DF0BF0EC3
:1039D000C96FFF0ECA6FC851CB6FCC6BC951CB27D3
:1039E000CA51CC23CC510AE11A0ECB5DD8A0FBEF13
:1039F0001CF0FEEF1CF0010EFFEF1CF0000E0601A4
:103A0000826F836B82518311D8B409EF1DF00BEFE5
:103A10001DF01CEF1DF02A0EB0250501606F060E8B
:103A20000601B1210501616F1E0E626F260E636FE4
:103A30009DEC3FF0B9EF1CF02A0EB0250501606F38
:103A4000060E0601B1210501616F260E626F260E7A
:103A5000636F9DEC3FF0B9EF1CF0000E0601B26FF2
:103A6000000EB36F800EB46F3F0EB56F000EAF6FD8
:103A7000000EAE6FA8C660F5A9C661F5AAC662F5CC
:103A8000ABC663F5000E0501646F000E656F000E96
:103A9000666F000E676F08EC3EF00501D8B053EF7B
:103AA0001DF055EF1DF0DBEF1DF074EF1DF0B2C6F9
:103AB00070F5B3C671F5B4C672F5B5C673F5000EF0
:103AC000746F000E756F200E766F410E776FC3EC2A
:103AD0002AF070C5B2F671C5B3F672C5B4F673C5F7
:103AE000B5F60601AE4BAF2BA8C689F5A9C68AF577
:103AF000AAC68BF5ABC68CF5000E0501746F000EDF
:103B0000756F200E766F410E776FB2C670F5B3C633
:103B100071F5B4C672F5B5C673F5C3EC2AF070C57D
:103B20008DF571C58EF572C58FF573C590F55BEC9B
:103B300039F00501D8B09FEF1DF0A1EF1DF057EF50
:103B40001DF0C1EF1DF0B2C695F5B3C696F5B4C62B
:103B500097F5B5C698F5000E996F000E9A6F200E76
:103B60009B6F410E9C6F12EC2FF095C5B2F696C577
:103B7000B3F697C5B4F698C5B5F60601AE07D8A05A
:103B8000AF07A8C689F5A9C68AF5AAC68BF5ABC644
:103B90008CF5B2C68DF5B3C68EF5B4C68FF5B5C635
:103BA00090F55BEC39F00501D8A0D9EF1DF0DBEF03
:103BB0001DF0A3EF1DF0C8C566F5676BD1EC3FF0B3
:103BC0000501665106019F6F9FC69CF6670E9F19FF
:103BD000D8A4EDEF1DF0EFEF1DF015EF1EF0205112
:103BE0002111D8A4F6EF1DF0F8EF1DF0FCEF1DF049
:103BF000000E216F010E206F21BF09EF1EF0215131
:103C000006E12005D8B007EF1EF009EF1EF00FEF18
:103C10001EF0000E9B6F060E9A6F1EEF1EF020C660
:103C20009AF621C69BF61EEF1EF021BF1AEF1EF07A
:103C30001CEF1EF009EF1EF00FEF1EF0670E9F192C
:103C4000D8A425EF1EF027EF1EF05DEF1EF0AFAFFA
:103C500035EF1EF0FC0EAE5DFF0EAF59D8A033EF6E
:103C60001EF035EF1EF05AEF1EF0FF0E0501C96F72
:103C7000FF0ECA6F9AC6CBF59BC6CCF5C951CB27B0
:103C8000CA51CC230601AE510501CB5DCC51800A4F
:103C9000CD6F0601AF51800A0501CD59D8A053EF71
:103CA0001EF055EF1EF05AEF1EF0660E06019C6FD7
:103CB0005DEF1EF0650E06019C6F9AC690F69BC6DE
:103CC00091F6670E9F19D8A468EF1EF06AEF1EF0F8
:103CD0007AEF1EF0660E9C19D8A471EF1EF073EFF8
:103CE0001EF07CEF1EF0AFBF7AEF1EF078EF1EF0F3
:103CF0007CEF1EF0904B912B660E9C19D8A483EF9D
:103D00001EF085EF1EF0A5EF1EF0AFBF8CEF1EF08A
:103D10008AEF1EF098EF1EF0000EB26F000EB36F28
:103D2000800EB46F3F0EB56F000EAF6F000EAE6F1A
:103D3000670E9F19D8B49FEF1EF0A1EF1EF0A5EFFC
:103D40001EF0AE519027AF519123000EAD6F000EC3
:103D5000AC6FA8C6A0F6A9C6A1F6AAC6A2F6ABC6C5
:103D6000A3F6B2C692F6B3C693F6B4C694F6B5C639
:103D700095F637EF1FF0A0C695F5A1C696F5A2C639
:103D800097F5A3C698F5B2C699F5B3C69AF5B4C629
:103D90009BF5B5C69CF512EC2FF095C5AEF596C512
:103DA000AFF597C5B0F598C5B1F5ECEC33F0AEC5FD
:103DB000A4F6AFC5A5F6B0C5A6F6B1C5A7F6A4C6CC
:103DC00060F5A5C661F5A6C662F5A7C663F553EC16
:103DD00038F060C596F661C597F6A0C689F5A1C60C
:103DE0008AF5A2C68BF5A3C68CF5B2C674F5B3C628
:103DF00075F5B4C676F5B5C677F5A4C670F5A5C653
:103E000071F5A6C672F5A7C673F5C3EC2AF070C5A6
:103E10008DF571C58EF572C58FF573C590F556ECAD
:103E200041F089C5A0F68AC5A1F68BC5A2F68CC55E
:103E3000A3F6B2C695F5B3C696F5B4C697F5B5C662
:103E400098F5000E0501996F000E9A6F200E9B6F7A
:103E5000410E9C6F12EC2FF095C5B2F696C5B3F6E5
:103E600097C5B4F698C5B5F60601AC4BAD2B90518D
:103E7000AC5DAD51800A0501C96F06019151800A00
:103E80000501C959D8A047EF1FF049EF1FF0BBEF5C
:103E90001EF0B2C670F5B3C671F5B4C672F5B5C6FC
:103EA00073F5000E746F000E756FA00E766F400EE6
:103EB000776FC3EC2AF070C5A4F671C5A5F672C57C
:103EC000A6F673C5A7F6A0C689F5A1C68AF5A2C64F
:103ED0008BF5A3C68CF5A4C68DF5A5C68EF5A6C632
:103EE0008FF5A7C690F55BEC39F00501D8B07BEFF4
:103EF0001FF07DEF1FF088EF1FF0000E0601A46F8A
:103F0000000EA56F000EA66F000EA76FB2EF1FF098
:103F1000A0C660F5A1C661F5A2C662F5A3C663F5A9
:103F2000A4C664F5A5C665F5A6C666F5A7C667F579
:103F300008EC3EF00501D8A0A0EF1FF0A2EF1FF0A3
:103F4000B2EF1FF0060196B1A8EF1FF0AAEF1FF025
:103F5000B2EF1FF0000EA46F000EA56F000EA66F4B
:103F6000000EA76FA8C660F5A9C661F5AAC662F5DE
:103F7000ABC663F5A4C664F5A5C665F5A6C666F529
:103F8000A7C667F562EC28F060C5A0F661C5A1F68A
:103F900062C5A2F663C5A3F6A0C689F5A1C68AF5D7
:103FA000A2C68BF5A3C68CF5000E0501746F000E3A
:103FB000756F200E766F410E776F92C670F593C6BF
:103FC00071F594C672F595C673F5C3EC2AF070C509
:103FD0008DF571C58EF572C58FF573C590F55BECE7
:103FE00039F00501D8A0F7EF1FF0F9EF1FF023EF2C
:103FF00020F00601AE4BAF2B92C670F593C671F55B
:1040000094C672F595C673F5000E0501746F000E27
:10401000756F200E766F410E776FC3EC2AF070C576
:1040200092F671C593F672C594F673C595F6660E51
:1040300006019C19D8A41FEF20F021EF20F023EFF8
:1040400020F0904B912B92C6B2F693C6B3F694C66D
:10405000B4F695C6B5F6650E06019C19D8B433EFD3
:1040600020F035EF20F03BEF20F0AEC68EF6AFC665
:104070008FF63FEF20F0000E8F6F000E8E6F000E58
:104080008D6F000E8C6F000E8B6F000E8A6F000E0E
:10409000AD6F000EAC6F3BEF21F0A0C695F5A1C649
:1040A00096F5A2C697F5A3C698F5B2C699F5B3C61C
:1040B0009AF5B4C69BF5B5C69CF512EC2FF095C5E4
:1040C000AEF596C5AFF597C5B0F598C5B1F5ECEC72
:1040D00033F0AEC5A4F6AFC5A5F6B0C5A6F6B1C51A
:1040E000A7F6A4C660F5A5C661F5A6C662F5A7C683
:1040F00063F553EC38F060C596F661C597F6060196
:1041000022B985EF20F087EF20F0A4EF20F0965140
:104110009711D8A48EEF20F090EF20F0A4EF20F0BC
:10412000670E9F19D8A497EF20F099EF20F0A4EF25
:1041300020F08FBFA0EF20F09EEF20F0A4EF20F042
:104140008A4B8B2BEEEF20F08C518D11D8A4ABEF66
:1041500020F0ADEF20F0D7EF20F08FBFB4EF20F0CC
:10416000B2EF20F0D7EF20F02A0EB025D96E060E60
:10417000B121DA6E2E0EDF6EB04BB12B9D07D8A0A9
:104180009E07000E8D6F010E8C6FD7EF20F02A0E68
:10419000B025D96E060EB121DA6E300EDF6EB04B4F
:1041A000B12B9D07D8A09E078A07D8A08B078A51FC
:1041B0008B11D8A4DEEF20F0E0EF20F0C7EF20F065
:1041C0002A0EB025D96E060EB121DA6E9651300F47
:1041D000DF6EB04BB12B9D07D8A09E07A0C689F516
:1041E000A1C68AF5A2C68BF5A3C68CF5B2C674F536
:1041F000B3C675F5B4C676F5B5C677F5A4C670F541
:10420000A5C671F5A6C672F5A7C673F5C3EC2AF06C
:1042100070C58DF571C58EF572C58FF573C590F5B6
:1042200056EC41F089C5A0F68AC5A1F68BC5A2F669
:104230008CC5A3F6B2C695F5B3C696F5B4C697F588
:10424000B5C698F5000E0501996F000E9A6F200E05
:104250009B6F410E9C6F12EC2FF095C5B2F696C580
:10426000B3F697C5B4F698C5B5F606018E07D8A083
:104270008F07AC4BAD2B9051AC5DAD51800A050161
:10428000C96F06019151800A0501C959D8B04BEF99
:1042900021F04DEF21F05CEF21F00601B1BF5AEFA4
:1042A00021F0B15109E14B0EB05DD8A05AEF21F0D9
:1042B0005CEF21F04DEF20F006018C518D11D8A458
:1042C00064EF21F066EF21F077EF21F022A96BEF88
:1042D00021F06DEF21F077EF21F02A0EB025D96E95
:1042E000060EB121DA6E2E0EDF6EB04BB12B2A0E08
:1042F000B025D96E060EB121DA6E000EDF6E650EA6
:104300009C19D8A486EF21F088EF21F0BEEF1CF0B5
:10431000000EAD6F4F0EAC6F2A0EAC25D96E060E97
:10432000AD21DA6E000EDF6E000E996F000E986FF1
:10433000AFBF9FEF21F09DEF21F0A7EF21F0000E1E
:10434000996F010E986FAE6DAF1FD8B0AF2B000EF6
:104350009B6F020E9A6FDAEF21F0AC07D8A0AD0781
:104360002A0EAC25D96E060EAD21DA6EAEC660F50A
:10437000AFC661F5000E0501636F0A0E626F57EC60
:104380003DF005016051300FDF6EAEC660F5AFC67F
:1043900061F5000E636F0A0E626F95EC3CF060C52C
:1043A000AEF661C5AFF606019A07D8A09B079D0738
:1043B000D8A09E07AE51AF11D8A4E1EF21F0E3EFF2
:1043C00021F0ADEF21F09BBFF0EF21F09B5106E112
:1043D0009A05D8B0EEEF21F0F0EF21F0ADEF21F02B
:1043E000AC07D8A0AD0798519911D8A4FAEF21F0E5
:1043F000FCEF21F002EF22F0000E856F2B0E846F90
:1044000006EF22F0000E856F2D0E846F2A0EAC256C
:10441000D96E060EAD21DA6E610010FADFF49D0749
:10442000D8A09E07AC07D8A0AD07BF0E0501C96F85
:10443000FF0ECA6FC851CB6FCC6BC951CB27CA5185
:10444000CC23CC510AE11A0ECB5DD8A02AEF22F082
:104450002DEF22F0010E2EEF22F0000E0601886FE4
:10446000896B88518911D8A438EF22F03AEF22F0F5
:1044700040EF22F0000E876F650E866F44EF22F04A
:10448000000E876F450E866F2A0EAC25D96E060E7C
:10449000AD21DA6E610018FADFF49D07D8A09E07FF
:1044A0002A0EB0250501606F060E0601B121050137
:1044B000616F2A0E0601AC250501626F060E06012A
:1044C000AD210501636F9DEC3FF0BEEF1CF01200C3
:1044D000B0C589F5B1C58AF5B2C58BF5B3C58CF504
:1044E000B4C58DF5B5C58EF5B6C58FF5B7C590F5D4
:1044F00056EC41F089C5CCF58AC5CDF58BC5CEF516
:104500008CC5CFF56100B8F6D9F46100BCF6DAF4D9
:10451000610078F370F5610078F371F5610078F36C
:1045200072F5610078F373F5CCC574F5CDC575F5FA
:10453000CEC576F5CFC577F5C3EC2AF0050120EEA0
:1045400024F0AE51D926AF51DA226100C0F5DEF475
:104550006100C4F5DEF46100C8F5DEF46100CCF55D
:10456000DEF4000E746F000E756F000E766F3F0E56
:10457000776F20EE04F0AE51D926AF51DA226100F8
:1045800078F370F5610078F371F5610078F372F5F6
:10459000610078F373F5C3EC2AF070C5C4F571C5FA
:1045A000C5F572C5C6F573C5C7F5050120EE18F04F
:1045B000AE51D926AF51DA22610078F374F561006B
:1045C00078F375F5610078F376F5610078F377F5A7
:1045D000C4C570F5C5C571F5C6C572F5C7C573F517
:1045E000C3EC2AF070C5C8F571C5C9F572C5CAF526
:1045F00073C5CBF5C8C574F5C9C575F5CAC576F5DB
:10460000CBC577F5CCC564F5CDC565F5CEC566F5EA
:10461000CFC567F5050120EE28F0AE51D926AF5180
:10462000DA22610078F360F5610078F361F56100EA
:1046300078F362F5610078F363F562EC28F060C509
:1046400070F561C571F562C572F563C573F5C3ECAC
:104650002AF070C5B8F571C5B9F572C5BAF573C55C
:10466000BBF5B8C560F5B9C561F5BAC562F5BBC59E
:1046700063F5050120EE20F0AE51D926AF51DA22C4
:10468000610078F364F5610078F365F5610078F313
:1046900066F5610078F367F562EC28F0050120EE1D
:1046A00020F0AE51D926AF51DA22610080F5DEF458
:1046B000610084F5DEF4610088F5DEF461008CF5BC
:1046C000DEF420EE18F0AE51D926AF51DA226100A7
:1046D00078F38DF5610078F38EF5610078F38FF54E
:1046E000610078F390F5000E746F000E756F000E88
:1046F000766F400E776F20EE0CF0AE51D926AF5199
:10470000DA22610078F370F5610078F371F56100E9
:1047100078F372F5610078F373F5C3EC2AF070C595
:1047200089F571C58AF572C58BF573C58CF556ECA4
:1047300041F089C5C4F58AC5C5F58BC5C6F58CC5DC
:10474000C7F5000E0501746F000E756F000E766FD1
:10475000400E776F20EE08F0AE51D926AF51DA2225
:10476000610078F370F5610078F371F5610078F31A
:1047700072F5610078F373F5C3EC2AF070C5C8F5E3
:1047800071C5C9F572C5CAF573C5CBF5050120EE33
:104790002CF0AE51D926AF51DA22610078F38DF5B5
:1047A000610078F38EF5610078F38FF5610078F39E
:1047B00090F5B4C589F5B5C58AF5B6C58BF5B7C50D
:1047C0008CF556EC41F089C574F58AC575F58BC535
:1047D00076F58CC577F5C8C570F5C9C571F5CAC53C
:1047E00072F5CBC573F5C3EC2AF070C5BCF571C585
:1047F000BDF572C5BEF573C5BFF5050120EE1CF011
:10480000AE51D926AF51DA22610078F374F5610018
:1048100078F375F5610078F376F5610078F377F554
:10482000C4C570F5C5C571F5C6C572F5C7C573F5C4
:10483000C3EC2AF070C564F571C565F572C566F5FF
:1048400073C567F5BCC560F5BDC561F5BEC562F54C
:10485000BFC563F562EC28F060C591F561C592F5BE
:1048600062C593F563C594F572EC42F091C595F578
:1048700092C596F593C597F594C598F5050120EE78
:1048800018F0AE51D926AF51DA22610078F364F501
:10489000610078F365F5610078F366F5610078F3FF
:1048A00067F5000E746F000E756F000E766F400E88
:1048B000776F20EE0CF0AE51D926AF51DA226100AD
:1048C00078F370F5610078F371F5610078F372F5B3
:1048D000610078F373F5C3EC2AF070C560F571C51B
:1048E00061F572C562F573C563F562EC28F060C5C9
:1048F00099F561C59AF562C59BF563C59CF512EC07
:104900002FF0050120EE1CF0AE51D926AF51DA226E
:10491000610054F6DEF4610058F6DEF461005CF6E6
:10492000DEF4610060F6DEF420EE20F0AE51D92610
:10493000AF51DA22610078F364F5610078F365F530
:10494000610078F366F5610078F367F520EE24F0F6
:10495000AE51D926AF51DA22610078F360F56100DB
:1049600078F361F5610078F362F5610078F363F53F
:1049700062EC28F060C5C0F561C5C1F562C5C2F53D
:1049800063C5C3F5C0C560F5C1C561F5C2C562F5B3
:10499000C3C563F5050120EE1CF0AE51D926AF5119
:1049A000DA22610078F364F5610078F365F561005F
:1049B00078F366F5610078F367F562EC28F005019D
:1049C00020EE30F0AE51D926AF51DA22610080F5E9
:1049D000DEF4610084F5DEF4610088F5DEF4610048
:1049E0008CF5DEF420EE10F0AE51D926AF51DA226C
:1049F000610078F389F5610078F38AF5610078F356
:104A00008BF5610078F38CF520EE30F0AE51D926AD
:104A1000AF51DA22610078F38DF5610078F38EF5FD
:104A2000610078F38FF5610078F390F55BEC39F075
:104A30000501D8B01EEF25F020EF25F036EF25F068
:104A400020EE10F0AE51D926AF51DA2210EE30F040
:104A5000AE51E126AF51E222DEC4E6F4DEC4E6F454
:104A6000DEC4E6F4DEC4E6F478EF25F020EE30F0A4
:104A7000AE51D926AF51DA22610078F389F5610091
:104A800078F38AF5610078F38BF5610078F38CF5A3
:104A900020EE14F0AE51D926AF51DA22610078F33E
:104AA0008DF5610078F38EF5610078F38FF5610084
:104AB00078F390F55BEC39F00501D8B062EF25F0A2
:104AC00064EF25F078EF25F020EE14F0AE51D926F2
:104AD000AF51DA2210EE30F0AE51E126AF51E222B2
:104AE000DEC4E6F4DEC4E6F4DEC4E6F4DEC4E6F4D6
:104AF00020EE28F0AE51D926AF51DA22610030F70E
:104B0000DEF4610034F7DEF4610038F7DEF46100B2
:104B10003CF7DEF420EE2CF0AE51D926AF51DA226C
:104B20006100D0F6DEF46100D4F6DEF46100D8F660
:104B3000DEF46100DCF6DEF420EE30F0AE51D92672
:104B4000AF51DA22610078F3AEF5610078F3AFF58A
:104B5000610078F3B0F5610078F3B1F512006100FF
:104B6000E0FAD9F46100E4FADAF4DEC4F6F4DDC464
:104B7000F7F4000EF86E0800F550250AD8A4C3EF2C
:104B800025F0C5EF25F03FEF28F06100E0FAD9F4F9
:104B90006100E4FADAF4DE2A000EDD22000E0601DE
:104BA0001F6F000E1E6F1EC622F61FC623F6206959
:104BB00021696100E0FAD9F46100E4FADAF4DEC4B4
:104BC000F6F4DDC4F7F4000EF86E0800F5502E0A76
:104BD000D8A4EDEF25F0EFEF25F087EF26F0000EDB
:104BE000216F000E206F6100E0FAD9F46100E4FA51
:104BF000DAF4DE2A000EDD226100E0FAD9F4610069
:104C0000E4FADAF4DEC4F6F4DDC4F7F4000EF86E6C
:104C10000800F5502A0AD8A410EF26F012EF26F06B
:104C200039EF26F06100E0FAD9F46100E4FADAF431
:104C3000DE2A000EDD226100E8FAD9F46100ECFA08
:104C4000DAF461007CF3CEF5020EDE2661007CF31F
:104C5000CFF5000EDD22610038F7D9F461003CF792
:104C6000DAF4610078F320F6610074F321F687EF3F
:104C700026F06100E0FAD9F46100E4FADAF46100A8
:104C800078F367F5610074F368F5F7EC34F067C505
:104C900020F668C521F656EF26F06100E0FAD9F457
:104CA0006100E4FADAF4DE2A000EDD22D00E0501FE
:104CB000CE6FFF0ECF6F6100E0FAD9F46100E4FA25
:104CC000DAF4DEC4F6F4DDC4F7F4000EF86E080082
:104CD000F550D06FD16BCE51D027CF51D123D151C8
:104CE0000AE10A0ED05DD8A078EF26F07BEF26F01F
:104CF000010E7CEF26F0000ED26FD36BD251D31190
:104D0000D8A485EF26F087EF26F04DEF26F061005E
:104D1000E0FAD9F46100E4FADAF4DEC4F6F4DDC4B2
:104D2000F7F4000EF86E0800F5500501666F676B2A
:104D3000D1EC3FF005016651DB6FDB51D8B4A3EF36
:104D400026F0A5EF26F0EFEF26F06100E0FAD9F4A7
:104D50006100E4FADAF4610078F3CEF5610074F3EF
:104D6000CFF5010ECE27000ECF23610038F7F6F401
:104D700061003CF7F7F4000EF86E0800F550666F1E
:104D8000676BD1EC3FF005016651DC6FDC51D8B4A4
:104D9000CCEF26F0CEEF26F0EFEF26F06100E0FA40
:104DA000D9F46100E4FADAF4610078F3CEF5610039
:104DB00074F3CFF5020ECE27000ECF23610038F733
:104DC000F6F461003CF7F7F4000EF86E0800F550B9
:104DD000666F676BD1EC3FF005016651DD6F660EC3
:104DE000DB19D8A4F6EF26F0F8EF26F049EF27F00C
:104DF0006100E0FAD9F46100E4FADAF4DEC4F6F412
:104E0000DDC4F7F4000EF86E08006100D4F3D6F5A7
:104E10006100E0FAD9F46100E4FADAF4DE2A000E67
:104E2000DD226100E8FAD9F46100ECFADAF46100FD
:104E30007CF3CEF5040EDE2661007CF3CFF5000E88
:104E4000DD22610038F7D9F461003CF7DAF4610043
:104E500078F3D7F5610078F3D8F5610078F3D9F5E8
:104E6000610078F3DAF5B6C6C2F5B7C6C3F5D7C5A3
:104E7000C4F5D8C5C5F5D9C5C6F5DAC5C7F5D6C5D3
:104E8000C8F504EC1CF0C2C5B6F6C3C5B7F661EFB1
:104E900028F0DB0E606F050E616F2A0E626F260E22
:104EA000636F000E656F020E646FE0EC3AF005016F
:104EB00060516111D8A45FEF27F061EF27F0FFEF99
:104EC00027F06100E0FAD9F46100E4FADAF4610055
:104ED00078F3CEF5610074F3CFF5010ECE27000E06
:104EE000CF23610038F7F6F461003CF7F7F4000EC9
:104EF000F86E08006100D4F3D6F5BF0ECE6FFF0E3A
:104F0000CF6F6100E0FAD9F46100E4FADAF4DEC4AC
:104F1000F6F4DDC4F7F4000EF86E0800F550D06F1B
:104F2000D16BCE51D027CF51D123D1510AE11A0EE6
:104F3000D05DD8A09EEF27F0A1EF27F0010EA2EFE1
:104F400027F0000ED46FD56BD451D511D8B4ABEF88
:104F500027F0ADEF27F0D1EF27F06100E8FAD9F4A0
:104F60006100ECFADAF461007CF3CEF5040EDE2683
:104F700061007CF3CFF5000EDD22610038F7D9F433
:104F800061003CF7DAF4610078F3D7F5610078F35B
:104F9000D8F5610078F3D9F5610078F3DAF5F3EF2D
:104FA00027F06100E8FAD9F46100ECFADAF4610064
:104FB0007CF3CEF5040EDE2661007CF3CFF5000E07
:104FC000DD22610038F7D9F461003CF7DAF46100C2
:104FD00078F3D7F5610078F3D8F5610078F3D9F567
:104FE000610078F3DAF5020E6100E0FAD9F46100AD
:104FF000E4FADAF4DE26000EDD2233EF27F061005A
:10500000E0FAD9F46100E4FADAF4DEC4F6F4DDC4BF
:10501000F7F4000EF86E0800F550250AD8A413EF37
:1050200028F015EF28F02FEF28F06100E0FAD9F40E
:105030006100E4FADAF4DE2A000EDD22000E616F70
:10504000250E606FB6C662F5B7C663F55EEC3BF041
:10505000000E0601B76F010EB66F61EF28F0610018
:10506000E0FAD9F46100E4FADAF4DE2A000EDD2277
:10507000000E0601B76F000EB66F61EF28F06100F9
:10508000E0FAD9F46100E4FADAF4DEC4F6F4DDC43F
:10509000F7F4000EF86E0800F5500501606F616BC3
:1050A000B6C662F5B7C663F55EEC3BF06100E0FAA8
:1050B000D9F46100E4FADAF4DE2A000EDD2228EFEA
:1050C00028F0120005016351800B6C6F635163255A
:1050D0006E6F62AF6EEF28F070EF28F071EF28F07E
:1050E0006E816E51D8B477EF28F079EF28F08EEF0B
:1050F00028F06E29D8A47FEF28F081EF28F089EFFF
:1051000028F0000E606F000E616F000E626F000EDF
:10511000636F628F000E636F96EF28F0000E606F72
:10512000000E616F000E626F000E636F6751800B9F
:105130006D6F6C516D19D8B4A0EF28F0A2EF28F074
:10514000A3EF28F06C8D675167256D6F66AFABEFED
:1051500028F0ADEF28F0AEEF28F06D816D51D8B496
:10516000B4EF28F0B6EF28F0CBEF28F06D29D8A4E3
:10517000BCEF28F0BEEF28F0C6EF28F0000E646FF9
:10518000000E656F000E666F000E676F668F000E73
:10519000676FD3EF28F0000E646F000E656F000E8E
:1051A000666F000E676F6E516D5DD8B0DAEF28F054
:1051B000DCEF28F003EF29F06CADE1EF28F0E3EF2E
:1051C00028F0E5EF28F0800E6C1B6EC56FF56DC5FD
:1051D0006EF56FC56DF560C56FF564C560F56FC59B
:1051E00064F561C56FF565C561F56FC565F562C5A7
:1051F0006FF566C562F56FC566F563C56FF567C582
:1052000063F56FC567F5000E6F6F6E516DC568F57C
:10521000696B685F000E695B69BF18EF29F069511F
:1052200009E11A0E685DD8A018EF29F01AEF29F0ED
:1052300051EF29F06051611162116311D8A423EF7D
:1052400029F026EF29F0010E27EF29F0000E6F6FED
:10525000000E606F000E616F000E626F000E636FD4
:105260006DC56EF55AEF29F06FA139EF29F03BEFCC
:1052700029F041EF29F0D8906F3101096F6F43EFAA
:1052800029F0D8906F3360A148EF29F04AEF29F058
:105290004BEF29F06F8F63356333623361336033D3
:1052A0006E2B6D516E5DD8A058EF29F05AEF29F0A2
:1052B00034EF29F06CBD5FEF29F061EF29F0A1EF29
:1052C00029F06E51D8A467EF29F069EF29F073EF48
:1052D00029F0000E606F000E616F000E626F000E0D
:1052E000636FC2EF2AF064516027655161236651F4
:1052F00062236751632363A180EF29F082EF29F0D5
:105300002EEF2AF06FA187EF29F089EF29F08FEFB8
:1053100029F0D8906F3101096F6F91EF29F0D89083
:105320006F3360A196EF29F098EF29F099EF29F0FB
:105330006F8F633563336233613360336E2B2EEFCF
:105340002AF06451605D655161596651625963513B
:10535000800A686F6751800A6859D8B0B2EF29F0A7
:10536000B4EF29F0DFEF29F06051645D686F61519F
:105370006559696F625166596A6F635167596B6FFE
:10538000FF0E6825606FFF0E6921616FFF0E6A21B5
:10539000626FFF0E6B21636F800E6C1B6F6D6F5120
:1053A000D8A4D5EF29F0D7EF29F0E7EF29F0010EC7
:1053B0006027000E612362236323E7EF29F0645125
:1053C000605F6551615B6651625B6751635B605111
:1053D000611162116311D8A4F0EF29F0F2EF29F006
:1053E00027EF2AF06F51D8A4F8EF29F0FAEF29F04F
:1053F00027EF2AF0000E606F000E616F000E626FE3
:10540000000E636FC2EF2AF0D890603761376237C1
:1054100063376FAF0EEF2AF010EF2AF011EF2AF08A
:1054200060816FA116EF2AF018EF2AF01CEF2AF026
:10543000D8806F371EEF2AF0D8906F376E51D8B4EE
:1054400024EF2AF026EF2AF027EF2AF06E0762AF4A
:105450002CEF2AF02EEF2AF004EF2AF0000E6D6FE9
:105460006FAF35EF2AF037EF2AF04FEF2AF06FC514
:1054700068F57F0E6817D8B440EF2AF042EF2AF0A3
:1054800046EF2AF0010E6D6F4FEF2AF060A14BEF4F
:105490002AF04DEF2AF04FEF2AF042EF2AF06D513B
:1054A000D8B455EF2AF057EF2AF082EF2AF0010E18
:1054B0006027000E61236223632363A162EF2AF059
:1054C00064EF2AF082EF2AF060C568F561C569F5DE
:1054D00062C56AF563C56BF56B356B336A33693347
:1054E000683368C560F569C561F56AC562F56BC565
:1054F00063F56E29D8B47FEF2AF081EF2AF082EFAE
:105500002AF06E2B6E29D8B488EF2AF08AEF2AF0A1
:1055100092EF2AF06E51D8A490EF2AF092EF2AF081
:10552000A4EF2AF0000E606F000E616F000E626F34
:10553000000E636F6E51D8A4A0EF2AF0A2EF2AF0FC
:10554000A4EF2AF0000E6C6F6EA1A9EF2AF0ABEF6A
:105550002AF0AEEF2AF0628FAFEF2AF0629FD89068
:105560006E31636F6CAFB7EF2AF0B9EF2AF0BAEF84
:105570002AF0638F60C560F561C561F562C562F5AB
:1055800063C563F5120005017351800B7C6F735185
:1055900073257E6F72AFCFEF2AF0D1EF2AF0D2EFF2
:1055A0002AF07E817E51D8B4D8EF2AF0DAEF2AF0C3
:1055B000EDEF2AF07E29D8A4E0EF2AF0E2EF2AF0FE
:1055C000EAEF2AF0000E706F000E716F000E726F1E
:1055D000000E736F728FF5EF2AF0000E706F000EE1
:1055E000716F000E726F000E736F7751800B7C1B12
:1055F000775177257D6F76AF00EF2BF002EF2BF020
:1056000003EF2BF07D817D51D8B409EF2BF00BEF28
:105610002BF01EEF2BF07D29D8A411EF2BF013EF08
:105620002BF01BEF2BF0000E746F000E756F000E49
:10563000766F000E776F768F26EF2BF0000E746F6B
:10564000000E756F000E766F000E776F7D51D8B427
:105650002CEF2BF02EEF2BF036EF2BF07E51D8A451
:1056600034EF2BF036EF2BF040EF2BF0000E706F85
:10567000000E716F000E726F000E736FEAEF2CF068
:10568000765170036100CCF387F56100D0F388F5A3
:1056900087517F6F806B816B826B8851836F846BC6
:1056A000856B866B755171036100CCF387F56100E2
:1056B000D0F388F587517F27000E80238123822332
:1056C00088518327000E8423852386237451720317
:1056D0006100CCF387F56100D0F388F587517F270F
:1056E000000E80238123822388518327000E842388
:1056F0008523862381C582F580C581F57FC580F528
:105700007F6B745171036100CCF387F56100D0F3B6
:1057100088F587517F2788518023000E8123000E52
:105720008223755170036100CCF387F56100D0F3DB
:1057300088F587517F2788518023000E8123000E32
:10574000822381C582F580C581F57FC580F57F6B99
:10575000745170036100CCF387F56100D0F388F5D4
:1057600087517F2788518023000E8123000E8223DA
:10577000765171036100CCF387F56100D0F388F5B1
:105780008751832788518423000E8523000E8623AA
:10579000755172036100CCF387F56100D0F388F591
:1057A0008751832788518423000E8523000E86238A
:1057B000765172036100CCF387F56100D0F388F570
:1057C0008751786F8851796F7A6B7B6B7AC57BF5DF
:1057D00079C57AF578C579F5786B78518327795151
:1057E00084237A5185237B5186237FC578F580C534
:1057F00079F581C57AF582C57BF5190E05EF2CF098
:10580000D8907B337A3379337833E82E00EF2CF05D
:1058100078518327795184237A5185237B518623BC
:1058200081C582F580C581F57FC580F57F6B7D518F
:105830007EC578F5796B7827000E7923820E78255E
:10584000876FFF0E7921886F3BEF2CF0D89083375C
:1058500084378537863782AF30EF2CF032EF2CF06B
:1058600033EF2CF08381D8907F37803781378237B0
:105870008707D8A0880785AF40EF2CF042EF2CF0C7
:1058800026EF2CF0000E7D6F82AF49EF2CF04BEF2E
:105890002CF06FEF2CF0FF0E7F15786FFF0E801548
:1058A000796FFF0E81157A6F7F0E82157B6F7851AD
:1058B00079117A117B11D8B460EF2CF062EF2CF0E3
:1058C00066EF2CF0010E7D6F6FEF2CF083A16BEF74
:1058D0002CF06DEF2CF06FEF2CF062EF2CF07D517F
:1058E000D8B475EF2CF077EF2CF09BEF2CF0010E75
:1058F0008327000E84238523862386A182EF2CF044
:1059000084EF2CF09BEF2CF083C578F584C579F5F6
:1059100085C57AF586C57BF57B357B337A3379335C
:10592000783378C583F579C584F57AC585F57BC567
:1059300086F5874B882B88BFA6EF2CF0885108E1AD
:105940008729D8A0A6EF2CF0A8EF2CF0B2EF2CF00E
:10595000000E836F000E846F800E856F7F0E866F42
:10596000E0EF2CF088BFBFEF2CF0885106E18705EF
:10597000D8B0BDEF2CF0BFEF2CF0CBEF2CF0000E29
:10598000836F000E846F000E856F000E866F000E11
:105990007C6FE0EF2CF087C57EF5FF0E8317FF0EBE
:1059A00084177F0E8517000E86177EA1DAEF2CF084
:1059B000DCEF2CF0DDEF2CF0858FD8907E31866FF8
:1059C0007C51861383C570F584C571F585C572F564
:1059D00086C573F512000450800B0D6E045004242C
:1059E000136E03AEF6EF2CF0F8EF2CF0F9EF2CF07D
:1059F00013801350D8B4FFEF2CF001EF2DF014EF0B
:105A00002DF01328D8A407EF2DF009EF2DF011EF9A
:105A10002DF0000E016E000E026E000E036E000EE1
:105A2000046E038E1CEF2DF0000E016E000E026E50
:105A3000000E036E000E046E0850800B0D1A085005
:105A40000824126E07AE27EF2DF029EF2DF02AEF74
:105A50002DF012801250D8B430EF2DF032EF2DF02F
:105A600045EF2DF01228D8A438EF2DF03AEF2DF0A5
:105A700042EF2DF0000E056E000E066E000E076E52
:105A8000000E086E078E4DEF2DF0000E056E000E15
:105A9000066E000E076E000E086E1250D8B453EF5B
:105AA0002DF055EF2DF05DEF2DF01350D8A45BEFE6
:105AB0002DF05DEF2DF067EF2DF0000E016E000E62
:105AC000026E000E036E000E046E11EF2FF00750F1
:105AD00001026100CCF318F56100D0F319F51850FC
:105AE0000E6E0F6A106A116A1950146E156A166AE2
:105AF000176A065002026100CCF318F56100D0F37A
:105B000019F518500E26000E0F22102211221950DE
:105B10001426000E152216221722055003026100DA
:105B2000CCF318F56100D0F319F518500E26000ECD
:105B30000F221022112219501426000E15221622AF
:105B4000172210C511F50FC510F50EC50FF50E6A19
:105B5000055002026100CCF318F56100D0F319F58D
:105B600018500E2619500F22000E1022000E11227E
:105B7000065001026100CCF318F56100D0F319F56D
:105B800018500E2619500F22000E1022000E11225E
:105B900010C511F50FC510F50EC50FF50E6A0550AD
:105BA00001026100CCF318F56100D0F319F518502B
:105BB0000E2619500F22000E1022000E112207503F
:105BC00002026100CCF318F56100D0F319F518500A
:105BD000142619501522000E1622000E1722065008
:105BE00003026100CCF318F56100D0F319F51850E9
:105BF000142619501522000E1622000E17220750E7
:105C000003026100CCF318F56100D0F319F51850C8
:105C1000096E19500A6E0B6A0C6A0BC50CF50AC5A1
:105C20000BF509C50AF5096A095014260A50152210
:105C30000B5016220C5017220EC509F50FC50AF598
:105C400010C50BF511C50CF5190E2CEF2EF0D890E0
:105C50000C320B320A320932E82E27EF2EF00950AF
:105C600014260A5015220B5016220C50172210C56C
:105C700011F50FC510F50EC50FF50E6A125013C5BC
:105C800009F50A6A0926000E0A22820E0924186EF6
:105C9000FF0E0A20196E62EF2EF0D89014361536DA
:105CA0001636173611AE57EF2EF059EF2EF05AEF89
:105CB0002EF01480D8900E360F3610361136180696
:105CC000D8A0190616AE67EF2EF069EF2EF04DEF53
:105CD0002EF0000E126E11AE70EF2EF072EF2EF05D
:105CE00096EF2EF0FF0E0E14096EFF0E0F140A6EC3
:105CF000FF0E10140B6E7F0E11140C6E09500A105B
:105D00000B100C10D8B487EF2EF089EF2EF08DEF2A
:105D10002EF0010E126E96EF2EF014A092EF2EF0E0
:105D200094EF2EF096EF2EF089EF2EF01250D8B4AB
:105D30009CEF2EF09EEF2EF0C2EF2EF0010E1426F7
:105D4000000E15221622172217A0A9EF2EF0ABEF96
:105D50002EF0C2EF2EF014C509F515C50AF516C5CB
:105D60000BF517C50CF50C340C320B320A32093224
:105D700009C514F50AC515F50BC516F50CC517F5BB
:105D8000184A192A19BECDEF2EF0195008E118282B
:105D9000D8A0CDEF2EF0CFEF2EF0D9EF2EF0000EE1
:105DA000146E000E156E800E166E7F0E176E07EFC6
:105DB0002FF019BEE6EF2EF0195006E11804D8B006
:105DC000E4EF2EF0E6EF2EF0F2EF2EF0000E146E60
:105DD000000E156E000E166E000E176E000E0D6E84
:105DE00007EF2FF018C513F5FF0E1416FF0E15164A
:105DF0007F0E1616000E171613A001EF2FF003EFFB
:105E00002FF004EF2FF0168ED8901330176E0D5030
:105E1000171214C501F515C502F516C503F517C50A
:105E200004F5120005019851800BA56F9851982533
:105E3000AC6F97AF1EEF2FF020EF2FF021EF2FF078
:105E4000AC81AC51D8B427EF2FF029EF2FF03EEF03
:105E50002FF0AC29D8A42FEF2FF031EF2FF039EF2E
:105E60002FF0000E956F000E966F000E976F000ECC
:105E7000986F978F000E986F46EF2FF0000E956F7A
:105E8000000E966F000E976F000E986F9C51800B5E
:105E9000A51B9C519C25AD6F9BAF51EF2FF053EF8D
:105EA0002FF054EF2FF0AD81AD51D8B45AEF2FF051
:105EB0005CEF2FF071EF2FF0AD29D8A462EF2FF037
:105EC00064EF2FF06CEF2FF0000E996F000E9A6FB9
:105ED000000E9B6F000E9C6F9B8F000E9C6F79EFE6
:105EE0002FF0000E996F000E9A6F000E9B6F000E40
:105EF0009C6F99519A119B119C11D8A482EF2FF09D
:105F000084EF2FF09CEF2FF0000E956F000E966F30
:105F1000000E976F000E986F800E97137F0E9813E8
:105F2000A551981395C595F596C596F597C597F51E
:105F300098C598F5DFEF30F0AC51D8A4A2EF2FF060
:105F4000A4EF2FF0AEEF2FF0000E956F000E966FBE
:105F5000000E976F000E986FDFEF30F0AD51ACC5BB
:105F60009DF59E6B9D5F000E9E5B7F0E9D25A66F2F
:105F7000000E9E21A76F95C5A1F596C5A2F597C500
:105F8000A3F598C5A4F5000E956F000E966F000E50
:105F9000976F000E986F000EA86F000EA96F000E8D
:105FA000AA6F000EAB6F000EAD6F0FEF30F0AD516A
:105FB000D8B4DDEF2FF0DFEF2FF0F6EF2FF0D89011
:105FC000A137A237A337A437D8909537963797379C
:105FD0009837ABAFEEEF2FF0F0EF2FF0F1EF2FF09F
:105FE0009581D890A837A937AA37AB379951A15DC9
:105FF0009A51A2599B51A3599C51A459D8A003EF7F
:1060000030F005EF30F00EEF30F0AB8D9951A15F1D
:106010009A51A25B9B51A35B9C51A45BAD2B190EC3
:10602000AD6515EF30F017EF30F0D7EF2FF0A1513D
:10603000A211A311A411D8B420EF30F022EF30F058
:106040003AEF30F0A8813AEF30F0D8909537963794
:1060500097379837ABAF2FEF30F031EF30F032EFAA
:1060600030F09581D890A837A937AA37AB37A60763
:10607000D8A0A70797AF3FEF30F041EF30F025EF02
:1060800030F0000EAD6FABAF48EF30F04AEF30F0BC
:106090006EEF30F0FF0EA8159D6FFF0EA9159E6FD5
:1060A000FF0EAA159F6F7F0EAB15A06F9D519E111D
:1060B0009F11A011D8B45FEF30F061EF30F065EFC1
:1060C00030F0010EAD6F6EEF30F095A16AEF30F059
:1060D0006CEF30F06EEF30F061EF30F0AD51D8B4CE
:1060E00074EF30F076EF30F09AEF30F0010E952734
:1060F000000E96239723982398A181EF30F083EF29
:1061000030F09AEF30F095C59DF596C59EF597C590
:106110009FF598C5A0F5A035A0339F339E339D33DE
:106120009DC595F59EC596F59FC597F5A0C598F5B3
:10613000A64BA72BA7BFA5EF30F0A75108E1A629D2
:10614000D8A0A5EF30F0A7EF30F0B2EF30F0000E9E
:10615000A76FA669000E956F000E966F000E976FE1
:10616000000E986FA7BFBFEF30F0A75106E1A6055C
:10617000D8B0BDEF30F0BFEF30F0CDEF30F0000E13
:10618000A76F000EA66F000E956F000E966F000EA3
:10619000976F000E986F000EA56FA6C5ACF5ACA169
:1061A000D4EF30F0D6EF30F0D9EF30F0978FDAEF50
:1061B00030F0979FD890AC31986F90EF2FF012008D
:1061C0000450800B116E04500424186E03AEEBEFE4
:1061D00030F0EDEF30F0EEEF30F018801850D8B41A
:1061E000F4EF30F0F6EF30F00BEF31F01828D8A4D0
:1061F000FCEF30F0FEEF30F006EF31F0000E016EF4
:10620000000E026E000E036E000E046E038E000E72
:10621000046E13EF31F0000E016E000E026E000EE0
:10622000036E000E046E0850800B111A08500824EB
:10623000196E07AE1EEF31F020EF31F021EF31F093
:1062400019801950D8B427EF31F029EF31F03EEF23
:1062500031F01928D8A42FEF31F031EF31F039EFB8
:1062600031F0000E056E000E066E000E076E000E79
:10627000086E078E000E086E46EF31F0000E056EB8
:10628000000E066E000E076E000E086E055006101A
:1062900007100810D8A44FEF31F051EF31F069EF3B
:1062A00031F0000E016E000E026E000E036E000E45
:1062B000046E800E03127F0E04121150041201C5E9
:1062C00001F502C502F503C503F504C504F5ACEFFD
:1062D00032F01850D8A46FEF31F071EF31F07BEF4E
:1062E00031F0000E016E000E026E000E036E000E05
:1062F000046EACEF32F0195018C509F50A6A095E50
:10630000000E0A5A7F0E0924126E000E0A20136E28
:1063100001C50DF502C50EF503C50FF504C510F551
:10632000000E016E000E026E000E036E000E046E73
:10633000000E146E000E156E000E166E000E176E17
:10634000000E196EDCEF31F01950D8B4AAEF31F01D
:10635000ACEF31F0C3EF31F0D8900D360E360F367A
:106360001036D890013602360336043617AEBBEF2E
:1063700031F0BDEF31F0BEEF31F00180D89014362E
:1063800015361636173605500D5C06500E58075058
:106390000F5808501058D8A0D0EF31F0D2EF31F09C
:1063A000DBEF31F0178C05500D5E06500E5A07508A
:1063B0000F5A0850105A192A190E1964E2EF31F0D9
:1063C000E4EF31F0A4EF31F00D500E100F1010106B
:1063D000D8B4EDEF31F0EFEF31F007EF32F0148089
:1063E00007EF32F0D890013602360336043617AE86
:1063F000FCEF31F0FEEF31F0FFEF31F00180D8908B
:1064000014361536163617361206D8A0130603AE04
:106410000CEF32F00EEF32F0F2EF31F0000E196EA9
:1064200017AE15EF32F017EF32F03BEF32F0FF0E00
:106430001414096EFF0E15140A6EFF0E16140B6E5F
:106440007F0E17140C6E09500A100B100C10D8B4E4
:106450002CEF32F02EEF32F032EF32F0010E196EE7
:106460003BEF32F001A037EF32F039EF32F03BEF83
:1064700032F02EEF32F01950D8B441EF32F043EF42
:1064800032F067EF32F0010E0126000E02220322E5
:10649000042204A04EEF32F050EF32F067EF32F0FA
:1064A00001C509F502C50AF503C50BF504C50CF5D0
:1064B0000C340C320B320A32093209C501F50AC517
:1064C00002F50BC503F50CC504F5124A132A13BED9
:1064D00072EF32F0135008E11228D8A072EF32F0B8
:1064E00074EF32F07FEF32F0000E136E1268000E80
:1064F000016E000E026E000E036E000E046E13BEDF
:106500008CEF32F0135006E11204D8B08AEF32F06B
:106510008CEF32F09AEF32F0000E136E000E126E16
:10652000000E016E000E026E000E036E000E046E71
:10653000000E116E12C518F518A0A1EF32F0A3EFEE
:1065400032F0A6EF32F0038EA7EF32F0039ED89020
:106550001830046E5DEF31F01200610060F3EAF56F
:106560006100D8F3EBF56100DCF3ECF56100E0F3DA
:10657000EDF56100D4F3EEF5A1AEC1EF32F0C3EF5B
:1065800032F0C0EF33F0B1AEC8EF32F0CAEF32F004
:10659000C0EF33F0BEEC41F003011D510501E96F7E
:1065A000E86B03011C510501E8250601246F030176
:1065B000000E0501E9210601256F000E03011D6F84
:1065C000000E1C6F000E0501746F000E756F700ECB
:1065D000766F420E776F24C660F525C661F5626B53
:1065E000636B000ED5EC35F060C570F561C571F5D3
:1065F00062C572F563C573F5C3EC2AF070C595F5F5
:1066000071C596F572C597F573C598F59A0E050193
:10661000996F990E9A6F990E9B6F3F0E9C6F12ECBB
:106620002FF095C57AF696C57BF697C57CF698C58A
:106630007DF6DB0E0501746F0F0E756FC90E766F58
:10664000400E776F7AC670F57BC671F57CC672F521
:106650007DC673F5C3EC2AF070C595F571C596F546
:1066600072C597F573C598F5000E0501996F000E78
:106670009A6F700E9B6F420E9C6F12EC2FF095C5B7
:1066800018F696C519F697C51AF698C51BF618C6DA
:10669000B4F519C6B5F51AC6B6F51BC6B7F514C6D6
:1066A000B0F515C6B1F516C6B2F517C6B3F5640E4A
:1066B0000501AE6F070EAF6F68EC22F0AEC5EFF5C7
:1066C000AFC5F0F5B0C5F1F5B1C5F2F5000E0501A5
:1066D000746FC00E756F470E766F440E776FEFC5FF
:1066E00070F5F0C571F5F1C572F5F2C573F5C3EC3F
:1066F0002AF070C595F571C596F572C597F573C505
:1067000098F5000E0501996F000E9A6F400E9B6F71
:10671000410E9C6F12EC2FF095C510F696C511F640
:1067200097C512F698C513F610C660F511C661F547
:1067300012C662F513C663F553EC38F060C56AF50E
:1067400061C56BF555EC42F0320E0601C26F070EC3
:10675000C36F130EC46F260EC56F18C6C6F619C6D2
:10676000C7F61AC6C8F61BC6C9F660EC40F0320E72
:106770000501616F070E626F9DEC41F0DCEF33F0B5
:10678000A2A2C5EF33F0C7EF33F0DCEF33F0B2A2D3
:10679000CCEF33F0CEEF33F0DCEF33F002D8DCEFA8
:1067A00033F00500FA6E0601D651FD6ED751FE6E2C
:1067B000D851FF6EFA5012006100B8F7F5F461008D
:1067C000B4F7F8F46100B0F7F7F46100ACF7F6F451
:1067D0006100A8F7D8F4110050C5BEF551C5BFF54A
:1067E00052C5C0F553C5C1F5AEC5BEF5AFC5BFF5C1
:1067F000B0C5C0F5B1C5C1F5810E0501B26FFF0E80
:10680000B36FBEC5B4F5BFC5B5F5C0C5B6F5C1C556
:10681000B7F5180E11EF34F0D890B733B633B5335F
:10682000B433E82E0CEF34F0B451B225BC6F000E37
:10683000B321BD6FBDBF26EF34F0BD5109E1170E86
:10684000BC5DD8A026EF34F028EF34F032EF34F0FE
:10685000AEC5AEF5AFC5AFF5B0C5B0F5B1C5B1F5D4
:10686000F6EF34F0BDBF37EF34F039EF34F0AAEF74
:1068700034F0BCC5B2F5FF0EB36FFF0EB46F7F0EE0
:10688000B56F000EB66FB26748EF34F050EF34F0DA
:10689000B635B633B533B433B333B22F43EF34F038
:1068A000B3C5B8F5B4C5B9F5B5C5BAF5B6C5BBF548
:1068B0000501B851BE15B26FB951BF15B36FBA51CA
:1068C000C015B46FBB51C115B56FB251B311B4113E
:1068D000B511D8A46EEF34F070EF34F072EF34F0ED
:1068E00028EF34F0BEC5B2F5BFC5B3F5C0C5B4F5E9
:1068F000C1C5B5F5200E82EF34F0D890B533B4336E
:10690000B333B233E82E7DEF34F0B251B311B4118A
:10691000B511D8B48EEF34F090EF34F098EF34F036
:10692000B851BE27B951BF23BA51C023BB51C123AF
:10693000B81DB26FB91DB36FBA1DB46FBB1DB56F73
:10694000B251BE17B351BF17B451C017B551C117DB
:10695000EEEF34F0BEC5B2F5BFC5B3F5C0C5B4F5B2
:10696000C1C5B5F5200EBAEF34F0D890B533B433C5
:10697000B333B233E82EB5EF34F0B251B311B411E2
:10698000B511D8A4C6EF34F0C8EF34F0D2EF34F02C
:10699000000EBE6F000EBF6F000EC06F000EC16F05
:1069A000EEEF34F0D890BE35B26FBF35B36FC0355F
:1069B000B46FC135B56FB251B311B411B511D8B4BC
:1069C000E4EF34F0E6EF34F0EEEF34F0000EBE6F9B
:1069D000000EBF6F800EC06FBF0EC16FBEC5AEF59B
:1069E000BFC5AFF5C0C5B0F5C1C5B1F51200000E09
:1069F0000501756F000E746F000E6E6F000E6D6FE7
:106A000004EF35F0674B682B010E736F61009CF546
:106A1000F6F46100A0F5F7F4000EF86E0800F550EA
:106A2000200AD8B416EF35F018EF35F039EF35F00D
:106A3000F70E696FFF0E6A6F61009CF5F6F4610056
:106A4000A0F5F7F4000EF86E0800F5506B6F6C6B54
:106A500069516B276A516C236C5109E1050E6B5D1E
:106A6000D8A035EF35F037EF35F039EF35F0000EBF
:106A7000736F73C56FF5706B6F517011D8A443EFCE
:106A800035F045EF35F002EF35F04FEF35F0000E01
:106A90006E6F010E6D6F674B682B8DEF35F06100E7
:106AA0009CF5F6F46100A0F5F7F4000EF86E08000E
:106AB000F550696F6A6B6A51000AD8B462EF35F01D
:106AC0008DEF35F069512B0AD8B44BEF35F0060A3B
:106AD000D8B447EF35F08DEF35F074C560F575C566
:106AE00061F5000E636F0A0E626FFDEC42F061000B
:106AF0009CF5F6F46100A0F5F7F4000EF86E0800BE
:106B0000F5500501605F000E615B300E6025746F0B
:106B1000000E6121756F4BEF35F0D00E696FFF0EDF
:106B20006A6F61009CF5F6F46100A0F5F7F4000EC1
:106B3000F86E0800F5506B6F6C6B69516B276A51EA
:106B40006C236C510AE10A0E6B5DD8A0AAEF35F0F8
:106B5000ADEF35F0010EAEEF35F0000E716F726BD8
:106B600071517211D8A4B7EF35F0B9EF35F06DEF70
:106B700035F06D516E11D8A4C0EF35F0C2EF35F08D
:106B8000D0EF35F074C569F575C56AF5691F6A1FE0
:106B9000694B6A2B69C567F56AC568F5D4EF35F0AE
:106BA00074C567F575C568F512000501686F0501C4
:106BB0006851D8B4DEEF35F0E0EF35F002EF36F093
:106BC00063BFE7EF35F0E5EF35F002EF36F060C573
:106BD00064F561C565F562C566F563C567F5641F53
:106BE000651F661F671F642B000E652366236723DE
:106BF00064C56AF565C56BF566C56CF567C56DF569
:106C00000AEF36F060C56AF561C56BF562C56CF5D3
:106C100063C56DF56051611162116311D8A413EF62
:106C200036F015EF36F01FEF36F0000E606F000EF5
:106C3000616F000E626F000E636FB0EF36F0960E5C
:106C4000696F29EF36F0692BD8906D336C336B3355
:106C50006A33000E6A15646F000E6B15656F000EC7
:106C60006C15666FFE0E6D15676F645165116611C8
:106C70006711D8A43EEF36F040EF36F023EF36F040
:106C80004EEF36F0692B010E6A27000E6B236C2342
:106C90006D23D8906D336C336B336A33000E6A15F5
:106CA000646F000E6B15656F000E6C15666FFF0E3E
:106CB0006D15676F6451651166116711D8A463EF94
:106CC00036F065EF36F042EF36F06DEF36F06907DB
:106CD000D8906A376B376C376D376CBF72EF36F010
:106CE00074EF36F07CEF36F0020E69617AEF36F021
:106CF0007CEF36F067EF36F069B181EF36F083EF65
:106D000036F084EF36F06C9FD890693369C564F52E
:106D1000656B666B676B64C567F5666B656B646B0B
:106D200064516A1365516B1366516C1367516D138F
:106D30006851D8B49EEF36F0A0EF36F0A8EF36F0E9
:106D400063BFA7EF36F0A5EF36F0A8EF36F06D8FF2
:106D50006AC560F56BC561F56CC562F56DC563F517
:106D60001200096E0950D8B4B8EF36F0BAEF36F019
:106D7000DCEF36F004BEC1EF36F0BFEF36F0DCEFEB
:106D800036F001C505F502C506F503C507F504C5CE
:106D900008F5051E061E071E081E052A000E0622FF
:106DA0000722082205C50BF506C50CF507C50DF52C
:106DB00008C50EF5E4EF36F001C50BF502C50CF57C
:106DC00003C50DF504C50EF50150021003100410A3
:106DD000D8A4EDEF36F0EFEF36F0F9EF36F0000E15
:106DE000016E000E026E000E036E000E046E8AEF3E
:106DF00037F0960E0A6E03EF37F00A2AD8900E325B
:106E00000D320C320B32000E0B14056E000E0C14FA
:106E1000066E000E0D14076EFE0E0E14086E055061
:106E2000061007100810D8A418EF37F01AEF37F043
:106E3000FDEF36F028EF37F00A2A010E0B26000E80
:106E40000C220D220E22D8900E320D320C320B3253
:106E5000000E0B14056E000E0C14066E000E0D14C1
:106E6000076EFF0E0E14086E05500610071008106E
:106E7000D8A43DEF37F03FEF37F01CEF37F047EF86
:106E800037F00A06D8900B360C360D360E360DBE8E
:106E90004CEF37F04EEF37F056EF37F0020E0A6046
:106EA00054EF37F056EF37F041EF37F00AB05BEFB1
:106EB00037F05DEF37F05EEF37F00D9ED8900A3275
:106EC0000AC505F5066A076A086A05C508F5076A6E
:106ED000066A056A05500B1206500C1207500D1277
:106EE00008500E120950D8B478EF37F07AEF37F027
:106EF00082EF37F004BE81EF37F07FEF37F082EF9B
:106F000037F00E8E0BC501F50CC502F50DC503F566
:106F10000EC504F5120001C50BF502C50CF50550B0
:106F20000610D8A496EF37F098EF37F09AEF37F0C5
:106F300052EF38F061002CF4D9F4610030F4DAF447
:106F400061000CF4DFF405500B24076E06500C2092
:106F5000086EFF0E0724D96EFF0E0820DA6E61005E
:106F60000CF4DFF4065007E1030E055CD8B0BBEF6C
:106F700037F0BDEF37F0BFEF37F052EF38F020EECB
:106F800001F00B50D9260C50DA2261000CF4DFF42A
:106F900020EE02F00B50D9260C50DA2261000CF4DE
:106FA000DFF405500B24076E06500C20086EFE0E11
:106FB0000724D96EFF0E0820DA6E61000CF4DFF4AE
:106FC00005500B24076E06500C20086EFD0E07249A
:106FD000D96EFF0E0820DA6E61000CF4DFF4065063
:106FE00007E1070E055CD8B0F8EF37F0FAEF37F09D
:106FF000FCEF37F052EF38F020EE03F00B50D926BB
:107000000C50DA2261000CF4DFF405500B24076EFB
:1070100006500C20086EFC0E0724D96EFF0E0820C7
:10702000DA6E61000CF4DFF4065007E1090E055C2E
:10703000D8B01DEF38F01FEF38F021EF38F052EFE5
:1070400038F00BC507F50CC508F5071E081E074AE2
:10705000082A030E0714096E0A6A09500B260A5003
:107060000C220950055E0A50065AFC0E0516FF0E4A
:10707000061649EF38F061002CF4D9F4610030F4C1
:10708000DAF461000CF4DFF40506D8A006060B4A1A
:107090000C2A05500610D8A450EF38F052EF38F003
:1070A0003BEF38F01200050162356335696F6951B5
:1070B000D8A45DEF38F05FEF38F069EF38F0000EDC
:1070C000606F000E616F000E626F000E636FD6EF8F
:1070D00038F060C564F561C565F562C566F563C5E0
:1070E00067F5200E79EF38F0D89067336633653353
:1070F0006433E82E74EF38F06451686F628FFF0ECE
:107100006017FF0E6117FF0E6217000E6317960ED1
:10711000695F69BF90EF38F08EEF38F0A6EF38F076
:107120006951800A970FD8B098EF38F09AEF38F08D
:107130009CEF38F05FEF38F0D890633362336133FF
:107140006033693F9CEF38F0BEEF38F01F0E696581
:10715000ACEF38F0AEEF38F0B6EF38F05FEF38F064
:10716000D890603761376237633769076951D8A4AF
:10717000BCEF38F0BEEF38F0B0EF38F06851D8B45B
:10718000C4EF38F0C6EF38F0CEEF38F0631F621F5F
:10719000611F606D000E61236223632360C560F58B
:1071A00061C561F562C562F563C563F512006100F2
:1071B000D8F344F56100DCF345F56100E0F346F5F2
:1071C0006100D4F347F5A2A0E8EF38F0EAEF38F019
:1071D0004EEF39F0B2A0EFEF38F0F1EF38F04EEFAC
:1071E00039F002D8FFEF38F00500FA6E0601D951E8
:1071F000FD6EDA51FE6EDB51FF6EFA501200600038
:1072000084FA5BF5440E5B18D8A409EF39F00BEF54
:1072100039F00FEF39F0C280C2924EEF39F0490ECB
:107220005B18D8A416EF39F018EF39F01CEF39F0DD
:10723000C282C2904EEF39F0780E5B18D8A423EFCB
:1072400039F025EF39F044EF39F0000E406E070EAB
:10725000416E51EC43F040C514F641C515F642C5E8
:1072600016F643C517F6000E016E070E026E000EED
:10727000046E000E036E5AC505F5066A8BEC37F0F6
:10728000000E5A6E4EEF39F0000E5A24D96EDA6AAB
:10729000070EDA2261006CF5DFF45A2A61001CF552
:1072A000F5F4610018F5F8F4610014F5F7F46100E5
:1072B00010F5F6F41100000E05018915916F000E0E
:1072C0008A15926F800E8B15936F7F0E8C15946FBD
:1072D0009151921193119411D8A471EF39F073EF79
:1072E00039F07BEF39F0000E896F000E8A6F000EC7
:1072F0008B6F000E8C6F000E8D15916F000E8E152A
:10730000926F800E8F15936F7F0E9015946F915131
:10731000921193119411D8A490EF39F092EF39F0B3
:107320009AEF39F0000E8D6F000E8E6F000E8F6F8A
:10733000000E906F8CAF9FEF39F0A1EF39F0AAEFFC
:1073400039F0896D8A1FD8B08A2B8B1FD8B08B2B50
:10735000800E8C5790AFAFEF39F0B1EF39F0BAEF44
:1073600039F08D6D8E1FD8B08E2B8F1FD8B08F2B1C
:10737000800E9057000E891B000E8A1B000E8B1B7F
:10738000800E8C1B000E8D1B000E8E1B000E8F1BA3
:10739000800E901B8D51895D8E518A598F518B596A
:1073A00090518C59D8B0D7EF39F0D9EF39F0DCEFE4
:1073B00039F0D890DDEF39F0D8801200000E0114BA
:1073C000096E000E02140A6E800E03140B6E7F0EFF
:1073D00004140C6E09500A100B100C10D8A4F3EF13
:1073E00039F0F5EF39F0FDEF39F0000E016E000EC7
:1073F000026E000E036E000E046E000E0514096E80
:10740000000E06140A6E800E07140B6E7F0E081411
:107410000C6E09500A100B100C10D8A412EF3AF0A1
:1074200014EF3AF01CEF3AF0000E056E000E066EF7
:10743000000E076E000E086E04AE21EF3AF023EF47
:107440003AF02CEF3AF0016C021ED8B0022A031E6B
:10745000D8B0032A800E045608AE31EF3AF033EF6D
:107460003AF03CEF3AF0056C061ED8B0062A071E2B
:10747000D8B0072A800E0856000E011A000E021A14
:10748000000E031A800E041A000E051A000E061ACA
:10749000000E071A800E081A0550015C06500258AB
:1074A0000750035808500458D8B059EF3AF05BEF32
:1074B0003AF05EEF3AF0D8905FEF3AF0D8801200E1
:1074C00054C56AF555C56BF556C56CF557C56DF5D0
:1074D00060C56AF561C56BF562C56CF563C56DF590
:1074E0006AC564F56BC565F56CC566F56DC567F570
:1074F000180E81EF3AF00501D89067336633653393
:107500006433E82E7BEF3AF06451686F696B685121
:107510006911D8A48EEF3AF090EF3AF0B0EF3AF05C
:10752000D8906A35646F6B35656F6C35666F6D35F5
:10753000676F6451651166116711D8A4A2EF3AF024
:10754000A4EF3AF0AAEF3AF0000E616F020E606FFE
:10755000DFEF3AF0000E616F030E606FDFEF3AF07D
:1075600068296911D8A4B7EF3AF0B9EF3AF0DBEF28
:107570003AF06AC564F56BC565F56CC566F56DC511
:1075800067F5090ED8906437653766376737E82E98
:10759000C2EF3AF06451651166116711D8B4D3EFA8
:1075A0003AF0D6EF3AF0010ED7EF3AF0000E606FE6
:1075B000616BDFEF3AF0000E616F040E606F120036
:1075C00060C567F561C568F562C569F563C56AF5AB
:1075D00005016407D8A06507642906E16529D8A4D8
:1075E000F4EF3AF0F6EF3AF003EF3BF0000E616F84
:1075F000000E606F5DEF3BF0674B682B694B6A2BA9
:107600006407D8A0650761009CF5D9F46100A0F576
:10761000DAF4DF50D8B40FEF3BF011EF3BF046EF58
:107620003BF06100A4F5F6F46100A8F5F7F4000E54
:10763000F86E0800F5500009D8B421EF3BF023EFB5
:107640003BF046EF3BF064516511D8B42AEF3BF0B4
:107650002CEF3BF046EF3BF061009CF5D9F4610064
:10766000A0F5DAF4DF50666F6100A4F5F6F461006E
:10767000A8F5F7F4000EF86E0800F5506619D8B4B6
:1076800044EF3BF046EF3BF0FCEF3AF061009CF535
:10769000D9F46100A0F5DAF4DF50666F6100A4F55B
:1076A000F6F46100A8F5F7F4000EF86E0800F55046
:1076B000665D606F616BD8A06107120005016251C1
:1076C0006311D8B466EF3BF068EF3BF071EF3BF02D
:1076D00062516311D8A46FEF3BF071EF3BF076EF8E
:1076E0003BF06051F2EC43F0CAEF3BF020EE04F0C7
:1076F0006251D9266351DA22DE50DE10D8B483EF0E
:107700003BF085EF3BF0A0EF3BF020EE04F0625140
:10771000D9266351DA2210EE02F06251E12663515C
:10772000E222DE50E65CE650800A686FDE50800A96
:107730006859D8B09EEF3BF0A0EF3BF0CAEF3BF0AA
:1077400020EE02F06251D9266351DA22610078F30B
:1077500064F5610074F365F5610088F5D9F46100A2
:107760008CF5DAF4610078F366F5610074F367F57F
:1077700064516625D96E65516721DA6E610080F526
:10778000DFF420EE02F06251D9266351DA22DE2ABC
:10779000000EDD221200060122A1D1EF3BF0D3EF53
:1077A0003BF0DDEF3BF072C569F573C56AF570C556
:1077B0006BF571C56CF532EC41F0050175BFE3EF77
:1077C0003BF0E5EF3BF0EBEF3BF074C579F575C5A9
:1077D0007AF5EFEF3BF0000E7A6F000E796F000E36
:1077E000786F000E776F02EF3CF0000E616F200E95
:1077F000606F70C562F571C563F55EEC3BF0050125
:10780000774B782B7951775D7851800A766F7A5172
:10781000800A7659D8A00FEF3CF011EF3CF0F5EF5D
:107820003BF0060122B117EF3CF019EF3CF023EFDB
:107830003CF072C569F573C56AF570C56BF571C525
:107840006CF532EC41F072C560F573C561F5DFECA3
:1078500041F0050179516025706F7A516121716F96
:107860001200480E06012725D96EDA6A050EDA22C3
:10787000000EDF6E0201B2A740EF3CF042EF3CF099
:1078800057EF3CF0480E06012725D96EDA6A050E3F
:10789000DA22DF8202D857EF3CF00500FA6ED351AE
:1078A000FD6ED451FE6ED551FF6EFA5012000201EA
:1078B000B2A35DEF3CF05FEF3CF074EF3CF0480E9C
:1078C00006012725D96EDA6A050EDA22DF8402D88E
:1078D00074EF3CF00500FA6ED051FD6ED151FE6E92
:1078E000D251FF6EFA501200480E06012725D96EBC
:1078F000DA6A050EDA22DF50D8B481EF3CF083EF6C
:107900003CF092EF3CF002D890EF3CF00500FA6EAC
:10791000CD51FD6ECE51FE6ECF51FF6EFA5012006A
:1079200094EF3CF013EC43F01200000E0501656F7C
:1079300063BF9FEF3CF09DEF3CF0A5EF3CF0626D24
:10794000631FD8B0632B010E656F61BFACEF3CF0D5
:10795000AAEF3CF0B2EF3CF0606D611FD8B0612B34
:10796000010E651B000E676F000E666F625163119A
:10797000D8B4BDEF3CF0BFEF3CF0E7EF3CF0010EB8
:10798000646FC7EF3CF0D89062376337642B63AF06
:10799000CCEF3CF0CEEF3CF0C3EF3CF0D890663734
:1079A00067376251605D63516159D8A0DAEF3CF0EE
:1079B000DCEF3CF0E1EF3CF06251605F6351615BF2
:1079C0006681D89063336233642FCEEF3CF065510B
:1079D000D8B4EDEF3CF0EFEF3CF0F3EF3CF0666D28
:1079E000671FD8B0672B66C560F567C561F51200E3
:1079F000A290620E0701986F780E996F000E9A6F31
:107A0000C6EC43F0A292F40E0701986F820E996FB4
:107A1000000E9A6FBFEC43F0000E0201A56F000E3E
:107A2000A66F000EA76F000EA86F000EA96F000EC4
:107A3000AA6FB00EAB6F800EAC6F000EAD6F8A0EEA
:107A4000AE6F000EAF6F000EB06F000EB16F000E84
:107A5000B26F000EB36FEA0E0701986F870E996F31
:107A6000000E9A6FD4EC43F0E80E0701986F870E72
:107A7000996F000E9A6FCDEC43F0DE0E0701986F00
:107A8000870E996F000E9A6FDBEC43F0000E060133
:107A9000266F000E296F000E286F080EDE6F000E95
:107AA000276F000E596E000E586EA2801200000E55
:107AB0000501656F61BF61EF3DF05FEF3DF067EF7E
:107AC0003DF0606D611FD8B0612B010E656F63BF23
:107AD0006EEF3DF06CEF3DF072EF3DF0626D631FB5
:107AE000D8B0632B62516311D8B479EF3DF07BEFCE
:107AF0003DF09FEF3DF0010E646F83EF3DF0D890B5
:107B000062376337642B63AF88EF3DF08AEF3DF057
:107B10007FEF3DF06251605D63516159D8A093EFF2
:107B20003DF095EF3DF099EF3DF06251605F63519C
:107B3000615BD89063336233642F8AEF3DF0655107
:107B4000D8B4A5EF3DF0A7EF3DF0ABEF3DF0606D91
:107B5000611FD8B0612B60C560F561C561F5120089
:107B6000000EC26E000EC16E000EBE6E000EC36E21
:107B7000000EBF6E000EC06E040ECA6EF20ECB6E0B
:107B8000C668C768C868C96804011869FE0E106F26
:107B90000869040E206FF00E286F0069000E196F3F
:107BA000000E296F000E216F000E096F000E016F8D
:107BB000000E116F000E0201896F000E886F000E1B
:107BC000876F000E866F000E0401226F000E2A6F71
:107BD000000E026F000E0A6F000E126F000E1A6F79
:107BE00003690B6913691B69070E236F2B6904690D
:107BF0000C6914691C690F0E246F2C69100E0201A8
:107C0000426F200E296F290E726F150E2B6F120016
:107C1000000E05016015686F000E6115696F800E1A
:107C200062156A6F7F0E63156B6F685169116A1177
:107C30006B11D8A41EEF3EF020EF3EF028EF3EF08F
:107C4000000E606F000E616F000E626F000E636FBA
:107C5000000E6415686F000E6515696F800E66155D
:107C60006A6F7F0E67156B6F685169116A116B112E
:107C7000D8A43DEF3EF03FEF3EF047EF3EF0000E60
:107C8000646F000E656F000E666F000E676F6451C3
:107C900060190FE1655161190CE16651621909E142
:107CA00067516319D8B457EF3EF059EF3EF05CEFDF
:107CB0003EF0D8905DEF3EF0D8801200000E011427
:107CC000096E000E02140A6E800E03140B6E7F0EF6
:107CD00004140C6E09500A100B100C10D8A473EF8A
:107CE0003EF075EF3EF07DEF3EF0000E016E000EAF
:107CF000026E000E036E000E046E000E0514096E77
:107D0000000E06140A6E800E07140B6E7F0E081408
:107D10000C6E09500A100B100C10D8A492EF3EF014
:107D200094EF3EF09CEF3EF0000E056E000E066EE6
:107D3000000E076E000E086E055001180FE1065088
:107D400002180CE10750031809E108500418D8B4D0
:107D5000ACEF3EF0AEEF3EF0B1EF3EF0D890B2EFB8
:107D60003EF0D8801200070120EE1CF09851D92671
:107D70009951DA22000EDE6E000EDE6E000EDE6E0F
:107D8000000EDD6E20EE20F09851D9269951DA22AE
:107D9000000EDE6E000EDE6E000EDE6E000EDD6E7C
:107DA00020EE28F09851D9269951DA22000EDE6E85
:107DB000000EDE6E000EDE6E000EDD6E20EE2CF08C
:107DC0009851D9269951DA22000EDE6E000EDE6E31
:107DD000000EDE6E000EDD6E20EE30F09851D926DA
:107DE0009951DA22000EDE6E000EDE6E000EDE6E9F
:107DF000000EDD6E1200010E076ED00E036EFF0E38
:107E0000046E01C505F502C506F5035005260450AC
:107E10000622065009E10A0E055CD8A012EF3FF0D9
:107E200014EF3FF02FEF3FF09F0E036EFF0E046E36
:107E3000200E0110056E000E0210066E035005267E
:107E400004500622065009E1060E055CD8A02BEF6F
:107E50003FF02DEF3FF02FEF3FF0000E076E07C50C
:107E600001F5026A1200BEC6DEF5BFC6DFF5000EE0
:107E700006011D6F000E1C6F51EF3FF0BCC6B6F639
:107E8000BDC6B7F6DE0EB86F050EB96FC0C6BAF63E
:107E9000C1C6BBF6AFEC25F00601B6511C27B751A1
:107EA0001D23610078F7F6F461007CF7F7F4000E0B
:107EB000F86E0800F5500009D8A461EF3FF063EFB9
:107EC0003FF03EEF3FF01CC6BCF61DC6BDF61200EB
:107ED000000E096E000E0A6E000E0B6E000E0C6E88
:107EE00001A075EF3FF077EF3FF07FEF3FF00550D7
:107EF000092606500A2207500B2208500C22D8905F
:107F00000536063607360836D89004320332023278
:107F100001320150021003100410D8A492EF3FF078
:107F200094EF3FF070EF3FF009C501F50AC502F587
:107F30000BC503F50CC504F5120062C566F563C5F3
:107F400067F560C568F561C569F505016651646F3F
:107F50006751656F664B672B610090F5F6F4610021
:107F600094F5F7F4000EF86E6100A0F5D9F4610005
:107F7000A4F5DAF4684B692B250EF76403D00800EA
:107F8000F55005D0F6C4E1F4F7C4E2F4E750DF6E33
:107F9000DF50D8A4CEEF3FF0D0EF3FF0A5EF3FF099
:107FA0001200BF0E0501686FFF0E696F66C56AF5A6
:107FB00067C56BF568516A2769516B236B510AE1FC
:107FC0001A0E6A5DD8A0E7EF3FF0EAEF3FF0010E2E
:107FD000EBEF3FF0000E6C6F6D6B6C516D11D8B410
:107FE000F4EF3FF0F6EF3FF0FDEF3FF0200E6611AB
:107FF000666F6751676F01EF40F066C566F567C54C
:1080000067F512000501606F0601DE51D8B40BEF71
:1080100040F00DEF40F004EF40F0A2B212EF40F05C
:1080200014EF40F019EF40F0610080F5A3F22FEF5C
:1080300040F0A292080E2925D96EDA6A060EDA22DD
:10804000610080F5DFF4292B070E29652AEF40F047
:108050002CEF40F02EEF40F0000E296FDE07A282D9
:1080600012009F0E096EFF0E0A6E07C50BF508C5BC
:108070000CF509500B260A500C220C500AE11A0E7E
:108080000B5CD8A046EF40F049EF40F0010E4AEFFC
:1080900040F0000E0D6E0E6A0D500E10D8B453EF66
:1080A00040F055EF40F05BEF40F05F0E0714076EB5
:1080B000086A5FEF40F007C507F508C508F512002C
:1080C000C60E0501E06F060EE16FC2C6E2F5C3C63B
