:040000000DEF00F010
:04000800BBEF35F025
:06001800FF00F7EF39F0D4
:1025000000494E46494E49545900696E66696E69E4
:10251000747900252E32660A0D00494E46004E4160
:102520004E00696E66006E616E006C660000515070
:102530005210D8B49EEF12F0A0EF12F0B0EF12F0EC
:10254000610044F5D9F4610048F5DAF461003CF526
:10255000DEF4610040F5DDF4B0EF12F04F4A502A8E
:10256000010E0501706F61003CF5D9F4610040F582
:10257000DAF4200EDE18D8B4C0EF12F0C3EF12F078
:10258000010EC4EF12F0000E756F766B7551761167
:10259000D8A4CDEF12F0CFEF12F0F3EF12F0F70E58
:1025A000536EFF0E546E61003CF5D9F4610040F5A6
:1025B000DAF4DF50556E5550756F766B75C556F56C
:1025C00076C557F55350562654505722575009E1B7
:1025D000050E565CD8A0EFEF12F0F1EF12F0F3EF1A
:1025E00012F0000E706F70C560F5616B6051611183
:1025F000D8A4FDEF12F0FFEF12F0AEEF12F0000ED4
:10260000726F2D0E75197611D8A409EF13F00BEF28
:1026100013F011EF13F0010E726F4F4A502A1DEFA5
:1026200013F02B0E75197611D8A419EF13F01BEFC8
:1026300013F01DEF13F00DEF13F0000E7B6F22EF80
:1026400013F07B2B7B514F24D96E000E5020DA6E95
:10265000DF50D8B42EEF13F030EF13F066EF13F025
:102660007B514F24D96E000E5020DA6EDF50536E2E
:102670000A0E7B25F66EF76A250EF722F86A000E21
:10268000F8220800F5505318D8B449EF13F04BEF77
:1026900013F021EF13F07B514F24D96E000E502020
:1026A000DA6EDF50536E010E7B25F66EF76A250E4B
:1026B000F722F86A000EF8220800F5505318D8B433
:1026C00064EF13F066EF13F021EF13F0020E7B6559
:1026D0006CEF13F06EEF13F09EEF13F0000E776FB8
:1026E000000E786F800E796F7F0E7A6F5150521006
:1026F000D8B47DEF13F07FEF13F075EF1BF0080EE9
:102700007B19D8B486EF13F088EF13F08AEF13F03B
:10271000030E7B6F7B514F24536E000E5020546E7E
:10272000610044F5D9F4610048F5DAF461004CF534
:10273000DEF4610050F5DDF475EF1BF0000E7B6FE9
:10274000A3EF13F07B2B7B514F24D96E000E50204A
:10275000DA6EDF50D8B4AFEF13F0B1EF13F0E7EF5C
:1027600013F07B514F24D96E000E5020DA6EDF50EB
:10277000536E260E7B25F66EF76A250EF722F86A51
:10278000000EF8220800F5505318D8B4CAEF13F021
:10279000CCEF13F0A2EF13F07B514F24D96E000E53
:1027A0005020DA6EDF50536E1E0E7B25F66EF76AF0
:1027B000250EF722F86A000EF8220800F55053188B
:1027C000D8B4E5EF13F0E7EF13F0A2EF13F0030E28
:1027D0007B19D8A4EEEF13F0F0EF13F065EF14F0CF
:1027E000190E016E250E026E67EC3CF001C577F5FF
:1027F00002C578F503C579F504C57AF55150521034
:10280000D8B405EF14F007EF14F075EF1BF00501D5
:102810007B514F26000E502261003CF5D9F4610037
:1028200040F5DAF4280EDE18D8A419EF14F01BEFE7
:1028300014F057EF14F0000E7B6F20EF14F07B2B99
:102840007B514F24D96E000E5020DA6EDF50D8B481
:102850002CEF14F02EEF14F03DEF14F07B514F24C9
:10286000D96E000E5020DA6E290EDE18D8A43BEF88
:1028700014F03DEF14F01FEF14F07B514F24D96E8C
:10288000000E5020DA6E290EDE18D8A44AEF14F09C
:102890004CEF14F057EF14F07B51536E546A010E55
:1028A0005326000E542253504F265450502261009C
:1028B00044F5D9F4610048F5DAF461003CF5DEF442
:1028C000610040F5DDF475EF1BF0000E766F000E31
:1028D000756F000E776F000E786F000E796F000E27
:1028E0007A6F000E746F000E736F000E7B6F7AEFBD
:1028F00014F07B2B7B514F24D96E000E5020DA6EE2
:10290000300EDE18D8B487EF14F089EF14F079EFA9
:1029100014F07B51D8B48FEF14F091EF14F032EF34
:1029200018F07B514F24D96E000E5020DA6E780ECD
:10293000DE18D8B49EEF14F0A0EF14F0AFEF14F04F
:102940007B514F24D96E000E5020DA6E580EDE18DF
:10295000D8A4ADEF14F0AFEF14F032EF18F07B51C4
:10296000536E546A010E5326000E542253504F26C4
:1029700054505022000E7B6FBFEF14F07B2B7B5125
:102980004F24D96E000E5020DA6E300EDE18D8B407
:10299000CCEF14F0CEEF14F0BEEF14F0000E7B6F0E
:1029A0007B514F24D96E000E5020DA6E700EDE1867
:1029B000D8B4DDEF14F0DFEF14F070EF16F07B51B8
:1029C0004F24D96E000E5020DA6E500EDE18D8A4B7
:1029D000ECEF14F0EEEF14F0F0EF14F070EF16F0EF
:1029E0007B514F24D96E000E5020DA6E2E0EDE1869
:1029F000D8A4FDEF14F0FFEF14F003EF15F0728987
:102A00007B2B70EF16F07B514F24D96E000E5020B7
:102A1000DA6EDF50536E5350016E026A95EC38F057
:102A200001500210D8B417EF15F019EF15F096EF1A
:102A300015F0000E0501716FD00E536EFF0E546E2F
:102A40007B514F24D96E000E5020DA6EDF50556E48
:102A5000566A535055265450562256500AE10A0ED3
:102A6000555CD8A036EF15F039EF15F0010E3AEFAE
:102A700015F0000E626F636B62516311D8B443EFBF
:102A800015F045EF15F050EF15F07B514F24D96E3E
:102A9000000E5020DA6EDF50D00F716F61EF15F02D
:102AA0007B514F24D96E000E5020DA6EDF50536EEA
:102AB0005350076E086A9AEC39F00750C90F0501A8
:102AC000716F76BF6FEF15F0765107E1080E755DF7
:102AD000D8B06DEF15F06FEF15F08EEF15F0755162
:102AE0000708536ED8905336D890533671C554F5B5
:102AF000556A566A576A532A83EF15F0D8905436B0
:102B0000553656365736532E7EEF15F05450771300
:102B1000555078135650791357507A13754B762BBE
:102B2000040E7327000E7423A0EF15F0000E4F6EF5
:102B3000000E506E000E516E000E526E97EF1BF09D
:102B40007B2BD0EF14F07B514F24D96E000E502018
:102B5000DA6E700EDE18D8B4B0EF15F0B2EF15F0E3
:102B600077EF16F07B514F24D96E000E5020DA6EAD
:102B7000500EDE18D8A4BFEF15F0C1EF15F0C3EF6B
:102B800015F077EF16F07B514F24D96E000E5020D0
:102B9000DA6E300EDE18D8A4D0EF15F0D2EF15F0B3
:102BA000E1EF15F075517611D8A4D9EF15F0DBEFF0
:102BB00015F0E1EF15F0FC0E7327FF0E74236EEF96
:102BC00016F07B514F24D96E000E5020DA6EDF5084
:102BD000536E5350016E026A95EC38F001500210AA
:102BE000D8B4F5EF15F0F7EF15F06EEF16F0000E14
:102BF0000501716FD00E536EFF0E546E7B514F2442
:102C0000D96E000E5020DA6EDF50556E566A535062
:102C100055265450562256500AE10A0E555CD8A04B
:102C200014EF16F017EF16F0010E18EF16F0000E65
:102C3000646F656B64516511D8B421EF16F023EF12
:102C400016F02EEF16F07B514F24D96E000E502057
:102C5000DA6EDF50D00F716F3FEF16F07B514F24CB
:102C6000D96E000E5020DA6EDF50536E5350076E4F
:102C7000086A9AEC39F00750C90F0501716F76BFE9
:102C80004DEF16F0765107E1080E755DD8B04BEFA9
:102C900016F04DEF16F06CEF16F075510708536EF5
:102CA000D8905336D890533671C554F5556A566A44
:102CB000576A532A61EF16F0D89054365536563677
:102CC0005736532E5CEF16F0545077135550781347
:102CD0005650791357507A13754B762B05017B2B81
:102CE00072B975EF16F077EF16F0A3EF15F07B5180
:102CF0004F24D96E000E5020DA6E700EDE18D8B454
:102D000084EF16F086EF16F09FEF16F07B514F24FC
:102D1000D96E000E5020DA6E500EDE18D8B493EF44
:102D200016F095EF16F09FEF16F0000E4F6E000EA6
:102D3000506E000E516E000E526E97EF1BF07B2B03
:102D40007B514F24D96E000E5020DA6E2B0EDE1808
:102D5000D8A4ADEF16F0AFEF16F0B2EF16F07B2B64
:102D6000C3EF16F07B514F24D96E000E5020DA6E5F
:102D70002D0EDE18D8A4BFEF16F0C1EF16F0C3EF8A
:102D800016F072877B2B7B514F26000E5022000ECF
:102D90007B6FCCEF16F07B2B7B514F24D96E000E4E
:102DA0005020DA6E300EDE18D8B4D9EF16F0DBEF13
:102DB00016F0CBEF16F0000E766F000E756F0EEF6B
:102DC00017F07B51D8B4E7EF16F0E9EF16F0F7EF04
:102DD00016F075C501F576C502F5000E046E0A0EF3
:102DE000036E1AEC3CF001C575F502C576F5D00E00
:102DF000536EFF0E546E05017B514F24D96E000EA9
:102E00005020DA6EDF50556E566A53505526545096
:102E1000562255507527565076237B2BD00E536E75
:102E2000FF0E546E7B514F24D96E000E5020DA6E87
:102E3000DF50556E566A5350552654505622565000
:102E40000AE10A0E555CD8A028EF17F02BEF17F017
:102E5000010E2CEF17F0000E666F676B665167115D
:102E6000D8A435EF17F037EF17F0E1EF16F07B51EC
:102E7000D8A43DEF17F03FEF17F049EF17F0000E21
:102E80004F6E000E506E000E516E000E526E97EF98
:102E90001BF072A74EEF17F050EF17F054EF17F03A
:102EA000756D761FD8B0762B7551732776517423C4
:102EB00051505210D8B45FEF17F061EF17F073EF75
:102EC00017F07B514F24536E000E5020546E61005A
:102ED00044F5D9F4610048F5DAF461004CF5DEF40C
:102EE000610050F5DDF47751781179117A11D8A489
:102EF0007CEF17F07EEF17F088EF17F0000E4F6EA3
:102F0000000E506E000E516E000E526E97EF1BF0C9
:102F1000FF0E7715536E000E7815546E000E79155E
:102F2000556E000E7A15566E56505510541009E124
:102F3000810E535CD8A09FEF17F0A1EF17F0B3EF0D
:102F400017F0000E7727010E7823000E7923000E6C
:102F50007A23B3EF17F0D8907737783779377A3705
:102F60007307D8A074077AAFB8EF17F0BAEF17F06D
:102F7000ABEF17F074AFC6EF17F0830E735DFF0E63
:102F80007459D8B0C6EF17F0C8EF17F0D4EF17F0A8
:102F9000FF0E746F810E736F000E776F000E786FE7
:102FA000000E796F000E7A6F810E731908E1742993
:102FB000D8B4DDEF17F0DFEF17F0E7EF17F0D89098
:102FC0007737783779377A377307D8A0740774BFA3
:102FD000F3EF17F0745109E1800E735DD8A0F3EFA1
:102FE00017F0F5EF17F001EF18F0000E776F000EF5
:102FF000786F000E796F000E7A6F000E746F800E7E
:10300000736F090E536ED8907A33793378337733F0
:10301000532E03EF18F0FF0E7717FF0E78177F0E71
:103020007917000E7A177F0E7325536E000E7421E8
:10303000546EFF0E5314556E566A576A586A170E2F
:10304000D8905536563657365836E82E20EF18F0B9
:1030500055507713565078135750791358507A13A8
:1030600075EF1BF072B937EF18F039EF18F04DEF2C
:1030700018F061003CF5D9F4610040F5DAF42E0E49
:10308000DE18D8A446EF18F048EF18F04DEF18F00E
:1030900072894F4A502A32EF18F0D00E536EFF0E4D
:1030A000546E61003CF5D9F4610040F5DAF4DF506C
:1030B000556E566A535055265450562256500AE1C2
:1030C0000A0E555CD8A067EF18F06AEF18F0010EF1
:1030D0006BEF18F0000E686F696B68516911D8A426
:1030E00074EF18F076EF18F078EF18F0C9EF18F0D9
:1030F0007283090E75197611D8B481EF18F083EF39
:1031000018F0BCEF18F072A988EF18F08AEF18F0E9
:103110008DEF18F07307D8A07407754B762B77C521
:1031200001F578C502F579C503F57AC504F50A0EEF
:10313000056E000E066E000E076E000E086ECDECDA
:1031400038F001C577F502C578F503C579F504C5F2
:103150007AF561003CF5D9F4610040F5DAF4DF500E
:10316000536ED00E5326535005017727000E782357
:1031700079237A23C5EF18F072B9C1EF18F0C3EFC5
:1031800018F0C5EF18F0734B742B4F4A502A32EFEA
:1031900018F0000E766F000E756F61003CF5D9F4E3
:1031A000610040F5DAF4650EDE18D8B4DAEF18F0F5
:1031B000DCEF18F0EBEF18F061003CF5D9F461009A
:1031C00040F5DAF4450EDE18D8A4E9EF18F0EBEF7D
:1031D00018F0EFEF19F04F4A502A61003CF5D9F48E
:1031E000610040F5DAF42D0EDE18D8A4FAEF18F0DD
:1031F000FCEF18F001EF19F072874F4A502A12EFD6
:1032000019F061003CF5D9F4610040F5DAF42B0EB9
:10321000DE18D8A40EEF19F010EF19F012EF19F024
:103220004F4A502A61003CF5D9F4610040F5DAF4C8
:10323000300EDE18D8B41FEF19F021EF19F010EF9F
:1032400019F0D00E536EFF0E546E61003CF5D9F4A8
:10325000610040F5DAF4DF50556E566A535055263A
:103260005450562256500AE10A0E555CD8A03BEF46
:1032700019F03EEF19F0010E3FEF19F0000E0501B5
:103280006A6F6B6B6A516B11D8B449EF19F04BEF51
:1032900019F0E4EF19F061003CF5D9F4610040F554
:1032A000DAF4DF50536ED00E53265350756F766BA1
:1032B0004F4A502AD00E536EFF0E546E61003CF5FB
:1032C000D9F4610040F5DAF4DF50556E566A535078
:1032D00055265450562256500AE10A0E555CD8A085
:1032E00074EF19F077EF19F0010E78EF19F0000E76
:1032F0006C6F6D6B6C516D11D8B481EF19F083EF69
:1033000019F0E4EF19F061003CF5D9F4610040F5E3
:10331000DAF4DF50536ED00E532675C501F576C52D
:1033200002F5000E046E0A0E036E1AEC3CF05350C8
:1033300001240501756F000E0220766F4F4A502A56
:10334000D00E536EFF0E546E61003CF5D9F461004F
:1033500040F5DAF4DF50556E566A535055265450F6
:10336000562256500AE10A0E555CD8A0BAEF19F061
:10337000BDEF19F0010EBEEF19F0000E6E6F6F6B0E
:103380006E516F11D8B4C7EF19F0C9EF19F0E4EF1F
:1033900019F061003CF5D9F4610040F5DAF4DF5032
:1033A000536ED00E532675C501F576C502F5000E95
:1033B000046E0A0E036E1AEC3CF053500124050112
:1033C000756F000E0220766F72A7E9EF19F0EBEF30
:1033D00019F0EFEF19F0756D761FD8B0762B755197
:1033E00073277651742351505210D8B4FAEF19F064
:1033F000FCEF19F00FEF1AF072A301EF1AF003EFD0
:103400001AF00FEF1AF0610044F5D9F4610048F5A5
:10341000DAF461003CF5DEF4610040F5DDF477C5D7
:1034200001F578C502F579C503F57AC504F5000EF6
:10343000F4EC30F001C577F502C578F503C579F5F0
:1034400004C57AF577C501F578C502F579C503F5A8
:103450007AC504F5000E056E000E066E000E076EAE
:10346000000E086EF8EC37F0D8A039EF1AF03BEFF9
:103470001AF045EF1AF0000E4F6E000E506E000E5F
:10348000516E000E526E97EF1BF0050174BF4DEFA9
:103490001AF04BEF1AF0DEEF1AF0736D741FD8B00C
:1034A000742B72EF1AF077C536F578C537F579C504
:1034B00038F57AC539F5F90E3A6E020E3B6E150EE7
:1034C0003C6E500E3D6E37EC2CF036C577F537C5A7
:1034D00078F538C579F539C57AF50501F60E732703
:1034E000FF0E742374BF80EF1AF0745107E10A0EC7
:1034F000735DD8B07EEF1AF080EF1AF053EF1AF038
:10350000A0EF1AF077C536F578C537F579C538F5E7
:103510007AC539F5000E3A6E000E3B6E200E3C6EF9
:10352000410E3D6E37EC2CF036C577F537C578F592
:1035300038C579F539C57AF505017307D8A0740740
:1035400073517411D8A4A7EF1AF0A9EF1AF082EF03
:103550001AF077C52AF578C52BF579C52CF57AC50B
:103560002DF5000E2E6E000E2F6E800E306E000EAA
:10357000316ED1EC33F0D8B0C0EF1AF0C2EF1AF0D0
:1035800075EF1BF0050172A1C8EF1AF0CAEF1AF02F
:10359000D4EF1AF0000E4F6E000E506E800E516E7A
:1035A000800E526E97EF1BF0000E4F6E000E506EA5
:1035B000800E516E000E526E97EF1BF074BFE9EF54
:1035C0001AF0745108E17305D8A0E9EF1AF0EBEF97
:1035D0001AF075EF1BF00CEF1BF077C511F578C5ED
:1035E00012F579C513F57AC514F5F90E156E020EAC
:1035F000166E150E176E500E186E10EC2AF011C5CF
:1036000077F512C578F513C579F514C57AF5050176
:10361000F60E7327FF0E7423745107E10A0E735DD3
:10362000D8B015EF1BF017EF1BF0EDEF1AF037EFE6
:103630001BF077C511F578C512F579C513F57AC574
:1036400014F5000E156E000E166E200E176E410E4C
:10365000186E10EC2AF011C577F512C578F513C570
:1036600079F514C57AF505017307D8A0740773516D
:103670007411D8A43EEF1BF040EF1BF019EF1BF0C4
:10368000FF0E2A6EFF0E2B6E7F0E2C6E7F0E2D6EA0
:1036900077C52EF578C52FF579C530F57AC531F5A2
:1036A000D1EC33F0D8B057EF1BF059EF1BF075EFAA
:1036B0001BF0050172A15FEF1BF061EF1BF06BEFD8
:1036C0001BF0000E4F6E000E506E800E516E800E7D
:1036D000526E97EF1BF0000E4F6E000E506E800E74
:1036E000516E000E526E97EF1BF0050172A17BEF39
:1036F0001BF07DEF1BF08FEF1BF077C532F578C51F
:1037000033F579C534F57AC535F5B4EC3BF032C5FF
:1037100077F533C578F534C579F535C57AF577C5CC
:103720004FF578C550F579C551F57AC552F51200B7
:10373000000E05018A6F000E896F5BC59BF55CC5A5
:103740009CF55DC59DF55EC59EF59EBFACEF1BF07B
:10375000AAEF1BF0C2EF1BF0000E8A6F010E896FFB
:103760009BC532F59CC533F59DC534F59EC535F531
:10377000B4EC3BF032C59BF533C59CF534C59DF5E3
:1037800035C59EF5000E0501A26F000EA16FEDC5B7
:103790008DF5EEC58EF589518A11D8A4D2EF1BF0B4
:1037A000D4EF1BF0DBEF1BF0F1A5D9EF1BF0DBEF43
:1037B0001BF0F5EF1BF089518A11D8A4E2EF1BF042
:1037C000E4EF1BF0EAEF1BF0000E706F2B0E6F6F33
:1037D000EEEF1BF0000E706F2D0E6F6F6FC525F6AC
:1037E000A14BA22B8D07D8A08E079BC501F59CC5C8
:1037F00002F59DC503F59EC504F553EC34F00104B4
:103800000210D8A406EF1CF008EF1CF05FEF1CF0CC
:10381000BF0E05016A6FFF0E6B6F5F506C6F6D6BB3
:103820006A516C276B516D236D510AE11A0E6C5D64
:10383000D8A01DEF1CF020EF1CF0010E21EF1CF0B2
:10384000000E716F726B71517211D8B42AEF1CF0B7
:103850002CEF1CF03AEF1CF0250EA125016E060E90
:10386000A221026E1A0E036E250E046E37EC39F09B
:1038700046EF1CF0250EA125016E060EA221026E58
:10388000220E036E250E046E37EC39F00501FD0E95
:103890008D27FF0E8E2359C511F55AC512F5250E39
:1038A000136E060E146E8DC515F58EC516F522EC39
:1038B00036F011C559F512C55AF5C5EF21F09BC573
:1038C00001F59CC502F59DC503F59EC504F553ECB5
:1038D00034F001500210D8A470EF1CF072EF1CF00D
:1038E000B2EF1CF0BF0E05016A6FFF0E6B6F5F50E9
:1038F0006C6F6D6B6A516C276B516D236D510AE1D2
:103900001A0E6C5DD8A087EF1CF08AEF1CF0010E38
:103910008BEF1CF0000E736F746B73517411D8B47D
:1039200094EF1CF096EF1CF0A4EF1CF0250EA125DF
:10393000016E060EA221026E1E0E036E250E046E8F
:1039400037EC39F046EF1CF0250EA125016E060E6E
:10395000A221026E260E036E250E046E37EC39F09E
:1039600046EF1CF0000E0501A36F000EA46F800E41
:10397000A56F3F0EA66F000EA06F000E9F6F9BC538
:1039800001F59CC502F59DC503F59EC504F5000E25
:10399000056E000E066E000E076E000E086EF8EC47
:1039A00037F0D8B0D6EF1CF0D8EF1CF05BEF1DF06D
:1039B000F7EF1CF0A3C511F5A4C512F5A5C513F5C5
:1039C000A6C514F5000E156E000E166E200E176EAD
:1039D000410E186E10EC2AF011C5A3F512C5A4F51E
:1039E00013C5A5F514C5A6F505019F4BA02B9BC5D6
:1039F0002AF59CC52BF59DC52CF59EC52DF5000E11
:103A0000156E000E166E200E176E410E186EA3C5B1
:103A100011F5A4C512F5A5C513F5A6C514F510EC4E
:103A20002AF011C52EF512C52FF513C530F514C5B2
:103A300031F5D1EC33F0D8B020EF1DF022EF1DF0BE
:103A4000DAEF1CF042EF1DF0A3C536F5A4C537F53B
:103A5000A5C538F5A6C539F5000E3A6E000E3B6EC9
:103A6000200E3C6E410E3D6E37EC2CF036C5A3F5B2
:103A700037C5A4F538C5A5F539C5A6F505019F07D5
:103A8000D8A0A0079BC52AF59CC52BF59DC52CF594
:103A90009EC52DF5A3C52EF5A4C52FF5A5C530F5FA
:103AA000A6C531F5D1EC33F0D8A059EF1DF05BEF8E
:103AB0001DF024EF1DF05FC507F5086A6AEC39F0C8
:103AC00007500501906F90C58FF5670E9019D8A427
:103AD0006CEF1DF06EEF1DF094EF1DF0EF51F01143
:103AE000D8A475EF1DF077EF1DF07BEF1DF0000EF1
:103AF000F06F010EEF6FF0BF88EF1DF0F05106E19F
:103B0000EF05D8B086EF1DF088EF1DF08EEF1DF0A9
:103B1000000E8C6F060E8B6F9DEF1DF0EFC58BF5C1
:103B2000F0C58CF59DEF1DF0F0BF99EF1DF09BEFF8
:103B30001DF088EF1DF08EEF1DF0670E9019D8A4D0
:103B4000A4EF1DF0A6EF1DF0D5EF1DF0A0AFB4EF70
:103B50001DF0FC0E9F5DFF0EA059D8A0B2EF1DF026
:103B6000B4EF1DF0D3EF1DF0FF0E6A6FFF0E6B6F09
:103B70008BC56CF58CC56DF56A516C276B516D2347
:103B80009F516C5D6D51800A6E6FA051800A6E5915
:103B9000D8A0CDEF1DF0CFEF1DF0D3EF1DF0660ED6
:103BA0008F6FD5EF1DF0650E8F6F8BC581F58CC5BE
:103BB00082F5670E9019D8A4E0EF1DF0E2EF1DF03A
:103BC000F2EF1DF0660E8F19D8A4E9EF1DF0EBEFB0
:103BD0001DF0F4EF1DF0A0BFF2EF1DF0F0EF1DF0AF
:103BE000F4EF1DF0814B822B660E8F19D8A4FBEFEA
:103BF0001DF0FDEF1DF01DEF1EF0A0BF04EF1EF045
:103C000002EF1EF010EF1EF0000EA36F000EA46F67
:103C1000800EA56F3F0EA66F000EA06F000E9F6F67
:103C2000670E9019D8B417EF1EF019EF1EF01DEFB4
:103C30001EF09F518127A0518223000E9A6F000E23
:103C4000996F9BC591F59CC592F59DC593F59EC551
:103C500094F5A3C583F5A4C584F5A5C585F5A6C5CA
:103C600086F5AEEF1EF091C536F592C537F593C5D2
:103C700038F594C539F5A3C53AF5A4C53BF5A5C5F6
:103C80003CF5A6C53DF537EC2CF036C54FF537C5EC
:103C900050F538C551F539C552F504EC2EF04FC535
:103CA00095F550C596F551C597F552C598F595C54A
:103CB00001F596C502F597C503F598C504F54EECD8
:103CC00033F001C587F502C588F591C52AF592C57F
:103CD0002BF593C52CF594C52DF5A3C515F5A4C5F5
:103CE00016F5A5C517F5A6C518F595C511F596C520
:103CF00012F597C513F598C514F510EC2AF011C507
:103D00002EF512C52FF513C530F514C531F5BEECEF
:103D10003AF02AC591F52BC592F52CC593F52DC522
:103D200094F5A3C536F5A4C537F5A5C538F5A6C5E0
:103D300039F5000E3A6E000E3B6E200E3C6E410EC1
:103D40003D6E37EC2CF036C5A3F537C5A4F538C564
:103D5000A5F539C5A6F50501994B9A2B8151995DB9
:103D60009A51800A6A6F8251800A6A59D8A0BBEFC3
:103D70001EF0BDEF1EF033EF1EF0A3C511F5A4C574
:103D800012F5A5C513F5A6C514F5000E156E000EA7
:103D9000166EA00E176E400E186E10EC2AF011C5AC
:103DA00095F512C596F513C597F514C598F591C507
:103DB0002AF592C52BF593C52CF594C52DF595C51F
:103DC0002EF596C52FF597C530F598C531F5D1EC90
:103DD00033F0D8B0EEEF1EF0F0EF1EF0FBEF1EF068
:103DE000000E0501956F000E966F000E976F000E86
:103DF000986F24EF1FF091C501F592C502F593C5A8
:103E000003F594C504F595C505F596C506F597C562
:103E100007F598C508F5F8EC37F0D8A012EF1FF0B9
:103E200014EF1FF024EF1FF0050187B11AEF1FF008
:103E30001CEF1FF024EF1FF0000E956F000E966F21
:103E4000000E976F000E986F9BC501F59CC502F59B
:103E50009DC503F59EC504F595C505F596C506F502
:103E600097C507F598C508F5B0EC27F001C591F5A1
:103E700002C592F503C593F504C594F591C52AF5DD
:103E800092C52BF593C52CF594C52DF5000E156E36
:103E9000000E166E200E176E410E186E83C511F5BA
:103EA00084C512F585C513F586C514F510EC2AF006
:103EB00011C52EF512C52FF513C530F514C531F512
:103EC000D1EC33F0D8A067EF1FF069EF1FF092EF4D
:103ED0001FF005019F4BA02B83C511F584C512F57A
:103EE00085C513F586C514F5000E156E000E166E09
:103EF000200E176E410E186E10EC2AF011C583F5D6
:103F000012C584F513C585F514C586F5660E050141
:103F10008F19D8A48EEF1FF090EF1FF092EF1FF0D3
:103F2000814B822B83C5A3F584C5A4F585C5A5F572
:103F300086C5A6F5650E05018F19D8B4A2EF1FF04E
:103F4000A4EF1FF0AAEF1FF09FC57FF5A0C580F575
:103F5000AEEF1FF0000E806F000E7F6F000E7E6FC1
:103F6000000E7D6F000E7C6F000E7B6F000E9A6F4F
:103F7000000E996FA9EF20F091C536F592C537F57F
:103F800093C538F594C539F5A3C53AF5A4C53BF5F5
:103F9000A5C53CF5A6C53DF537EC2CF036C54FF56B
:103FA00037C550F538C551F539C552F504EC2EF03A
:103FB0004FC595F550C596F551C597F552C598F57D
:103FC00095C501F596C502F597C503F598C504F5A5
:103FD0004EEC33F001C587F502C588F50501F1B94E
:103FE000F4EF1FF0F6EF1FF013EF20F08751881168
:103FF000D8A4FDEF1FF0FFEF1FF013EF20F0670EC6
:104000009019D8A406EF20F008EF20F013EF20F06D
:1040100080BF0FEF20F00DEF20F013EF20F07B4B6F
:104020007C2B5DEF20F07D517E11D8A41AEF20F09B
:104030001CEF20F046EF20F080BF23EF20F021EFAF
:1040400020F046EF20F0250EA125D96E060EA22104
:10405000DA6E2E0EDF6EA14BA22B8D07D8A08E0735
:10406000000E7E6F010E7D6F46EF20F0250EA1251C
:10407000D96E060EA221DA6E300EDF6EA14BA22B96
:104080008D07D8A08E077B07D8A07C077B517C11B9
:10409000D8A44DEF20F04FEF20F036EF20F0250EA2
:1040A000A125D96E060EA221DA6E8751300FDF6E80
:1040B000A14BA22B8D07D8A08E0791C52AF592C5DA
:1040C0002BF593C52CF594C52DF5A3C515F5A4C501
:1040D00016F5A5C517F5A6C518F595C511F596C52C
:1040E00012F597C513F598C514F510EC2AF011C513
:1040F0002EF512C52FF513C530F514C531F5BEECFC
:104100003AF02AC591F52BC592F52CC593F52DC52E
:1041100094F5A3C536F5A4C537F5A5C538F5A6C5EC
:1041200039F5000E3A6E000E3B6E200E3C6E410ECD
:104130003D6E37EC2CF036C5A3F537C5A4F538C570
:10414000A5F539C5A6F505017F07D8A08007994BCD
:104150009A2B8151995D9A51800A6A6F8251800A27
:104160006A59D8B0B6EF20F0B8EF20F0C6EF20F0D3
:10417000A2BFC4EF20F0A25109E14B0EA15DD8A06F
:10418000C4EF20F0C6EF20F0BCEF1FF07D517E1190
:10419000D8A4CDEF20F0CFEF20F0E0EF20F0F1A990
:1041A000D4EF20F0D6EF20F0E0EF20F0250EA1258F
:1041B000D96E060EA221DA6E2E0EDF6EA14BA22B57
:1041C000250EA125D96E060EA221DA6E000EDF6E35
:1041D000650E8F19D8A4EFEF20F0F1EF20F04BEF30
:1041E0001CF0000E9A6F4F0E996F250E9925D96E0F
:1041F000060E9A21DA6E000EDF6E000E8A6F000E38
:10420000896FA0BF08EF21F006EF21F010EF21F039
:10421000000E8A6F010E896F9F6DA01FD8B0A02B72
:10422000000E8C6F020E8B6F41EF21F09907D8A022
:104230009A07250E9925D96E060E9A21DA6E9FC52A
:1042400001F5A0C502F5000E046E0A0E036EA0EC87
:1042500037F00150300FDF6E9FC501F5A0C502F5A4
:10426000000E046E0A0E036E85EC36F001C59FF554
:1042700002C5A0F505018B07D8A08C078D07D8A033
:104280008E079F51A011D8A448EF21F04AEF21F0EA
:1042900016EF21F08CBF57EF21F08C5106E18B0512
:1042A000D8B055EF21F057EF21F016EF21F0990724
:1042B000D8A09A0789518A11D8A461EF21F063EF41
:1042C00021F069EF21F0000E766F2B0E756F6DEF08
:1042D00021F0000E766F2D0E756F250E9925D96E83
:1042E000060E9A21DA6E6100D4F5DFF48D07D8A0AE
:1042F0008E079907D8A09A07BF0E6A6FFF0E6B6FE3
:104300005F506C6F6D6B6A516C276B516D236D51F3
:104310000AE11A0E6C5DD8A090EF21F093EF21F026
:10432000010E94EF21F0000E796F7A6B79517A11BA
:10433000D8A49DEF21F09FEF21F0A5EF21F0000E12
:10434000786F650E776FA9EF21F0000E786F450E3C
:10435000776F250E9925D96E060E9A21DA6E6100C7
:10436000DCF5DFF48D07D8A08E07250EA125016EA0
:10437000060EA221026E250E9925036E060E9A21C5
:10438000046E37EC39F04BEF1CF0120051C52AF5E2
:1043900052C52BF553C52CF554C52DF555C52EF535
:1043A00056C52FF557C530F558C531F5BEEC3AF076
:1043B0002AC574F52BC575F52CC576F52DC577F591
:1043C00061003CF5D9F4610040F5DAF4610078F35E
:1043D00011F5610078F312F5610078F313F56100CF
:1043E00078F314F574C515F575C516F576C517F58A
:1043F00077C518F510EC2AF020EE24F04F50D9269E
:104400005050DA22610044F4DEF4610048F4DEF436
:1044100061004CF4DEF4610050F4DEF4000E156E21
:10442000000E166E000E176E3F0E186E20EE04F092
:104430004F50D9265050DA22610078F311F561000F
:1044400078F312F5610078F313F5610078F314F551
:1044500010EC2AF011C56CF512C56DF513C56EF59B
:1044600014C56FF520EE18F04F50D9265050DA22BF
:10447000610078F315F5610078F316F5610078F3C3
:1044800017F5610078F318F56CC511F56DC512F5D7
:104490006EC513F56FC514F510EC2AF011C570F553
:1044A00012C571F513C572F514C573F570C515F510
:1044B00071C516F572C517F573C518F574C505F500
:1044C00075C506F576C507F577C508F520EE28F021
:1044D0004F50D9265050DA22610078F301F561007F
:1044E00078F302F5610078F303F5610078F304F5E1
:1044F000B0EC27F001C511F502C512F503C513F59F
:1045000004C514F510EC2AF011C560F512C561F56B
:1045100013C562F514C563F560C501F561C502F503
:1045200062C503F563C504F520EE20F04F50D9268F
:104530005050DA22610078F305F5610078F306F552
:10454000610078F307F5610078F308F5B0EC27F027
:1045500020EE20F04F50D9265050DA22610004F4AA
:10456000DEF4610008F4DEF461000CF4DEF46100B6
:1045700010F4DEF420EE18F04F50D9265050DA2215
:10458000610078F32EF5610078F32FF5610078F380
:1045900030F5610078F331F5000E156E000E166EE1
:1045A000000E176E400E186E20EE0CF04F50D926FC
:1045B0005050DA22610078F311F5610078F312F5BA
:1045C000610078F313F5610078F314F510EC2AF02C
:1045D00011C52AF512C52BF513C52CF514C52DF5FB
:1045E000BEEC3AF02AC56CF52BC56DF52CC56EF501
:1045F0002DC56FF5000E156E000E166E000E176EAF
:10460000400E186E20EE08F04F50D9265050DA2296
:10461000610078F311F5610078F312F5610078F329
:1046200013F5610078F314F510EC2AF011C570F55C
:1046300012C571F513C572F514C573F520EE2CF093
:104640004F50D9265050DA22610078F32EF56100E0
:1046500078F32FF5610078F330F5610078F331F5E8
:1046600055C52AF556C52BF557C52CF558C52DF55A
:10467000BEEC3AF02AC515F52BC516F52CC517F575
:104680002DC518F570C511F571C512F572C513F574
:1046900073C514F510EC2AF011C564F512C565F563
:1046A00013C566F514C567F520EE1CF04F50D926EA
:1046B0005050DA22610078F315F5610078F316F5B1
:1046C000610078F317F5610078F318F56CC511F502
:1046D0006DC512F56EC513F56FC514F510EC2AF013
:1046E00011C505F512C506F513C507F514C508F57E
:1046F00064C501F565C502F566C503F567C504F532
:10470000B0EC27F001C532F502C533F503C534F529
:1047100004C535F5B4EC3BF032C536F533C537F595
:1047200034C538F535C539F520EE18F04F50D92687
:104730005050DA22610078F305F5610078F306F550
:10474000610078F307F5610078F308F5000E156E47
:10475000000E166E000E176E400E186E20EE0CF056
:104760004F50D9265050DA22610078F311F56100DC
:1047700078F312F5610078F313F5610078F314F51E
:1047800010EC2AF011C501F512C502F513C503F5A9
:1047900014C504F5B0EC27F001C53AF502C53BF5A8
:1047A00003C53CF504C53DF537EC2CF020EE1CF0BC
:1047B0004F50D9265050DA226100D8F4DEF461005F
:1047C000DCF4DEF46100E0F4DEF46100E4F4DEF435
:1047D00020EE20F04F50D9265050DA22610078F3B5
:1047E00005F5610078F306F5610078F307F56100DF
:1047F00078F308F520EE24F04F50D9265050DA22F5
:10480000610078F301F5610078F302F5610078F357
:1048100003F5610078F304F5B0EC27F001C568F505
:1048200002C569F503C56AF504C56BF568C501F5F0
:1048300069C502F56AC503F56BC504F520EE1CF0E9
:104840004F50D9265050DA22610078F305F5610007
:1048500078F306F5610078F307F5610078F308F561
:10486000B0EC27F020EE30F04F50D9265050DA222D
:10487000610004F4DEF4610008F4DEF461000CF47D
:10488000DEF4610010F4DEF420EE10F04F50D92673
:104890005050DA22610078F32AF5610078F32BF5A5
:1048A000610078F32CF5610078F32DF520EE30F0FF
:1048B0004F50D9265050DA22610078F32EF561006E
:1048C00078F32FF5610078F330F5610078F331F576
:1048D000D1EC33F0D8B06FEF24F071EF24F087EF14
:1048E00024F020EE10F04F50D9265050DA2210EE6E
:1048F00030F04F50E1265050E222DEC4E6F4DEC430
:10490000E6F4DEC4E6F4DEC4E6F4C8EF24F020EEFC
:1049100030F04F50D9265050DA22610078F32AF552
:10492000610078F32BF5610078F32CF5610078F3E2
:104930002DF520EE14F04F50D9265050DA226100A8
:1049400078F32EF5610078F32FF5610078F330F5F8
:10495000610078F331F5D1EC33F0D8B0B2EF24F048
:10496000B4EF24F0C8EF24F020EE14F04F50D92615
:104970005050DA2210EE30F04F50E1265050E22233
:10498000DEC4E6F4DEC4E6F4DEC4E6F4DEC4E6F437
:1049900020EE28F04F50D9265050DA226100D0F591
:1049A000DEF46100D4F5DEF46100D8F5DEF46100D8
:1049B000DCF5DEF420EE2CF04F50D9265050DA22F0
:1049C000610054F5DEF4610058F5DEF461005CF539
:1049D000DEF4610060F5DEF420EE30F04F50D926B1
:1049E0005050DA22610078F34FF5610078F350F50A
:1049F000610078F351F5610078F352F5120061001F
:104A0000A4F6D9F46100A8F6DAF4DEC4F6F4DDC445
:104A1000F7F4000EF86E0800F550250AD8A413EF3D
:104A200025F015EF25F08EEF27F06100A4F6D9F4FC
:104A30006100A8F6DAF4DE2A000EDD22000E050180
:104A4000EE6F000EED6FEDC5F1F5EEC5F2F5EF6915
:104A5000F0696100A4F6D9F46100A8F6DAF4DEC4C6
:104A6000F6F4DDC4F7F4000EF86E0800F5502E0AD7
:104A7000D8A43DEF25F03FEF25F0D7EF25F0000E4D
:104A8000F06F000EEF6F6100A4F6D9F46100A8F694
:104A9000DAF4DE2A000EDD226100A4F6D9F461000A
:104AA000A8F6DAF4DEC4F6F4DDC4F7F4000EF86E0E
:104AB0000800F5502A0AD8A460EF25F062EF25F02F
:104AC00089EF25F06100A4F6D9F46100A8F6DAF4C4
:104AD000DE2A000EDD226100ACF6D9F46100B0F6EA
:104AE000DAF461007CF3ADF5020EDE2661007CF3A2
:104AF000AEF5000EDD226100B4F6D9F46100B8F61F
:104B0000DAF4610078F3EFF5610074F3F0F5D7EFB4
:104B100025F06100A4F6D9F46100A8F6DAF461008A
:104B200078F308F5610074F309F518EC30F008C566
:104B3000EFF509C5F0F5A6EF25F06100A4F6D9F46C
:104B40006100A8F6DAF4DE2A000EDD22D00E05019F
:104B5000AD6FFF0EAE6F6100A4F6D9F46100A8F648
:104B6000DAF4DEC4F6F4DDC4F7F4000EF86E0800E3
:104B7000F550AF6FB06BAD51AF27AE51B023B05110
:104B80000AE10A0EAF5DD8A0C8EF25F0CBEF25F003
:104B9000010ECCEF25F0000EB16FB26BB151B21126
:104BA000D8A4D5EF25F0D7EF25F09DEF25F06100D3
:104BB000A4F6D9F46100A8F6DAF4DEC4F6F4DDC494
:104BC000F7F4000EF86E0800F550076E086A6AECFC
:104BD00039F007500501B96FB951D8B4F2EF25F09B
:104BE000F4EF25F03EEF26F06100A4F6D9F4610061
:104BF000A8F6DAF4610078F3ADF5610074F3AEF570
:104C0000010EAD27000EAE236100B4F6F6F461008C
:104C1000B8F6F7F4000EF86E0800F550076E086A53
:104C20006AEC39F007500501BA6FBA51D8B41BEFDE
:104C300026F01DEF26F03EEF26F06100A4F6D9F431
:104C40006100A8F6DAF4610078F3ADF5610074F361
:104C5000AEF5020EAD27000EAE236100B4F6F6F4F9
:104C60006100B8F6F7F4000EF86E0800F550076E14
:104C7000086A6AEC39F007500501BB6F660EB91976
:104C8000D8A445EF26F047EF26F098EF26F0610014
:104C9000A4F6D9F46100A8F6DAF4DEC4F6F4DDC4B3
:104CA000F7F4000EF86E08006100D4F3BCF5610063
:104CB000A4F6D9F46100A8F6DAF4DE2A000EDD22AB
:104CC0006100ACF6D9F46100B0F6DAF461007CF36F
:104CD000ADF5040EDE2661007CF3AEF5000EDD229C
:104CE0006100B4F6D9F46100B8F6DAF4610078F343
:104CF000B5F5610078F3B6F5610078F3B7F56100BA
:104D000078F3B8F5A7C559F5A8C55AF5B5C55BF54B
:104D1000B6C55CF5B7C55DF5B8C55EF5BCC55FF554
:104D200098EC1BF059C5A7F55AC5A8F5AFEF27F0C9
:104D3000B90E016E050E026E2A0E036E250E046E6C
:104D4000000E066E020E056ED2EC34F00150021019
:104D5000D8A4ADEF26F0AFEF26F04EEF27F06100BC
:104D6000A4F6D9F46100A8F6DAF4610078F3ADF5A1
:104D7000610074F3AEF5010E0501AD27000EAE2300
:104D80006100B4F6F6F46100B8F6F7F4000EF86EC0
:104D900008006100D4F3BCF5BF0EAD6FFF0EAE6F1F
:104DA0006100A4F6D9F46100A8F6DAF4DEC4F6F4E2
:104DB000DDC4F7F4000EF86E0800F550AF6FB06B6D
:104DC000AD51AF27AE51B023B0510AE11A0EAF5D1D
:104DD000D8A0EDEF26F0F0EF26F0010EF1EF26F06F
:104DE000000EB36FB46BB351B411D8B4FAEF26F020
:104DF000FCEF26F020EF27F06100ACF6D9F461005B
:104E0000B0F6DAF461007CF3ADF5040EDE26610045
:104E10007CF3AEF5000EDD226100B4F6D9F461003A
:104E2000B8F6DAF4610078F3B5F5610078F3B6F519
:104E3000610078F3B7F5610078F3B8F542EF27F039
:104E40006100ACF6D9F46100B0F6DAF461007CF3ED
:104E5000ADF5040EDE2661007CF3AEF5000EDD221A
:104E60006100B4F6D9F46100B8F6DAF4610078F3C1
:104E7000B5F5610078F3B6F5610078F3B7F5610038
:104E800078F3B8F5020E6100A4F6D9F46100A8F633
:104E9000DAF4DE26000EDD2282EF26F06100A4F6B1
:104EA000D9F46100A8F6DAF4DEC4F6F4DDC4F7F450
:104EB000000EF86E0800F550250AD8A462EF27F01E
:104EC00064EF27F07EEF27F06100A4F6D9F46100CB
:104ED000A8F6DAF4DE2A000EDD22000E026E250EA0
:104EE000016EA7C503F5A8C504F54FEC35F0000E1B
:104EF0000501A86F010EA76FAFEF27F06100A4F6C0
:104F0000D9F46100A8F6DAF4DE2A000EDD22000EE4
:104F10000501A86F000EA76FAFEF27F06100A4F6A0
:104F2000D9F46100A8F6DAF4DEC4F6F4DDC4F7F4CF
:104F3000000EF86E0800F550016E026AA7C503F571
:104F4000A8C504F54FEC35F06100A4F6D9F4610072
:104F5000A8F6DAF4DE2A000EDD2277EF27F0120041
:104F60000450800B0D6E045004240F6E03AEBBEF93
:104F700027F0BDEF27F0BEEF27F00F800F50D8B419
:104F8000C4EF27F0C6EF27F0DBEF27F00F28D8A4F7
:104F9000CCEF27F0CEEF27F0D6EF27F0000E016E12
:104FA000000E026E000E036E000E046E038E000EE5
:104FB000046EE3EF27F0000E016E000E026E000E8D
:104FC000036E000E046E0850800B0E6E0D500E180E
:104FD000D8B4EDEF27F0EFEF27F0F0EF27F00D8CCE
:104FE000085008240E6E07AEF8EF27F0FAEF27F00E
:104FF000FBEF27F00E800E50D8B401EF28F003EF3E
:1050000028F018EF28F00E28D8A409EF28F00BEFAD
:1050100028F013EF28F0000E056E000E066E000E4D
:10502000076E000E086E078E000E086E20EF28F047
:10503000000E056E000E066E000E076E000E086E66
:105040000F500E5CD8B027EF28F029EF28F050EF72
:1050500028F00DAC2EEF28F030EF28F032EF28F0DA
:10506000800E0D1A0FC510F50EC50FF510C50EF503
:1050700001C510F505C501F510C505F502C510F50A
:1050800006C502F510C506F503C510F507C503F5FD
:1050900010C507F504C510F508C504F510C508F5D9
:1050A000000E106E0F500EC509F50A6A095E000E5B
:1050B0000A5A0ABE65EF28F00A5009E11A0E095C87
:1050C000D8A065EF28F067EF28F09EEF28F0015098
:1050D000021003100410D8A470EF28F073EF28F02A
:1050E000010E74EF28F0000E106E000E016E000E1F
:1050F000026E000E036E000E046E0EC50FF5A7EFD4
:1051000028F010A086EF28F088EF28F08EEF28F026
:10511000D89010300109106E90EF28F0D89010321E
:1051200001A095EF28F097EF28F098EF28F0108E67
:10513000043404320332023201320F2A0E500F5C63
:10514000D8A0A5EF28F0A7EF28F081EF28F00DBC3C
:10515000ACEF28F0AEEF28F0EEEF28F00F50D8A417
:10516000B4EF28F0B6EF28F0C0EF28F0000E016E83
:10517000000E026E000E036E000E046E0FEF2AF09A
:10518000055001260650022207500322085004222F
:1051900004A0CDEF28F0CFEF28F07BEF29F010A08E
:1051A000D4EF28F0D6EF28F0DCEF28F0D8901030BC
:1051B0000109106EDEEF28F0D890103201A0E3EF65
:1051C00028F0E5EF28F0E6EF28F0108E04340432E2
:1051D0000332023201320F2A7BEF29F00550015CC5
:1051E00006500258075003580450800A096E0850B0
:1051F000800A0958D8B0FFEF28F001EF29F02CEF12
:1052000029F00150055C096E025006580A6E0350E1
:1052100007580B6E045008580C6EFF0E0924016EDF
:10522000FF0E0A20026EFF0E0B20036EFF0E0C20F5
:10523000046E800E0D1A106C1050D8A422EF29F0C5
:1052400024EF29F034EF29F0010E0126000E02228E
:105250000322042234EF29F00550015E0650025A61
:105260000750035A0850045A01500210031004104A
:10527000D8A43DEF29F03FEF29F074EF29F010504A
:10528000D8A445EF29F047EF29F074EF29F0000E7C
:10529000016E000E026E000E036E000E046E0FEF24
:1052A0002AF0D890013602360336043610AE5BEF92
:1052B00029F05DEF29F05EEF29F0018010A063EF87
:1052C00029F065EF29F069EF29F0D88010366BEFEF
:1052D00029F0D89010360F50D8B471EF29F073EF41
:1052E00029F074EF29F00F0603AE79EF29F07BEF78
:1052F00029F051EF29F0000E0E6E10AE82EF29F06A
:1053000084EF29F09CEF29F010C509F57F0E0916EE
:10531000D8B48DEF29F08FEF29F093EF29F0010E2B
:105320000E6E9CEF29F001A098EF29F09AEF29F07A
:105330009CEF29F08FEF29F00E50D8B4A2EF29F09E
:10534000A4EF29F0CFEF29F0010E0126000E022272
:105350000322042204A0AFEF29F0B1EF29F0CFEF30
:1053600029F001C509F502C50AF503C50BF504C509
:105370000CF50C340C320B320A32093209C501F536
:105380000AC502F50BC503F50CC504F50F28D8B402
:10539000CCEF29F0CEEF29F0CFEF29F00F2A0F281C
:1053A000D8B4D5EF29F0D7EF29F0DFEF29F00F506F
:1053B000D8A4DDEF29F0DFEF29F0F1EF29F0000E9E
:1053C000016E000E026E000E036E000E046E0F5092
:1053D000D8A4EDEF29F0EFEF29F0F1EF29F0000E5E
:1053E0000D6E0FA0F6EF29F0F8EF29F0FBEF29F092
:1053F000038EFCEF29F0039ED8900F30046E0DAEA3
:1054000004EF2AF006EF2AF007EF2AF0048E01C518
:1054100001F502C502F503C503F504C504F5120044
:105420001450800B1D6E14501424236E13AE1BEF0A
:105430002AF01DEF2AF01EEF2AF023802350D8B463
:1054400024EF2AF026EF2AF039EF2AF02328D8A4F7
:105450002CEF2AF02EEF2AF036EF2AF0000E116E14
:10546000000E126E000E136E000E146E138E41EFBE
:105470002AF0000E116E000E126E000E136E000E5A
:10548000146E1850800B1D1A18501824226E17AE77
:105490004CEF2AF04EEF2AF04FEF2AF022802250F4
:1054A000D8B455EF2AF057EF2AF06AEF2AF02228F5
:1054B000D8A45DEF2AF05FEF2AF067EF2AF0000E24
:1054C000156E000E166E000E176E000E186E178EFB
:1054D00072EF2AF0000E156E000E166E000E176E9B
:1054E000000E186E2250D8B478EF2AF07AEF2AF026
:1054F00082EF2AF02350D8A480EF2AF082EF2AF01E
:105500008CEF2AF0000E116E000E126E000E136E5C
:10551000000E146E36EF2CF0175011026100CCF320
:1055200028F56100D0F329F528501E6E1F6A206A05
:10553000216A2950246E256A266A276A16501202AB
:105540006100CCF328F56100D0F329F528501E2620
:10555000000E1F222022212229502426000E25225F
:1055600026222722155013026100CCF328F5610092
:10557000D0F329F528501E26000E1F2220222122BA
:1055800029502426000E25222622272220C521F577
:105590001FC520F51EC51FF51E6A155012026100B9
:1055A000CCF328F56100D0F329F528501E262950A8
:1055B0001F22000E2022000E21221650110261002F
:1055C000CCF328F56100D0F329F528501E26295088
:1055D0001F22000E2022000E212220C521F51FC50A
:1055E00020F51EC51FF51E6A155011026100CCF38F
:1055F00028F56100D0F329F528501E2629501F22D6
:10560000000E2022000E2122175012026100CCF35E
:1056100028F56100D0F329F52850242629502522A9
:10562000000E2622000E2722165013026100CCF332
:1056300028F56100D0F329F5285024262950252289
:10564000000E2622000E2722175013026100CCF311
:1056500028F56100D0F329F52850196E29501A6EEB
:105660001B6A1C6A1BC51CF51AC51BF519C51AF562
:10567000196A195024261A5025221B5026221C5024
:1056800027221EC519F51FC51AF520C51BF521C512
:105690001CF5190E51EF2BF0D8901C321B321A3228
:1056A0001932E82E4CEF2BF0195024261A502522DF
:1056B0001B5026221C50272220C521F51FC520F58E
:1056C0001EC51FF51E6A225023C519F51A6A192630
:1056D000000E1A22820E1924286EFF0E1A20296E3F
:1056E00087EF2BF0D890243625362636273621AE84
:1056F0007CEF2BF07EEF2BF07FEF2BF02480D89007
:105700001E361F36203621362806D8A0290626AE9A
:105710008CEF2BF08EEF2BF072EF2BF0000E226E41
:1057200021AE95EF2BF097EF2BF0BBEF2BF0FF0E98
:105730001E14196EFF0E1F141A6EFF0E20141B6E1E
:105740007F0E21141C6E19501A101B101C10D8B497
:10575000ACEF2BF0AEEF2BF0B2EF2BF0010E226E80
:10576000BBEF2BF024A0B7EF2BF0B9EF2BF0BBEF82
:105770002BF0AEEF2BF02250D8B4C1EF2BF0C3EFDB
:105780002BF0E7EF2BF0010E2426000E2522262217
:10579000272227A0CEEF2BF0D0EF2BF0E7EF2BF056
:1057A00024C519F525C51AF526C51BF527C51CF511
:1057B0001C341C321B321A32193219C524F51AC591
:1057C00025F51BC526F51CC527F5284A292A29BE1B
:1057D000F2EF2BF0295008E12828D8A0F2EF2BF0A7
:1057E000F4EF2BF0FEEF2BF0000E246E000E256E72
:1057F000800E266E7F0E276E2CEF2CF029BE0BEF4D
:105800002CF0295006E12804D8B009EF2CF00BEF5A
:105810002CF017EF2CF0000E246E000E256E000EFB
:10582000266E000E276E000E1D6E2CEF2CF028C584
:1058300023F5FF0E2416FF0E25167F0E2616000EEA
:10584000271623A026EF2CF028EF2CF029EF2CF0C0
:10585000268ED8902330276E1D50271224C511F5AF
:1058600025C512F526C513F527C514F512003950C4
:10587000800B466E395039244D6E38AE42EF2CF015
:1058800044EF2CF045EF2CF04D804D50D8B44BEF49
:105890002CF04DEF2CF062EF2CF04D28D8A453EFF4
:1058A0002CF055EF2CF05DEF2CF0000E366E000E54
:1058B000376E000E386E000E396E388E000E396E5F
:1058C0006AEF2CF0000E366E000E376E000E386E4A
:1058D000000E396E3D50800B461A3D503D244E6EF1
:1058E0003CAE75EF2CF077EF2CF078EF2CF04E807B
:1058F0004E50D8B47EEF2CF080EF2CF095EF2CF0CA
:105900004E28D8A486EF2CF088EF2CF090EF2CF0E6
:10591000000E3A6E000E3B6E000E3C6E000E3D6EA9
:105920003C8E000E3D6E9DEF2CF0000E3A6E000E88
:105930003B6E000E3C6E000E3D6E3A503B103C102C
:105940003D10D8A4A6EF2CF0A8EF2CF0C0EF2CF05F
:10595000000E366E000E376E000E386E000E396E79
:10596000800E38127F0E39124650391236C536F580
:1059700037C537F538C538F539C539F503EF2EF099
:105980004D50D8A4C6EF2CF0C8EF2CF0D2EF2CF07D
:10599000000E366E000E376E000E386E000E396E39
:1059A00003EF2EF04E504DC53EF53F6A3E5E000EB1
:1059B0003F5A7F0E3E24476E000E3F20486E36C58C
:1059C00042F537C543F538C544F539C545F5000EF0
:1059D000366E000E376E000E386E000E396E000EF9
:1059E000496E000E4A6E000E4B6E000E4C6E000E9D
:1059F0004E6E33EF2DF04E50D8B401EF2DF003EF83
:105A00002DF01AEF2DF0D890423643364436453605
:105A1000D89036363736383639364CAE12EF2DF050
:105A200014EF2DF015EF2DF03680D89049364A3618
:105A30004B364C363A50425C3B5043583C504458ED
:105A40003D504558D8A027EF2DF029EF2DF032EF2B
:105A50002DF04C8C3A50425E3B50435A3C50445AD5
:105A60003D50455A4E2A190E4E6439EF2DF03BEF4A
:105A70002DF0FBEF2CF04250431044104510D8B4E9
:105A800044EF2DF046EF2DF05EEF2DF049805EEFF4
:105A90002DF0D89036363736383639364CAE53EF8F
:105AA0002DF055EF2DF056EF2DF03680D890493679
:105AB0004A364B364C364706D8A0480638AE63EF18
:105AC0002DF065EF2DF049EF2DF0000E4E6E4CAE2F
:105AD0006CEF2DF06EEF2DF092EF2DF0FF0E4914CC
:105AE0003E6EFF0E4A143F6EFF0E4B14406E7F0E4B
:105AF0004C14416E3E503F1040104110D8B483EF1B
:105B00002DF085EF2DF089EF2DF0010E4E6E92EF06
:105B10002DF036A08EEF2DF090EF2DF092EF2DF0BE
:105B200085EF2DF04E50D8B498EF2DF09AEF2DF070
:105B3000BEEF2DF0010E3626000E37223822392214
:105B400039A0A5EF2DF0A7EF2DF0BEEF2DF036C553
:105B50003EF537C53FF538C540F539C541F5413407
:105B6000413240323F323E323EC536F53FC537F511
:105B700040C538F541C539F5474A482A48BEC9EFFE
:105B80002DF0485008E14728D8A0C9EF2DF0CBEF01
:105B90002DF0D6EF2DF0000E486E4768000E366EE1
:105BA000000E376E000E386E000E396E48BEE3EF01
:105BB0002DF0485006E14704D8B0E1EF2DF0E3EFB7
:105BC0002DF0F1EF2DF0000E486E000E476E000E26
:105BD000366E000E376E000E386E000E396E000EF7
:105BE000466E47C54DF54DA0F8EF2DF0FAEF2DF0BC
:105BF000FDEF2DF0388EFEEF2DF0389ED8904D3011
:105C0000396EB4EF2CF0120018C666F519C667F5A8
:105C10001AC668F51BC669F54FC566F550C567F528
:105C200051C568F552C569F5810E536EFF0E546E6D
:105C300066C555F567C556F568C557F569C558F584
:105C4000180E28EF2EF0D89058325732563255326F
:105C5000E82E23EF2EF0555053240501646F000EFB
:105C60005420656F65BF3EEF2EF0655109E1170EB8
:105C7000645DD8A03EEF2EF040EF2EF04AEF2EF0FC
:105C80004FC54FF550C550F551C551F552C552F5A8
:105C90000EEF2FF065BF4FEF2EF051EF2EF0C2EF59
:105CA0002EF064C553F5FF0E546EFF0E556E7F0E39
:105CB000566E000E576E536660EF2EF068EF2EF0B2
:105CC00057345732563255325432532E5BEF2EF042
:105CD00054C560F555C561F556C562F557C563F500
:105CE000050160516615536E61516715546E62511E
:105CF0006815556E63516915566E53505410551002
:105D00005610D8A486EF2EF088EF2EF08AEF2EF0F2
:105D100040EF2EF066C553F567C554F568C555F5D7
:105D200069C556F5200E9AEF2EF0D89056325532AE
:105D300054325332E82E95EF2EF053505410551034
:105D40005610D8B4A6EF2EF0A8EF2EF0B0EF2EF03C
:105D5000605166276151672362516823635169234B
:105D6000601D536E611D546E621D556E631D566E2F
:105D70005350661754506717555068175650691797
:105D800006EF2FF066C553F567C554F568C555F5A0
:105D900069C556F5200ED2EF2EF0D8905632553206
:105DA00054325332E82ECDEF2EF05350541055108C
:105DB0005610D8A4DEEF2EF0E0EF2EF0EAEF2EF032
:105DC000000E666F000E676F000E686F000E696F41
:105DD00006EF2FF0D8906635536E6735546E6835F0
:105DE000556E6935566E5350541055105610D8B430
:105DF000FCEF2EF0FEEF2EF006EF2FF0000E666F98
:105E0000000E676F800E686FBF0E696F66C54FF535
:105E100067C550F568C551F569C552F51200B19EC8
:105E20000501FC510301196F6100ECF718F306013D
:105E3000DB51DC11DD11D8B420EF2FF022EF2FF071
:105E40002FEF2FF002D82FEF2FF00500FA6EDB5165
:105E5000FD6EDC51FE6EDD51FF6EFA501200030143
:105E60001D510501D66FD56B03011C510501D525C8
:105E7000F36F0301000E0501D621F46F000E03013C
:105E80001D6F000E1C6F000E156E000E166E700E4C
:105E9000176E420E186EF3C501F5F4C502F5036ADC
:105EA000046A000EF4EC30F001C511F502C512F5DC
:105EB00003C513F504C514F510EC2AF011C536F529
:105EC00012C537F513C538F514C539F59A0E3A6E73
:105ED000990E3B6E990E3C6E3F0E3D6E37EC2CF0EA
:105EE00036C5F7F537C5F8F538C5F9F539C5FAF50A
:105EF000DB0E156E0F0E166EC90E176E400E186E65
:105F0000F7C511F5F8C512F5F9C513F5FAC514F57D
:105F100010EC2AF011C536F512C537F513C538F562
:105F200014C539F5000E3A6E000E3B6E700E3C6ED5
:105F3000420E3D6E37EC2CF036C5E3F537C5E4F57F
:105F400038C5E5F539C5E6F5E3C555F5E4C556F5BB
:105F5000E5C557F5E6C558F5E7C551F5E8C552F56D
:105F6000E9C553F5EAC554F5A70E4F6E060E506EFF
:105F7000C6EC21F04FC5D7F550C5D8F551C5D9F5B8
:105F800052C5DAF5000E156EC00E166E470E176E6E
:105F9000440E186ED7C511F5D8C512F5D9C513F53D
:105FA000DAC514F510EC2AF011C536F512C537F52F
:105FB00013C538F514C539F5000E3A6E000E3B6E68
:105FC000400E3C6E410E3D6E37EC2CF036C5DFF5D1
:105FD00037C5E0F538C5E1F539C5E2F5DFC501F5AE
:105FE000E0C502F5E1C503F5E2C504F54EEC33F07A
:105FF00001C50BF502C50CF5EAEC3BF0000E0501FE
:10600000C56F070EC66F130EC76F250EC86FE3C5A9
:10601000C9F5E4C5CAF5E5C5CBF5E6C5CCF523EC75
:106020003AF0000E026E070E036E23EC3BF01200F6
:10603000000E166E000E156E000E0F6E000E0E6E28
:1060400024EF30F0084A092A010E146E610020F492
:10605000F6F4610024F4F7F4000EF86E0800F55031
:10606000200AD8B436EF30F038EF30F059EF30F086
:10607000F70E0A6EFF0E0B6E610020F4F6F461005D
:1060800024F4F7F4000EF86E0800F5500C6E0D6A5B
:106090000A500C260B500D220D5009E1050E0C5C28
:1060A000D8A055EF30F057EF30F059EF30F0000E38
:1060B000146E14C510F5116A10501110D8A463EFB6
:1060C00030F065EF30F022EF30F06FEF30F0000E7F
:1060D0000F6E010E0E6E084A092AACEF30F0610017
:1060E00020F4F6F4610024F4F7F4000EF86E0800D2
:1060F000F5500A6E0B6A0B50000AD8B482EF30F0EC
:10610000ACEF30F00A502B0AD8B46BEF30F0060A2F
:10611000D8B467EF30F0ACEF30F015C501F516C517
:1061200002F5000E046E0A0E036E1AEC3CF06100DC
:1061300020F4F6F4610024F4F7F4000EF86E080081
:10614000F550015E000E025A300E0124156E000E4D
:106150000220166E6BEF30F0D00E0A6EFF0E0B6E43
:10616000610020F4F6F4610024F4F7F4000EF86EF8
:106170000800F5500C6E0D6A0A500C260B500D22CB
:106180000D500AE10A0E0C5CD8A0C9EF30F0CCEF3C
:1061900030F0010ECDEF30F0000E126E136A125087
:1061A0001310D8A4D6EF30F0D8EF30F08DEF30F0E8
:1061B0000E500F10D8A4DFEF30F0E1EF30F0EFEF2A
:1061C00030F015C50AF516C50BF50A1E0B1E0A4A56
:1061D0000B2A0AC508F50BC509F5F3EF30F015C514
:1061E00008F516C509F51200096E0950D8B4FBEF81
:1061F00030F0FDEF30F01FEF31F004BE04EF31F06E
:1062000002EF31F01FEF31F001C505F502C506F5CB
:1062100003C507F504C508F5051E061E071E081E62
:10622000052A000E06220722082205C50BF506C521
:106230000CF507C50DF508C50EF527EF31F001C5C2
:106240000BF502C50CF503C50DF504C50EF501509F
:10625000021003100410D8A430EF31F032EF31F007
:106260003CEF31F0000E016E000E026E000E036E68
:10627000000E046ECDEF31F0960E0A6E46EF31F04F
:106280000A2AD8900E320D320C320B32000E0B144B
:10629000056E000E0C14066E000E0D14076EFE0E39
:1062A0000E14086E0550061007100810D8A45BEFF6
:1062B00031F05DEF31F040EF31F06BEF31F00A2A51
:1062C000010E0B26000E0C220D220E22D8900E324B
:1062D0000D320C320B32000E0B14056E000E0C1436
:1062E000066E000E0D14076EFF0E0E14086E05509C
:1062F000061007100810D8A480EF31F082EF31F0BB
:106300005FEF31F08AEF31F00A06D8900B360C3689
:106310000D360E360DBE8FEF31F091EF31F099EF63
:1063200031F0020E0A6097EF31F099EF31F084EF0F
:1063300031F00AB09EEF31F0A0EF31F0A1EF31F073
:106340000D9ED8900A320AC505F5066A076A086AE2
:1063500005C508F5076A066A056A05500B1206505E
:106360000C1207500D1208500E120950D8B4BBEF92
:1063700031F0BDEF31F0C5EF31F004BEC4EF31F0C4
:10638000C2EF31F0C5EF31F00E8E0BC501F50CC533
:1063900002F50DC503F50EC504F5120001C50BF598
:1063A00002C50CF505500610D8A4D9EF31F0DBEF8B
:1063B00031F0DDEF31F095EF32F061002CF4D9F4DB
:1063C000610030F4DAF461000CF4DFF405500B24C2
:1063D000076E06500C20086EFF0E0724D96EFF0EC4
:1063E0000820DA6E61000CF4DFF4065007E1030EBA
:1063F000055CD8B0FEEF31F000EF32F002EF32F082
:1064000095EF32F020EE01F00B50D9260C50DA2235
:1064100061000CF4DFF420EE02F00B50D9260C5092
:10642000DA2261000CF4DFF405500B24076E0650ED
:106430000C20086EFE0E0724D96EFF0E0820DA6EBF
:1064400061000CF4DFF405500B24076E06500C209D
:10645000086EFD0E0724D96EFF0E0820DA6E61006B
:106460000CF4DFF4065007E1070E055CD8B03BEFF3
:1064700032F03DEF32F03FEF32F095EF32F020EEA8
:1064800003F00B50D9260C50DA2261000CF4DFF433
:1064900005500B24076E06500C20086EFC0E0724D6
:1064A000D96EFF0E0820DA6E61000CF4DFF406509E
:1064B00007E1090E055CD8B060EF32F062EF32F010
:1064C00064EF32F095EF32F00BC507F50CC508F517
:1064D000071E081E074A082A030E0714096E0A6AD7
:1064E00009500B260A500C220950055E0A50065A24
:1064F000FC0E0516FF0E06168CEF32F061002CF430
:10650000D9F4610030F4DAF461000CF4DFF405062C
:10651000D8A006060B4A0C2A05500610D8A493EF03
:1065200032F095EF32F07EEF32F01200000E0501EE
:10653000F625D96EDA6A060EDA22000EDF6E020147
:10654000B2A7A5EF32F0A7EF32F0BDEF32F0000EA8
:106550000501F625D96EDA6A060EDA220601DF8217
:1065600002D8BDEF32F00500FA6EE451FD6EE55140
:10657000FE6EE651FF6EFA5012000201B2A3C3EFA5
:1065800032F0C5EF32F0DBEF32F0000E0501F625F8
:10659000D96EDA6A060EDA220601DF8402D8DBEF52
:1065A00032F00500FA6EE151FD6EE251FE6EE351EC
:1065B000FF6EFA501200000E0501F625D96EDA6A58
:1065C000060EDA22DF50D8B4E8EF32F0EAEF32F00C
:1065D000FAEF32F002D8F8EF32F00500FA6E060159
:1065E000DE51FD6EDF51FE6EE051FF6EFA5012007B
:1065F000FCEF32F003EC3CF0600084FA5DF5440EF1
:106600005D18D8A406EF33F008EF33F00CEF33F049
:10661000C280C2924DEF33F0490E5D18D8A413EF3B
:1066200033F015EF33F019EF33F0C282C2904DEF23
:1066300033F0780E5D18D8A420EF33F022EF33F05A
:1066400042EF33F0750E596E060E5A6E42EC3CF076
:1066500059C5E7F55AC5E8F55BC5E9F55CC5EAF546
:10666000750E016E060E026E000E046E000E036EB5
:10667000F5C505F5066ACEEC31F0000E0501F56FA3
:106680004DEF33F0750E0501F525D96EDA6A060E69
:10669000DA22610074F5DFF4F52B120003340434C0
:1066A0000A6E0A50D8A457EF33F059EF33F063EF76
:1066B00033F0000E016E000E026E000E036E000E2F
:1066C000046ED0EF33F001C505F502C506F503C52C
:1066D00007F504C508F5200E73EF33F0D8900832A3
:1066E000073206320532E82E6EEF33F00550096EA0
:1066F000038EFF0E0116FF0E0216FF0E0316000E8C
:106700000416960E0A5E0ABE8AEF33F088EF33F065
:10671000A0EF33F00A50800A970FD8B092EF33F011
:1067200094EF33F096EF33F059EF33F0D890043212
:106730000332023201320A3E96EF33F0B8EF33F003
:106740001F0E0A64A6EF33F0A8EF33F0B0EF33F07A
:1067500059EF33F0D89001360236033604360A0674
:106760000A50D8A4B6EF33F0B8EF33F0AAEF33F005
:106770000950D8B4BEEF33F0C0EF33F0C8EF33F0B8
:10678000041E031E021E016C000E022203220422BC
:1067900001C501F502C502F503C503F504C504F5FD
:1067A0001200000E2A14326E000E2B14336E800E6F
:1067B0002C14346E7F0E2D14356E3250331034107D
:1067C0003510D8A4E6EF33F0E8EF33F0F0EF33F014
:1067D000000E2A6E000E2B6E000E2C6E000E2D6E1B
:1067E000000E2E14326E000E2F14336E800E3014F5
:1067F000346E7F0E3114356E325033103410351034
:10680000D8A405EF34F007EF34F00FEF34F0000EAA
:106810002E6E000E2F6E000E306E000E316E2DAEFD
:1068200014EF34F016EF34F01FEF34F02A6C2B1E07
:10683000D8B02B2A2C1ED8B02C2A800E2D5631AE63
:1068400024EF34F026EF34F02FEF34F02E6C2F1EAF
:10685000D8B02F2A301ED8B0302A800E3156000E04
:106860002A1A000E2B1A000E2C1A800E2D1A000E5A
:106870002E1A000E2F1A000E301A800E311A2E50CA
:106880002A5C2F502B5830502C5831502D58D8B0EE
:106890004CEF34F04EEF34F051EF34F0D89052EF2B
:1068A00034F0D88012001CC60BF51DC60CF51EC6B0
:1068B0000DF51FC60EF501C50BF502C50CF503C598
:1068C0000DF504C50EF50BC505F50CC506F50DC592
:1068D00007F50EC508F5180E73EF34F0D89008329E
:1068E000073206320532E82E6EEF34F00550096E9D
:1068F0000A6A09500A10D8A480EF34F082EF34F00D
:10690000A2EF34F0D8900B34056E0C34066E0D34C3
:10691000076E0E34086E0550061007100810D8A434
:1069200094EF34F096EF34F09CEF34F0000E026EEA
:10693000020E016ED1EF34F0000E026E030E016EF6
:10694000D1EF34F009280A10D8A4A9EF34F0ABEF46
:1069500034F0CDEF34F00BC505F50CC506F50DC5CB
:1069600007F50EC508F5090ED89005360636073628
:106970000836E82EB4EF34F0055006100710081062
:10698000D8B4C5EF34F0C8EF34F0010EC9EF34F0DD
:10699000000E016E026AD1EF34F0000E026E040E9A
:1069A000016E120001C508F502C509F503C50AF517
:1069B00004C50BF50506D8A00606052806E106283D
:1069C000D8A4E5EF34F0E7EF34F0F4EF34F0000E44
:1069D000026E000E016E4EEF35F0084A092A0A4A8F
:1069E0000B2A0506D8A00606610020F4D9F4610040
:1069F00024F4DAF4DF50D8B400EF35F002EF35F0CC
:106A000037EF35F0610028F4F6F461002CF4F7F468
:106A1000000EF86E0800F5500009D8B412EF35F0FA
:106A200014EF35F037EF35F005500610D8B41BEFF2
:106A300035F01DEF35F037EF35F0610020F4D9F473
:106A4000610024F4DAF4DF50076E610028F4F6F4F4
:106A500061002CF4F7F4000EF86E0800F5500718EA
:106A6000D8B435EF35F037EF35F0EDEF34F06100A5
:106A700020F4D9F4610024F4DAF4DF50076E6100E9
:106A800028F4F6F461002CF4F7F4000EF86E080018
:106A9000F550075C016E026AD8A00206120003508E
:106AA0000410D8B456EF35F058EF35F061EF35F0FB
:106AB00003500410D8A45FEF35F061EF35F066EFB6
:106AC00035F00150E0EC3CF0BAEF35F020EE04F088
:106AD0000350D9260450DA22DE50DE10D8B473EF0A
:106AE00035F075EF35F090EF35F020EE04F00350FF
:106AF000D9260450DA2210EE02F00350E1260450A9
:106B0000E222DE50E65CE650800A096EDE50800A22
:106B10000958D8B08EEF35F090EF35F0BAEF35F078
:106B200020EE02F00350D9260450DA22610078F3F7
:106B300005F5610074F306F561000CF4D9F4610009
:106B400010F4DAF4610078F307F5610074F308F5E6
:106B500005500724D96E06500820DA6E610004F44F
:106B6000DFF420EE02F00350D9260450DA22DE2AA8
:106B7000000EDD2212006100D8F3DBF56100DCF3CA
:106B8000DCF56100E0F3DDF56100D4F3DEF5A2A2EF
:106B9000CCEF35F0CEEF35F0E5EF35F0B2A2D3EF24
:106BA00035F0D5EF35F0E5EF35F002D8E3EF35F00D
:106BB0000500FA6E0601E751FD6EE851FE6EE951DF
:106BC000FF6EFA50120015EF36F0A2A0EAEF35F092
:106BD000ECEF35F003EF36F0B2A0F1EF35F0F3EF64
:106BE00035F003EF36F002D801EF36F00500FA6E0B
:106BF0000601EA51FD6EEB51FE6EEC51FF6EFA504C
:106C0000120015EF36F0A1AE08EF36F00AEF36F0BD
:106C100015EF36F0B1AE0FEF36F011EF36F015EF9D
:106C200036F00FEC2FF015EF36F0610078F7F5F441
:106C3000610074F7F8F4610070F7F7F461006CF725
:106C4000F6F411000501F1A128EF36F02AEF36F035
:106C500034EF36F013C50AF514C50BF511C50CF564
:106C600012C50DF5E1EC3AF016BE39EF36F03BEF08
:106C700036F041EF36F015C51AF516C51BF545EF90
:106C800036F0000E1B6E000E1A6E000E196E000E0E
:106C9000186E57EF36F0000E026E200E016E11C511
:106CA00003F512C504F54FEC35F0184A192A1A50AD
:106CB000185C1950800A176E1B50800A1758D8A00C
:106CC00064EF36F066EF36F04BEF36F00501F1B1C8
:106CD0006CEF36F06EEF36F078EF36F013C50AF54C
:106CE00014C50BF511C50CF512C50DF5E1EC3AF024
:106CF00013C501F514C502F543EC3BF01A5001240D
:106D0000116E1B500220126E1200000E066E04BEA1
:106D10008EEF36F08CEF36F094EF36F0036C041EF5
:106D2000D8B0042A010E066E02BE9BEF36F099EF32
:106D300036F0A1EF36F0016C021ED8B0022A010E27
:106D4000061A000E086E000E076E03500410D8B429
:106D5000ACEF36F0AEEF36F0D6EF36F0010E056E42
:106D6000B6EF36F0D89003360436052A04AEBBEFF2
:106D700036F0BDEF36F0B2EF36F0D8900736083671
:106D80000350015C04500258D8A0C9EF36F0CBEF95
:106D900036F0D0EF36F00350015E0450025A0780FF
:106DA000D89004320332052EBDEF36F00650D8B429
:106DB000DCEF36F0DEEF36F0E2EF36F0076C081E5F
:106DC000D8B0082A07C501F508C502F51200A2903F
:106DD0002C0E0601EE6F650EEF6F000EF06FB6EC35
:106DE0003CF0A292360E0601EE6F750EEF6F000EAC
:106DF000F06FAFEC3CF0000E0201A56F000EA66F25
:106E0000000EA76F000EA86F000EA96F000EAA6FEC
:106E1000B00EAB6F800EAC6F000EAD6F8A0EAE6F12
:106E2000000EAF6F000EB06F000EB16F000EB26FAC
:106E3000000EB36FBE0E0601EE6F790EEF6F000EFF
:106E4000F06FC4EC3CF0BC0E0601EE6F790EEF6FF4
:106E5000000EF06FBDEC3CF0B20E0601EE6F790E45
:106E6000EF6F000EF06FCBEC3CF0000E0601206FD0
:106E7000000E246F000E236F080EED6F000E05014B
:106E8000F66F000E0601226F000E216FA280120025
:106E9000000EC26E000EC16E000EBE6E000EC36EFE
:106EA000000EBF6E000EC06E040ECA6EF20ECB6EE8
:106EB000C668C768C868C96804011869FE0E106F03
:106EC0000869040E206FF00E286F0069000E196F1C
:106ED000000E296F000E216F000E096F000E016F6A
:106EE000000E116F000E0201896F000E886F000EF8
:106EF000876F000E866F000E0401226F000E2A6F4E
:106F0000000E026F000E0A6F000E126F000E1A6F55
:106F100003690B6913691B69070E236F2B690469E9
:106F20000C6914691C690F0E246F2C69100E020184
:106F3000426F200E296F290E726F150E2B6F1200F3
:106F4000000E066E02BEA9EF37F0A7EF37F0AFEFE5
:106F500037F0016C021ED8B0022A010E066E04BE84
:106F6000B6EF37F0B4EF37F0BAEF37F0036C041E2A
:106F7000D8B0042A03500410D8B4C1EF37F0C3EFDF
:106F800037F0E7EF37F0010E056ECBEF37F0D89012
:106F900003360436052A04AED0EF37F0D2EF37F0CF
:106FA000C7EF37F00350015C04500258D8A0DBEF64
:106FB00037F0DDEF37F0E1EF37F00350015E0450BA
:106FC000025AD89004320332052ED2EF37F0065021
:106FD000D8B4EDEF37F0EFEF37F0F3EF37F0016CA7
:106FE000021ED8B0022A01C501F502C502F5120041
:106FF000000E0114096E000E02140A6E800E0314B6
:107000000B6E7F0E04140C6E09500A100B100C103E
:10701000D8A40DEF38F00FEF38F017EF38F0000E6E
:10702000016E000E026E000E036E000E046E000E66
:107030000514096E000E06140A6E800E07140B6EFE
:107040007F0E08140C6E09500A100B100C10D8A4F7
:107050002CEF38F02EEF38F036EF38F0000E056EDA
:10706000000E066E000E076E000E086E0550011829
:107070000FE1065002180CE10750031809E108500F
:107080000418D8B446EF38F048EF38F04BEF38F03A
:10709000D8904CEF38F0D8801200060120EE1CF09A
:1070A000EE51D926EF51DA22000EDE6E000EDE6EB2
:1070B000000EDE6E000EDD6E20EE20F0EE51D926C1
:1070C000EF51DA22000EDE6E000EDE6E000EDE6E76
:1070D000000EDD6E20EE28F0EE51D926EF51DA22B7
:1070E000000EDE6E000EDE6E000EDE6E000EDD6E39
:1070F00020EE2CF0EE51D926EF51DA22000EDE6E92
:10710000000EDE6E000EDE6E000EDD6E20EE30F044
:10711000EE51D926EF51DA22000EDE6E000EDE6E41
:10712000000EDE6E000EDD6E1200010E076ED00E38
:10713000036EFF0E046E01C505F502C506F503508A
:10714000052604500622065009E10A0E055CD8A067
:10715000ACEF38F0AEEF38F0C9EF38F09F0E036EA9
:10716000FF0E046E200E0110056E000E0210066E5A
:107170000350052604500622065009E1060E055C60
:10718000D8A0C5EF38F0C7EF38F0C9EF38F0000EDF
:10719000076E07C501F5026A1200000E096E000EA7
:1071A0000A6E000E0B6E000E0C6E01A0DAEF38F0C6
:1071B000DCEF38F0E4EF38F00550092606500A22DB
:1071C00007500B2208500C22D89005360636073699
:1071D0000836D890043203320232013201500210D4
:1071E00003100410D8A4F7EF38F0F9EF38F0D5EF1A
:1071F00038F009C501F50AC502F50BC503F50CC544
:1072000004F51200BFC5C3F5C0C5C4F5000E0501E5
:10721000EC6F000EEB6F20EF39F0BDC5A7F5BEC5D2
:10722000A8F5C30EA96F050EAA6FC1C5ABF5C2C5FF
:10723000ACF5FFEC24F00501A751EB27A851EC2396
:1072400061000CF7F6F4610010F7F7F4000EF86E29
:107250000800F5500009D8A430EF39F032EF39F0CA
:107260000DEF39F0EBC5BDF5ECC5BEF5120003C559
:1072700007F504C508F501C509F502C50AF507506B
:10728000056E0850066E074A082A610014F4F6F4E9
:10729000610018F4F7F4000EF86E610024F4D9F4DC
:1072A000610028F4DAF4094A0A2A240EF76403D0AC
:1072B0000800F55005D0F6C4E1F4F7C4E2F4E75055
:1072C000DF6EDF50D8A467EF39F069EF39F03FEF98
:1072D00039F01200BF0E096EFF0E0A6E07C50BF5DE
:1072E00008C50CF509500B260A500C220C500AE177
:1072F0001A0E0B5CD8A07FEF39F082EF39F0010E47
:1073000083EF39F0000E0D6E0E6A0D500E10D8B4DA
:107310008CEF39F08EEF39F095EF39F0200E071031
:10732000076E0850086E99EF39F007C507F508C5D4
:1073300008F512009F0E096EFF0E0A6E07C50BF5C9
:1073400008C50CF509500B260A500C220C500AE116
:107350001A0E0B5CD8A0AFEF39F0B2EF39F0010E86
:10736000B3EF39F0000E0D6E0E6A0D500E10D8B44A
:10737000BCEF39F0BEEF39F0C4EF39F05F0E0714FF
:10738000076E086AC8EF39F007C507F508C508F5A4
:107390001200016E0601ED51D8B4D1EF39F0D3EFF0
:1073A00039F0CAEF39F0A2B2D8EF39F0DAEF39F09C
:1073B000DFEF39F0610004F4A3F2F5EF39F0A292A7
:1073C000100E2425D96EDA6A060EDA22610004F462
:1073D000DFF4242B070E2465F0EF39F0F2EF39F0DB
:1073E000F4EF39F0000E246FED07A2821200A00E18
:1073F000F66E770EF76E000EF86E01EEA7F210EE45
:1074000034F00900F5C4EEF4E550E150FAE101EE84
:1074100000F3320EEE6AE806FDE101EE00F2A70E7F
:10742000EE6AE806FDE101EEDFF11C0EEE6AE80609
:10743000FDE10401080E5D6F000E5E6F000E5F6FD0
:10744000000187EF3CF0C90E0501CD6F050ECE6F30
:10745000C5C5CFF5C6C5D0F5000ED26F000ED16FF1
:10746000000ED46F000ED36FCF0EBD6F050EBE6F32
:10747000C7C5BFF5C8C5C0F5CD0EC16F050EC26F3B
:1074800002EC39F00501D151C525D96ED251C62182
:10749000DA6E000EDF6E1200010E076E200E01186C
:1074A0000210D8B456EF3AF058EF3AF071EF3AF0D4
:1074B000F70E036EFF0E046E01C505F502C506F555
:1074C0000350052604500622065009E1050E055C0E
:1074D000D8A06DEF3AF06FEF3AF071EF3AF0000E8E
:1074E000076E07C501F5026A1200520E03011B6FF9
:1074F000630E196FC00E186F1851600064FCF1F62E
:107500000601F26BF1C6F2F6F16BF1110501FB6FAA
:107510000601F2510501FC6FB19EA18EC20E06015B
:10752000EE6F790EEF6F000EF06FD2EC3CF0900E24
:1075300003011A6F1200080E0601ED61A2EF3AF086
:10754000A4EF3AF0BCEF3AF0100E2325D96EDA6AB8
:10755000060EDA22DF500201A36F0601232B070E6D
:107560002365B5EF3AF0B7EF3AF0B9EF3AF0000E15
:10757000236FED2BBDEF3AF0A2921200000E2E1AEF
:10758000000E2F1A000E301A800E311A2AC501F58E
:107590002BC502F52CC503F52DC504F52EC505F543
:1075A0002FC506F530C507F531C508F5B0EC27F055
:1075B00001C52AF502C52BF503C52CF504C52DF52B
:1075C0001200000E106E000E0F6EF2EF3AF00EC5B4
:1075D00001F5026A0CC503F50DC504F54FEC35F055
:1075E0000F4A102A0F500A24D96E10500B20DA6E61
:1075F000DF500E6E0E50D8A400EF3BF002EF3BF0D0
:10760000E7EF3AF01200000E03011F6F000E206F2B
:10761000000E216F000E1D6F000E1C6FB1981C51E3
:10762000600074FCEEF60601EF6BEEC6EFF6EE6B53
:10763000EE110501FD6F0601EF510501FE6F010E10
:1076400003011E6F120002C504F503C505F534EFF2
:107650003BF0610010F4D9F4610014F4DAF4DF5067
:10766000C9EC39F0044A052A610010F4D9F461002C
:1076700014F4DAF4DF50D8A440EF3BF042EF3BF0D3
:1076800029EF3BF0120001C503F502C504F54BEFED
:107690003BF0014A022A610004F4D9F4610008F4C5
:1076A000DAF4DF50D8A457EF3BF059EF3BF049EF45
:1076B0003BF00350015C016E04500258026E120050
:1076C0009F0E036EFF0E046E01C505F502C506F59B
:1076D000035005260450062206500AE11A0E055CE6
:1076E000D8A075EF3BF078EF3BF0010E79EF3BF05F
:1076F000000E016E026A1200BF0E036EFF0E046ED2
:1077000001C505F502C506F50350052604500622FD
:1077100006500AE11A0E055CD8A091EF3BF094EFF9
:107720003BF0010E95EF3BF0000E016E026A120075
:10773000D00E036EFF0E046E01C505F502C506F5F9
:10774000035005260450062206500AE10A0E055C85
:10775000D8A0ADEF3BF0B0EF3BF0010EB1EF3BF046
:10776000000E016E026A12003250331034103510D0
:10777000D8B4BDEF3BF0BFEF3BF0C7EF3BF0000EDE
:10778000321A000E331A000E341A800E351A32C522
:1077900032F533C533F534C534F535C535F512004A
:1077A0004F90D83C2B30243F000000000000000028
:1077B00000004041000000000AD7233C0000000008
:1077C00000000000000000000000000000000000B9
:1077D00000000000FF0E0B16030E0C16030142A959
:1077E000F4EF3BF0F6EF3BF0FDEF3BF0060ED890E8
:1077F0000B360C36E82EF7EF3BF00C50416F610072
:107800002CF440F31200080E0501F625D96EDA6A51
:10781000060EDA22A1C2DFF4F62B070EF66513EF8F
:107820003CF015EF3CF017EF3CF0000EF66F060150
:10783000212B1200015003026100CCF305F5610019
:10784000D0F306F501500402F3500626025003025D
:10785000F350062605C501F506C502F51200DCEC5D
:107860003CF055EC3CF048EC37F095EC3CF0A3ECE8
:107870003CF078EC3CF003EC3BF075EC3AF0E7ECD4
:1078800036F0120059C54FF55AC550F5000E516E2D
:10789000000E526E97EC12F04FC559F550C55AF5CF
:1078A00051C55BF552C55CF51200000E0001606F1A
:1078B000000E616F000E636F000E646F000E656F47
:1078C000000E666F000E676F000E686F1200FF0EED
:1078D000056EFF0E066EFF0E076E7F0E086E05C565
:1078E00001F506C502F507C503F508C504F5120044
:1078F000010E0301266F000E256F000E276FC70EC5
:10790000236F000E226FB196B00E246F12002FEC81
:107910003CF0A70E0601EE6F060EEF6F4DEC38F04F
:10792000D68E91EF3CF00DEF00F0600E0001AD6FD0
:10793000000EAF6F000EB36F080EB16F000EB06F88
:10794000000EAC6F12008C0E0301426F000E416FEF
:10795000070E406F4C51FC0B01094C6F1200EEC634
:10796000E7F6EFC6E8F6F0C6E9F61200EEC6EAF66C
:10797000EFC6EBF6F0C6ECF61200EEC6E1F6EFC687
:10798000E2F6F0C6E3F61200EEC6E4F6EFC6E5F660
:10799000F0C6E6F61200EEC6DEF6EFC6DFF6F0C67B
:1079A000E0F61200EEC6DBF6EFC6DCF6F0C6DDF65A
:1079B000120003EC3CF01200D69A120012001200E2
:0479C000120012009F
:020000040020DA
:10000000FF0FFF0FFF0FFF0FFF0FFF0FFF0FFF0F80
:10001000FF0FFF0FFF0FFF0FFF0FFF0FFF0FFF0F70
:10002000FF0FFF0FFF0FFF0FFF0FFF0FFF0FFF0F60
:10003000FF0FFF0FFF0FFF0FFF0FFF0FFF0FFF0F50
:020000040030CA
:0A0000008CFFF7FF9FFFFFFFFFFFDB
:00000001FF
