:04000000FEEFFFF020
:020000040001F9
:10FEE80000018CEFFFF09DECFFF0AFECFFF07EEC33
:10FEF800FFF01200600E0001AD6F000EAF6F000E34
:10FF0800B36F080EB16F000EB06F000EAC6F120029
:10FF180077ECFFF0CFB893EFFFF095EFFFF098EF95
:10FF2800FFF0C3968EEFFFF0C3868EEFFFF0FEEF73
:10FF3800FFF0000E0001606F000E616F000E636F2E
:10FF4800000E646F000E656F000E666F000E676F1F
:10FF5800000E686F1200000EC26E000EC16E000E19
:10FF6800BE6E000EC36E000EBF6E000EC06E070E92
:10FF7800CA6EF30ECB6EC668C768C868C968040144
:10FF880018691069EF0E086F070E206FF70E286FBB
:10FF98000069000E196F000E296F000E216F100EF8
:10FFA800096F000E016F000E116F000E0201896FBC
:10FFB800000E886F000E876F000E866F000E04011A
:10FFC800226F000E2A6F000E026F000E0A6F000EDD
:10FFD800126F000E1A6F03690B6913691B69070E0C
:10FFE800236F2B6904690C6914691C690F0E246F4F
:08FFF8002C69120074EFFFF008
:020000040020DA
:10000000FF0FFF0FFF0FFF0FFF0FFF0FFF0FFF0F80
:10001000FF0FFF0FFF0FFF0FFF0FFF0FFF0FFF0F70
:020000040030CA
:0A0000008CFFF7FF9FFFFFFFFFFFDB
:00000001FF
