:040000007DEF01F09F
:100200006C016C016C016C01BE006C01BE006C01E4
:100210006C016C016C016C016C016C016C016C0176
:100220006C01BE00BE00BE006C016C016C016C0173
:100230006C016C016C016C01E7006C016C01220126
:100240006C016C016C016C01BE00BE006C016C01A4
:100250006C016C016C01BE006C016C016C016C01E5
:100260006C016C016C016C016C016C016C016C0126
:100270006C016C016C016C01BE006C016C016C01C5
:100280006C016C016C016C016C016C016C016C0106
:100290006C016C016C016C01BE006C01BE00BE0003
:1002A0006C016C016C016C016C016C016C016C01E6
:1002B0006C016C016C016C016C016C016C016C01D6
:1002C0006C016C016C016C016C016C016C016C01C6
:1002D0006C016C016C016C016C016C016C016C01B6
:1002E000BE006C016C016C01BE00BE00BE00BE0011
:1002F0006C016C016C016C01FF00B6EF02F0000EA6
:10030000C26E000EC16E000EBE6E000EC36E000EF9
:10031000BF6E000EC06E070ECA6ECB68C668EF0EC9
:10032000C76EC868C968040118691069EF0E086FC4
:10033000070E206F28690069000E196F000E296FE3
:10034000000E216F000E096F000E016F000E116F7D
:10035000000E0201896F000E886F000E876F000E7D
:10036000866F000E0401226F000E2A6F000E026FCE
:10037000000E0A6F000E126F000E1A6F03690B69F0
:1003800013691B69070E236F2B6904690C691469D3
:0A0390001C690F0E246F2C69120087
:10039C00B19807C509F508C50AF55DEC02F00150E6
:1003AC0002100310D8B4DDEF01F0DFEF01F0FDEF28
:1003BC0001F002D8ECEF01F00500FA6E0150FD6E71
:1003CC000250FE6E0350FF6EFA501200BFB8F1EFF0
:1003DC0001F0F4EF01F0010EF5EF01F0000EFF0A51
:1003EC000B6E0B3ABF500B18EF0B0B18BF6E1100B6
:1003FC00000E03011F6F000E206F010E216F150EF2
:10040C001D6FA00E1C6FB1981C51600074FC0FF591
:10041C00106A0FC510F50F6A0F10076E1050086E9A
:10042C00A188B20E0C6E050E0D6E000E0E6EC8EC91
:10043C0002F0350E03011E6F1200D68A000ED6BED6
:10044C00010E0C6ED69E550E0401596FAA0E596FF3
:10045C005991000E5F6F020E5E6F000E5D6F550EB0
:10046C00596FAA0E596F59810CB002D0D69E01D08B
:0A047C00D68E0301658F658912001A
:10048800B19E045005100610D8B44DEF02F04FEF9E
:1004980002F05CEF02F002D85CEF02F00500FA6EA1
:1004A8000450FD6E0550FE6E0650FF6EFA501200A5
:1004B800110003011EA563EF02F065EF02F06EEF75
:1004C80002F01E910A501D6F610024F41CF31E8176
:1004D80073EF02F00A501D6F610024F41CF3120040
:1004E8005D0E03011B6FC20E196F000E186FB19ECF
:1004F800A18EAC0E0C6E050E0D6E000E0E6ECFECBE
:1005080002F0800E03011A6F1200000E0001606FE6
:10051800000E616F000E636F000E646F000E656F52
:10052800000E666F000E676F000E686F1200600E97
:100538000001AD6F000EAF6F000EB36F080EB16F04
:10054800000EB06F000EAC6F120023EC02F089ECC5
:1005580002F07FEC01F09BEC02F0FEEC01F074EC91
:1005680002F012000401000E5D6F020E5E6F000EB5
:100578005F6F0001C0EF02F0A9EC02F0D68ED68CB6
:10058800C4EF02F07DEF01F00CC501F50DC502F5D1
:100598000EC503F512000CC504F50DC505F50EC50D
:0605A80006F5120012002E
:0405B0001100120024
:020000040020DA
:10000000FF0FFF0FFF0FFF0FFF0FFF0FFF0FFF0F80
:10001000FF0FFF0FFF0FFF0FFF0FFF0FFF0FFF0F70
:020000040030CA
:0A0000008CFFFFFF9FFFFFFFFFFFD3
:00000001FF
