:0400000093EF07F083
:100800000050494320656E20417373656D626C65CD
:1008100072004269656E76656E69646F73203A3363
:1008200000506572752D556D616B657220005049E1
:1008300043313846353751343300416C20437572AB
:10084000736F2064650050494320656E2043005556
:070850006D616B6572000091
:100858000E6E7EEF05F0040E5CEC07F0000E5CEC0B
:1008680007F08C8604380F0B0F6E04C010F00F5081
:100878005CEC07F010505CEC07F005380F0B0F6EBE
:1008880005C010F00F505CEC07F010505CEC07F05E
:1008980006380F0B0F6E06C010F00F505CEC07F017
:1008A80010505CEC07F007380F0B0F6E07C010F004
:1008B8000F505CEC07F010505CEC07F008380F0B99
:1008C8000F6E08C010F00F505CEC07F010505CEC95
:1008D80007F009380F0B0F6E09C010F00F505CECD1
:1008E80007F010505CEC07F00A380F0B0F6E0AC0C7
:1008F80010F00F505CEC07F010505CEC07F00B3870
:100908000F0B0F6E0BC010F00F505CEC07F010507F
:100918005CEC07F08C96000E5CEC07F0010E5CECCA
:1009280007F0020E0D6E040E0C6EBA0EE82EFED7FE
:100938000C2EFCD70D2EFAD700D097EF05F0040E39
:100948005CEC07F0080E5CEC07F08C8604380F0BA3
:100958000F6E04C010F00F505CEC07F010505CEC08
:1009680007F005380F0B0F6E05C010F00F505CEC48
:1009780007F010505CEC07F005380F0B0F6E05C040
:1009880010F00F505CEC07F010505CEC07F00638E4
:100998000F0B0F6E06C010F00F505CEC07F01050F4
:1009A8005CEC07F007380F0B0F6E07C010F00F5004
:1009B8005CEC07F010505CEC07F008380F0B0F6E7A
:1009C80008C010F00F505CEC07F010505CEC07F01A
:1009D80009380F0B0F6E09C010F00F505CEC07F0D0
:1009E80010505CEC07F00A380F0B0F6E0AC010F0BD
:1009F8000F505CEC07F010505CEC07F00B380F0B55
:100A08000F6E0BC010F00F505CEC07F010505CEC50
:100A180007F08C96000E5CEC07F0010E5CEC07F01A
:100A280095EF04F0040E5CEC07F0FF0E5CEC07F0A9
:100A38008C8604380F0B0F6E04C010F00F505CEC5E
:100A480007F010505CEC07F005380F0B0F6E05C06F
:100A580010F00F505CEC07F010505CEC07F0063813
:100A68000F0B0F6E06C010F00F505CEC07F0105023
:100A78005CEC07F007380F0B0F6E07C010F00F5033
:100A88005CEC07F010505CEC07F008380F0B0F6EA9
:100A980008C010F00F505CEC07F010505CEC07F049
:100AA80009380F0B0F6E09C010F00F505CEC07F0FF
:100AB80010505CEC07F00A380F0B0F6E0AC010F0EC
:100AC8000F505CEC07F010505CEC07F00B380F0B84
:100AD8000F6E0BC010F00F505CEC07F010505CEC80
:100AE80007F08C96000E5CEC07F0010E5CEC07F04A
:100AF80095EF04F00E500C6E0D6A0D50000AD8B434
:100B080088EF05F097EF05F00C50010AD8B42FEFE5
:100B180004F0030AD8B4A3EF04F0010AD8B416EF1E
:100B280005F097EF05F0120098EC07F014EC07F0C9
:100B38000A0E046E1F0E056E1F0E066E1F0E076E40
:100B48000E0E086E040E096E000E0A6E000E0B6E75
:100B5800010E2CEC04F00E0E046E1F0E056E150E21
:100B6800066E1F0E076E0E0E086E0E0E096E000E34
:100B78000A6E000E0B6E020E2CEC04F0030E046ECF
:100B8800070E056E090E066E090E076E090E086E31
:100B98001B0E096E1B0E0A6E000E0B6E030E2CEC5C
:100BA80004F0000E046E000E54EC06F0120E076EF0
:100BB800080E086E3DEC07F0010E046E000E54ECB2
:100BC80006F03A0E076E080E086E3DEC07F0020EAE
:100BD800046E000E54EC06F0460E076E080E086E02
:100BE8003DEC07F0030E046E000E54EC06F04F0EB9
:100BF800076E080E086E3DEC07F00B0E176E260EFA
:100C0800166E5E0EE82EFED7162EFCD7172EFAD7D4
:100C18000B0E176E260E166E5E0EE82EFED7162EDB
:100C2800FCD7172EFAD78BEC07F083EC07F0000EF1
:100C3800046E000E54EC06F0120E076E080E086ED5
:100C48003DEC07F0010E046E000E54EC06F02E0E7B
:100C5800076E080E086E3DEC07F0010E79EC07F000
:100C6800020E046E000E54EC06F0010E076E080E1C
:100C7800086E3DEC07F0020E79EC07F0030E046EE7
:100C8800000E54EC06F0210E076E080E086E3DECBF
:100C980007F0030E79EC07F050EF06F000EF00F0D4
:100CA8000A6E8C96C8EF06F00A50800F086E0A503C
:100CB800056E066A800E0526000E0622040E076ED3
:100CC800063406320532072E64EF06F00550096E29
:100CD80009505CEC07F008505CEC07F0E5EF06F013
:100CE8000A50C00F086E0A50056E066AC00E052627
:100CF800000E0622040E076E063406320532072E51
:100D080080EF06F00550096E09505CEC07F00850BA
:100D18005CEC07F0E5EF06F00A50940F086E0A50F5
:100D2800056E066A940E0526000E0622040E076E4E
:100D3800063406320532072E9CEF06F00550096E80
:100D480009505CEC07F008505CEC07F0E5EF06F0A2
:100D58000A50D40F086E0A50056E066AD40E05268E
:100D6800000E0622040E076E063406320532072EE0
:100D7800B8EF06F00550096E09505CEC07F0085012
:100D88005CEC07F0E5EF06F00450056E066A0650C5
:100D9800000AD8B4D2EF06F0E5EF06F00550000AD5
:100DA800D8B458EF06F0010AD8B474EF06F0030A75
:100DB800D8B490EF06F0010AD8B4ACEF06F0E5EF2E
:100DC80006F01200016E01A0ECEF06F0EEEF06F05F
:100DD800F1EF06F08C88F2EF06F08C9801A2F7EF9D
:100DE80006F0F9EF06F0FCEF06F08C8AFDEF06F04E
:100DF8008C9A01A402EF07F004EF07F007EF07F061
:100E08008C8C08EF07F08C9C01A60DEF07F00FEF14
:100E180007F012EF07F08C8E13EF07F08C9E12008C
:100E2800030E9516030E8C16030E5CEC07F0030EEA
:100E38005CEC07F0030E5CEC07F0020E5CEC07F0CC
:100E4800020E5CEC07F0080E5CEC07F0000E5CECA0
:100E580007F0080E5CEC07F0000E5CEC07F0010EE2
:100E68005CEC07F0000E5CEC07F00D0E5CEC07F094
:100E7800120007C009F008C00AF04DEF07F009C0DA
:100E8800F6FF0AC0F7FF0800F5506BEC07F0094AB7
:100E98000A2A09C0F6FF0AC0F7FF0800F550000942
:100EA800D8A459EF07F05BEF07F043EF07F0120003
:100EB800036E8C948C840350E6EC06F0030E026EED
:100EC800980EE82EFED7022EFCD78C941200066EE0
:100ED80006C004F006380F0B056E8C8605505CECD6
:100EE80007F004505CEC07F01200046E8C86000ECC
:100EF8005CEC07F004045CEC07F08C9612008C960E
:100F0800000E5CEC07F0020E5CEC07F012008C9609
:100F1800000E5CEC07F0010E5CEC07F01200000E0E
:0E0F2800F86E000198EF05F0700ED312120063
:020000040020DA
:08000000FFFFFFFFFFFFFFFF00
:020000040030CA
:0E000000000A1F1EFF8385FF0FC00FE00F4098
:00000001FF
