:04000000CEEF3EF011
:107D8C00700ED3121200C0F9A4B0999282F88090B0
:107D9C00920EF66E7D0EF76E000EF86E00EE0FF082
:107DAC0010EE0AF00900F5CFEEFFE550E150FAE1D4
:107DBC001D6A1C6A00019DEF3FF0000E066E02BEAC
:107DCC00ECEF3EF0EAEF3EF0F2EF3EF0016C021EFB
:107DDC00D8B0022A010E066E04BEF9EF3EF0F7EFA2
:107DEC003EF0FDEF3EF0036C041ED8B0042A0350A5
:107DFC000410D8B404EF3FF006EF3FF02AEF3FF049
:107E0C00010E056E0EEF3FF0D89003360436052AAE
:107E1C0004AE13EF3FF015EF3FF00AEF3FF00350C5
:107E2C00015C04500258D8A01EEF3FF020EF3FF049
:107E3C0024EF3FF00350015E0450025AD8900432F4
:107E4C000332052E15EF3FF00650D8B430EF3FF05B
:107E5C0032EF3FF036EF3FF0016C021ED8B0022A31
:107E6C0001C001F002C002F01200000E066E04BE4A
:107E7C0044EF3FF042EF3FF04AEF3FF0036C041E3B
:107E8C00D8B0042A010E066E02BE51EF3FF04FEF40
:107E9C003FF057EF3FF0016C021ED8B0022A010EE2
:107EAC00061A000E086E000E076E03500410D8B4AC
:107EBC0062EF3FF064EF3FF08CEF3FF0010E056E88
:107ECC006CEF3FF0D89003360436052A04AE71EF00
:107EDC003FF073EF3FF068EF3FF0D890073608366D
:107EEC000350015C04500258D8A07FEF3FF081EFA3
:107EFC003FF086EF3FF00350015E0450025A0780BA
:107F0C00D89004320332052E73EF3FF00650D8B4EC
:107F1C0092EF3FF094EF3FF098EF3FF0076C081EA4
:107F2C00D8B0082A07C001F008C002F01200C6EC55
:107F3C003EF0000E956E8C68000E936E8A68030EF0
:107F4C0094123F0E94161CC001F0026A000E046ECF
:107F5C000A0E036EE3EC3EF00150196E1CC001F0EA
:107F6C00026A000E046E0A0E036E3BEC3FF00150E9
:107F7C001A6E000E1B6E1B28D8A4C7EF3FF0C9EF7A
:107F8C003FF0CBEF3FF0F0EF3FF00F0E1924D96E1E
:107F9C00DA6A000EDA22DF508C6E8B9E030E0E6EA8
:107FAC00980EE82EFED70E2EFCD78B8E0F0E1A24B1
:107FBC00D96EDA6A000EDA22DF508C6E8B9C030EBF
:107FCC000E6E980EE82EFED70E2EFCD78B8C1B2A2D
:107FDC00C1EF3FF01C2A640E1C18D8A4F8EF3FF038
:107FEC00FAEF3FF0A9EF3FF0000E1C6EA9EF3FF047
:047FFC0000EF00F0A2
:020000040020DA
:08000000FFFFFFFFFFFFFFFF00
:020000040030CA
:0E000000000A1F1EFF8385FF0FC00FE00F4098
:00000001FF
