:0400000071EF3FF06D
:107ED200700ED3121200C0F9A4B0999282F8809069
:107EE200D80EF66E7E0EF76E000EF86E00EE01F002
:107EF20010EE0AF00900F5CFEEFFE550E150FAE18D
:107F0200136A126A116A106A000188EF3FF069EC85
:107F12003FF0000E956E8C68000E936E8A68030E19
:107F2200941282B097EF3FF099EF3FF0B8EF3FF035
:107F320082A09EEF3FF0A0EF3FF099EF3FF0102AB2
:107F42000A0E1018D8A4A8EF3FF0AAEF3FF0ADEF49
:107F52003FF0000E106E112A0A0E1118D8A4B4EFC9
:107F62003FF0B6EF3FF0B8EF3FF0000E116E82A285
:107F7200BDEF3FF0BFEF3FF0ECEF3FF082B2C4EF56
:107F82003FF0C6EF3FF0BFEF3FF010061150D8A40C
:107F9200CDEF3FF0CFEF3FF0D9EF3FF01028D8A45C
:107FA200D5EF3FF0D7EF3FF0D9EF3FF0000E106E64
:107FB2001150D8B4DFEF3FF0E1EF3FF0ECEF3FF0CC
:107FC2001028D8A4E7EF3FF0E9EF3FF0ECEF3FF0E5
:107FD200090E106E1106010E1024D96EDA6A000E17
:107FE200DA22DF508C6E010E1124D96EDA6A000E8D
:0E7FF200DA22DF508A6E92EF3FF000EF00F0CF
:020000040020DA
:08000000FFFFFFFFFFFFFFFF00
:020000040030CA
:0E000000000A1F1EFF8385FF0FC00FE00F4098
:00000001FF
