:04000000FEEFFFF020
:1025000000437572736F2050494320656E2043006D
:10251000556D616B657200000E6EDEEF13F0040EF8
:102520008FEC15F0000E8FEC15F0C08E04380F0BF9
:102530000F6E04C510F50F508FEC15F010508FEC96
:1025400015F005380F0B0F6E05C510F50F508FEC09
:1025500015F010508FEC15F006380F0B0F6E06C5F6
:1025600010F50F508FEC15F010508FEC15F0073868
:102570000F0B0F6E07C510F50F508FEC15F01050B4
:102580008FEC15F008380F0B0F6E08C510F50F50C3
:102590008FEC15F010508FEC15F009380F0B0F6E03
:1025A00009C510F50F508FEC15F010508FEC15F099
:1025B0000A380F0B0F6E0AC510F50F508FEC15F08F
:1025C00010508FEC15F00B380F0B0F6E0BC510F57C
:1025D0000F508FEC15F010508FEC15F0C09E000ED0
:1025E0008FEC15F0010E8FEC15F0090E0D6E1E0E1E
:1025F0000C6EE40EE82EFED70C2EFCD70D2EFAD76B
:1026000000D0F7EF13F0040E8FEC15F0080E8FECEE
:1026100015F0C08E04380F0B0F6E04C510F50F5067
:102620008FEC15F010508FEC15F005380F0B0F6E76
:1026300005C510F50F508FEC15F010508FEC15F00C
:1026400005380F0B0F6E05C510F50F508FEC15F008
:1026500010508FEC15F006380F0B0F6E06C510F5F5
:102660000F508FEC15F010508FEC15F007380F0B52
:102670000F6E07C510F50F508FEC15F010508FEC52
:1026800015F008380F0B0F6E08C510F50F508FECC2
:1026900015F010508FEC15F009380F0B0F6E09C5AF
:1026A00010F50F508FEC15F010508FEC15F00A3824
:1026B0000F0B0F6E0AC510F50F508FEC15F0105070
:1026C0008FEC15F00B380F0B0F6E0BC510F50F507C
:1026D0008FEC15F010508FEC15F0C09E000E8FECB3
:1026E00015F0010E8FEC15F0F5EF12F0040E8FECE3
:1026F00015F0FF0E8FEC15F0C08E04380F0B0F6E27
:1027000004C510F50F508FEC15F010508FEC15F03C
:1027100005380F0B0F6E05C510F50F508FEC15F037
:1027200010508FEC15F006380F0B0F6E06C510F524
:102730000F508FEC15F010508FEC15F007380F0B81
:102740000F6E07C510F50F508FEC15F010508FEC81
:1027500015F008380F0B0F6E08C510F50F508FECF1
:1027600015F010508FEC15F009380F0B0F6E09C5DE
:1027700010F50F508FEC15F010508FEC15F00A3853
:102780000F0B0F6E0AC510F50F508FEC15F010509F
:102790008FEC15F00B380F0B0F6E0BC510F50F50AB
:1027A0008FEC15F010508FEC15F0C09E000E8FECE2
:1027B00015F0010E8FEC15F0F5EF12F00E500C6EC7
:1027C0000D6A0D50000AD8B4E8EF13F0F7EF13F0DC
:1027D0000C50010AD8B48FEF12F0030AD8B403EFFB
:1027E00013F0010AD8B476EF13F0F7EF13F01200EC
:1027F0000A6EC09E6CEF14F00A50800F086E0A50EB
:10280000056E066A800E0526000E0622040E076E6F
:10281000063406320532072E08EF14F00550096E13
:1028200009508FEC15F008508FEC15F089EF14F07B
:102830000A50C00F086E0A50056E066AC00E0526C3
:10284000000E0622040E076E063406320532072EED
:1028500024EF14F00550096E09508FEC15F0085064
:102860008FEC15F089EF14F00A50940F086E0A509F
:10287000056E066A940E0526000E0622040E076EEB
:10288000063406320532072E40EF14F00550096E6B
:1028900009508FEC15F008508FEC15F089EF14F00B
:1028A0000A50D40F086E0A50056E066AD40E05262B
:1028B000000E0622040E076E063406320532072E7D
:1028C0005CEF14F00550096E09508FEC15F00850BC
:1028D0008FEC15F089EF14F00450056E066A06506F
:1028E000000AD8B476EF14F089EF14F00550000A0E
:1028F000D8B4FCEF13F0010AD8B418EF14F0030AAF
:10290000D8B434EF14F0010AD8B450EF14F089EFC2
:1029100014F01200C5EC15F0ADEC15F0F40E176EC6
:10292000820E166E050EE82EFED7162EFCD7172E39
:10293000FAD700F0F40E176E820E166E050EE82E12
:10294000FED7162EFCD7172EFAD700F0FCEC14F0A9
:102950000A0E046E1F0E056E1F0E066E1F0E076E0A
:102960000E0E086E040E096E000E0A6E000E0B6E3F
:10297000010E8CEC12F0030E046E070E056E090EAC
:10298000066E090E076E090E086E1B0E096E1B0EF1
:102990000A6E000E0B6E020E8CEC12F0000E046E2E
:1029A000000EF8EC13F0010E076E250E086E68ECB1
:1029B00015F0010EBBEC15F0010E046E000EF8ECE4
:1029C00013F0100E076E250E086E68EC15F0020E5F
:1029D000BBEC15F0080EC31A110E176E3C0E166EE6
:1029E000CB0EE82EFED7162EFCD7172EFAD700F006
:1029F000EAEF14F0FEEFFFF0F00EC916F00E04013E
:102A00001817F00E1917F00E1C17F00E1A170F0EEC
:102A10001B13CA9420952195249522952385C89E41
:102A2000109F119F149F129F138F030E8FEC15F0B0
:102A3000030E8FEC15F0030E8FEC15F0020E8FECE9
:102A400015F0020E8FEC15F0080E8FEC15F0000E4D
:102A50008FEC15F0080E8FEC15F0000E8FEC15F0D2
:102A6000010E8FEC15F0000E8FEC15F00D0E8FECB3
:102A700015F01200016E01A040EF15F042EF15F0C5
:102A800045EF15F0C18046EF15F0C19001A24BEF64
:102A900015F04DEF15F050EF15F0C18251EF15F024
:102AA000C19201A456EF15F058EF15F05BEF15F049
:102AB000C1845CEF15F0C19401A661EF15F063EFDE
:102AC00015F066EF15F0C18667EF15F0C19612009C
:102AD00007C509F508C50AF57CEF15F0610024F477
:102AE000F6F4610028F4F7F4000EF86E0800F550D3
:102AF0009FEC15F0094A0A2A610024F4F6F46100FB
:102B000028F4F7F4000EF86E0800F5500009D8A478
:102B10008CEF15F08EEF15F06EEF15F01200036ECE
:102B2000C294C28403503AEC15F0150E026EC60E24
:102B3000E82EFED7022EFCD700D0C2941200066EFB
:102B400006C504F506380F0B056EC08E05508FECD8
:102B500015F004508FEC15F01200CB960401289765
:102B600029972C972A972B87C788089909890C9948
:102B70000A990B891200046EC08E000E8FEC15F0BE
:102B800004048FEC15F0C09E1200600E0001AD6FC2
:0C2B9000080EB16F120000018AEF14F073
:020000040001F9
:04FFFC00CBEF15F042
:020000040020DA
:10000000FF0FFF0FFF0FFF0FFF0FFF0FFF0FFF0F80
:10001000FF0FFF0FFF0FFF0FFF0FFF0FFF0FFF0F70
:10002000FF0FFF0FFF0FFF0FFF0FFF0FFF0FFF0F60
:10003000FF0FFF0FFF0FFF0FFF0FFF0FFF0FFF0F50
:020000040030CA
:0A0000008CDDFFFF9FFFDFFFFFFF15
:00000001FF
