:040000007DEF02F09E
:100400003E013E013E013E013E013E013E016B01C7
:1004100060013E013E013E013E013E013E013E01C2
:100420003E013E013E013E013E013E013E013E01D4
:100430003E013E013E013E013E013E013E013E01C4
:100440003E013E013E013E013E013E013E013E01B4
:100450003E013E013E013E013E013E013E013E01A4
:1004600060013E013E013E013E013E013E013E0172
:100470003E013E013E013E013E013E013E013E0184
:100480003E013E013E013E013E013E013E013E0174
:100490003E013E013E013E013E013E013E013E0164
:1004A0003E013E013E013E013E013E013E013E0154
:1004B0003E013E013E013E013E013E013E013E0144
:1004C0003E013E013E013E013E013E013E013E0134
:1004D0003E013E013E013E013E013E013E013E0124
:1004E0003E013E013E013E013E013E013E013E0114
:1004F0003E013E013E013E01FF00E8EF02F0C780F1
:100500000401089109810C910A910B81C78208931B
:1005100009830C930A930B839F80AF90030163813F
:10052000A480B4906881D68AD68ED68C9E8EAE9EDC
:10053000639104010E890D990F99D69E000E5F6F8D
:10054000040E5E6F000E5D6FD68E1200CB96040116
:10055000289729972C972A972B87CB94289529950C
:100560002C952A952B85CB92289329932C932A930B
:100570002B83C788089909890C990A990B8912005D
:10058000AFA0C5EF02F0C7EF02F0CAEF02F0080E0D
:10059000C31AAF90B4A0CFEF02F0D1EF02F0D4EFC6
:0A05A00002F0040EC31AB49011001B
:1005AC00610060F301F504010FA9DFEF02F0E1EF48
:1005BC0002F0E4EF02F0020EC31A0F99610004F48A
:1005CC00D8F41100076A0401000E5D6F040E5E6F13
:1005DC00000E5F6F0001F3EF02F0FDEC02F0A6ECF1
:1005EC0002F07FEC02F0F9EF02F07DEF02F0600E0A
:0A05FC000001AD6F080EB16F120090
:020000040020DA
:10000000FF0FFF0FFF0FFF0FFF0FFF0FFF0FFF0F80
:10001000FF0FFF0FFF0FFF0FFF0FFF0FFF0FFF0F70
:020000040030CA
:0A0000008CDDFFFF9FFFDFFFFFFF15
:00000001FF
