:040000007DEF02F09E
:10040000CC0ECC0ECC0ECC0E3E01CC0E3E01CC0E52
:10041000CC0ECC0ECC0ECC0ECC0ECC0ECC0ECC0E0C
:10042000CC0E3E013E013E01CC0ECC0ECC0ECC0ECD
:10043000CC0ECC0ECC0ECC0ECC0ECC0ECC0ECC0EEC
:10044000FF0DCC0ECC0ECC0E3E013E01CC0ECC0EE0
:10045000CC0ECC0ECC0E3E01CC0ECC0ECC0ECC0E67
:10046000CC0ECC0ECC0ECC0ECC0ECC0ECC0ECC0EBC
:10047000CC0ECC0ECC0ECC0E3E01CC0ECC0ECC0E47
:10048000CC0ECC0ECC0ECC0ECC0ECC0ECC0ECC0E9C
:10049000CC0ECC0ECC0ECC0E3E01CC0E3E013E015D
:1004A000CC0ECC0ECC0ECC0ECC0ECC0ECC0ECC0E7C
:1004B000CC0ECC0ECC0ECC0ECC0ECC0ECC0ECC0E6C
:1004C000CC0ECC0ECC0ECC0ECC0ECC0ECC0ECC0E5C
:1004D000CC0ECC0ECC0ECC0ECC0ECC0ECC0ECC0E4C
:1004E0003E01CC0ECC0ECC0E3E013E013E013E0143
:0E04F000CC0ECC0ECC0ECC0EFF00A0EF1CF0FC
:10250000004C616D70617261204F66660A0D004C6F
:10251000616D70617261204F6E0A0D0025630025A8
:0325200075000043
:102524001D50800B266E1D501D242C6E1CAE9DEF7D
:1025340012F09FEF12F0A0EF12F02C802C50D8B4C0
:10254400A6EF12F0A8EF12F0BBEF12F02C28D8A4DB
:10255400AEEF12F0B0EF12F0B8EF12F0000E1A6EF8
:10256400000E1B6E000E1C6E000E1D6E1C8EC3EF43
:1025740012F0000E1A6E000E1B6E000E1C6E000E82
:102584001D6E2150800B261A215021242B6E20AE63
:10259400CEEF12F0D0EF12F0D1EF12F02B802B50CF
:1025A400D8B4D7EF12F0D9EF12F0ECEF12F02B28D9
:1025B400D8A4DFEF12F0E1EF12F0E9EF12F0000E11
:1025C4001E6E000E1F6E000E206E000E216E208EF9
:1025D400F4EF12F0000E1E6E000E1F6E000E206E41
:1025E400000E216E2B50D8B4FAEF12F0FCEF12F06B
:1025F40004EF13F02C50D8A402EF13F004EF13F0FF
:102604000EEF13F0000E1A6E000E1B6E000E1C6E01
:10261400000E1D6EB8EF14F020501A026100CCF3C6
:1026240031F56100D0F332F53150276E286A296AFA
:102634002A6A32502D6E2E6A2F6A306A1F501B028E
:102644006100CCF331F56100D0F332F53150272627
:10265400000E282229222A2232502D26000E2E2254
:102664002F2230221E501C026100CCF331F5610090
:10267400D0F332F531502726000E282229222A22AF
:1026840032502D26000E2E222F22302229C52AF563
:1026940028C529F527C528F5276A1E501B026100A5
:1026A400CCF331F56100D0F332F5315027263250A6
:1026B4002822000E2922000E2A221F501A0261002D
:1026C400CCF331F56100D0F332F531502726325086
:1026D4002822000E2922000E2A2229C52AF528C5FF
:1026E40029F527C528F5276A1E501A026100CCF384
:1026F40031F56100D0F332F53150272632502822CB
:10270400000E2922000E2A2220501B026100CCF365
:1027140031F56100D0F332F531502D2632502E229E
:10272400000E2F22000E30221F501C026100CCF339
:1027340031F56100D0F332F531502D2632502E227E
:10274400000E2F22000E302220501C026100CCF318
:1027540031F56100D0F332F53150226E3250236EE0
:10276400246A256A24C525F523C524F522C523F545
:10277400226A22502D2623502E2224502F22255007
:10278400302227C522F528C523F529C524F52AC5F5
:1027940025F5190ED3EF13F0D890253224322332C5
:1027A4002232E82ECEEF13F022502D2623502E2273
:1027B40024502F222550302229C52AF528C529F571
:1027C40027C528F5276A2B502CC522F5236A222613
:1027D400000E2322820E2224316EFF0E2320326E3D
:1027E40009EF14F0D8902D362E362F3630362AAE17
:1027F400FEEF13F000EF14F001EF14F02D80D890E9
:102804002736283629362A363106D8A032062FAE86
:102814000EEF14F010EF14F0F4EF13F0000E2B6E23
:102824002AAE17EF14F019EF14F03DEF14F0FF0E79
:102834002714226EFF0E2814236EFF0E2914246E13
:102844007F0E2A14256E2250231024102510D8B48C
:102854002EEF14F030EF14F034EF14F0010E2B6E61
:102864003DEF14F02DA039EF14F03BEF14F03DEFE1
:1028740014F030EF14F02B50D8B443EF14F045EFBC
:1028840014F069EF14F0010E2D26000E2E222F22D3
:10289400302230A050EF14F052EF14F069EF14F02E
:1028A4002DC522F52EC523F52FC524F530C525F5F4
:1028B4002534253224322332223222C52DF523C574
:1028C4002EF524C52FF525C530F5314A322A32BEFE
:1028D40074EF14F0325008E13128D8A074EF14F0EA
:1028E40076EF14F080EF14F0000E2D6E000E2E6EB5
:1028F400800E2F6E7F0E306EAEEF14F032BE8DEF71
:1029040014F0325006E13104D8B08BEF14F08DEF9F
:1029140014F099EF14F0000E2D6E000E2E6E000EC2
:102924002F6E000E306E000E266EAEEF14F031C521
:102934002CF5FF0E2D16FF0E2E167F0E2F16000EF1
:1029440030162CA0A8EF14F0AAEF14F0ABEF14F09B
:102954002F8ED8902C30306E265030122DC51AF59B
:102964002EC51BF52FC51CF530C51DF512003650BC
:10297400800B0501646F365036246B6F35AEC5EF9E
:1029840014F0C7EF14F0C8EF14F06B816B51D8B496
:10299400CEEF14F0D0EF14F0E5EF14F06B29D8A4C7
:1029A400D6EF14F0D8EF14F0E0EF14F0000E336E0D
:1029B400000E346E000E356E000E366E358E000E2F
:1029C400366EEDEF14F0000E336E000E346E000E12
:1029D400356E000E366E3A50800B641B3A503A2422
:1029E4006C6F39AEF8EF14F0FAEF14F0FBEF14F05B
:1029F4006C816C51D8B401EF15F003EF15F018EFAA
:102A040015F06C29D8A409EF15F00BEF15F013EFAE
:102A140015F0000E376E000E386E000E396E000E83
:102A24003A6E398E000E3A6E20EF15F0000E376EB6
:102A3400000E386E000E396E000E3A6E37503810A4
:102A440039103A10D8A429EF15F02BEF15F043EF05
:102A540015F0000E336E000E346E000E356E000E4F
:102A6400366E800E35127F0E36126451361233C51F
:102A740033F534C534F535C535F536C536F586EF49
:102A840016F06B51D8A449EF15F04BEF15F055EF44
:102A940015F0000E336E000E346E000E356E000E0F
:102AA400366E86EF16F06C516BC53BF53C6A3B5EA7
:102AB400000E3C5A7F0E3B24656F000E3C20666F6F
:102AC40033C560F534C561F535C562F536C563F5C2
:102AD400000E336E000E346E000E356E000E366E30
:102AE400000E676F000E686F000E696F000E6A6F4C
:102AF400000E6C6FB6EF15F06C51D8B484EF15F07E
:102B040086EF15F09DEF15F0D89060376137623786
:102B14006337D89033363436353636366AAF95EF68
:102B240015F097EF15F098EF15F03380D8906737CC
:102B3400683769376A373750605D385061593950A2
:102B440062593A506359D8A0AAEF15F0ACEF15F0CA
:102B5400B5EF15F06A8D3750605F3850615B3950BE
:102B6400625B3A50635B6C2B190E6C65BCEF15F01D
:102B7400BEEF15F07EEF15F0605161116211631123
:102B8400D8B4C7EF15F0C9EF15F0E1EF15F0678180
:102B9400E1EF15F0D89033363436353636366AAF31
:102BA400D6EF15F0D8EF15F0D9EF15F03380D890A3
:102BB4006737683769376A376507D8A0660735AE5F
:102BC400E6EF15F0E8EF15F0CCEF15F0000E6C6FA2
:102BD4006AAFEFEF15F0F1EF15F015EF16F0FF0EF9
:102BE40067153B6EFF0E68153C6EFF0E69153D6E52
:102BF4007F0E6A153E6E3B503C103D103E10D8B41B
:102C040006EF16F008EF16F00CEF16F0010E6C6FDD
:102C140015EF16F033A011EF16F013EF16F015EFC1
:102C240016F008EF16F06C51D8B41BEF16F01DEF38
:102C340016F041EF16F0010E3326000E3422352231
:102C4400362236A028EF16F02AEF16F041EF16F0E0
:102C540033C53BF534C53CF535C53DF536C53EF5C4
:102C64003E343E323D323C323B323BC533F53CC50B
:102C740034F53DC535F53EC536F5654B662B66BF67
:102C84004CEF16F0665108E16529D8A04CEF16F018
:102C94004EEF16F059EF16F0000E666F6569000EE0
:102CA400336E000E346E000E356E000E366E66BF47
:102CB40066EF16F0665106E16505D8B064EF16F0CC
:102CC40066EF16F074EF16F0000E666F000E656F77
:102CD400000E336E000E346E000E356E000E366E2E
:102CE400000E646F65C56BF56BA17BEF16F07DEF8D
:102CF40016F080EF16F0358E81EF16F0359ED890E1
:102D04006B31366E37EF15F01200610088F5D9F497
:102D140061008CF5DAF4DEC4F6F4DDC4F7F4000ED9
:102D2400F86E0800F550250AD8A49BEF16F09DEF25
:102D340016F098EF17F0610088F5D9F461008CF56E
:102D4400DAF4DE2A000EDD22000E4C6E000E4B6E0D
:102D54004BC54FF54CC550F54D684E68610088F57C
:102D6400D9F461008CF5DAF4DEC4F6F4DDC4F7F4CA
:102D7400000EF86E0800F550630AD8A4C4EF16F0EC
:102D8400C6EF16F0F6EF16F0610088F5D9F461008D
:102D94008CF5DAF4DE2A000EDD22610090F5D9F418
:102DA400610094F5DAF461007CF366F5020EDE2628
:102DB40061007CF367F5000EDD22610098F5D9F41B
:102DC40061009CF5DAF4DF500501726F60C517F5F8
:102DD40061C518F572C519F580EC1AF017C560F5D0
:102DE40018C561F5B9EF17F0610088F5D9F46100F1
:102DF4008CF5DAF4DEC4F6F4DDC4F7F4000EF86EF4
:102E04000800F550750AD8A40AEF17F00CEF17F074
:102E140058EF17F0610088F5D9F461008CF5DAF405
:102E2400DE2A000EDD22610090F5D9F4610094F5EC
:102E3400DAF461007CF366F5020EDE2661007CF3B1
:102E440067F5000EDD22610098F5D9F461009CF568
:102E5400DAF4610078F368F5610074F369F568C524
:102E64006AF569C56BF505016C6B6D6B6E6B6F6B09
:102E7400706B716B60C529F561C52AF56AC52BF5C0
:102E84006BC52CF56CC52DF56DC52EF56EC52FF5EE
:102E94006FC530F570C531F571C532F5BAEC17F070
:102EA40029C560F52AC561F5B9EF17F0610088F509
:102EB400D9F461008CF5DAF4DEC4F6F4DDC4F7F479
:102EC400000EF86E0800F550250AD8A46CEF17F030
:102ED4006EEF17F088EF17F0610088F5D9F4610000
:102EE4008CF5DAF4DE2A000EDD22000E0F6E250EBC
:102EF4000E6E60C510F561C511F5B3EC1BF0000E44
:102F04000501616F010E606FB9EF17F0610088F57C
:102F1400D9F461008CF5DAF4DE2A000EDD22000E0D
:102F24000501616F000E606FB9EF17F0610088F55D
:102F3400D9F461008CF5DAF4DEC4F6F4DDC4F7F4F8
:102F4400000EF86E0800F5500E6E0F6A60C510F59D
:102F540061C511F5B3EC1BF0610088F5D9F461008B
:102F64008CF5DAF4DE2A000EDD2281EF17F0120070
:102F74004EBEBFEF17F0C1EF17F0C2EF17F04F923C
:102F84004EBECFEF17F04E5006E14D04D8B0CDEF52
:102F940017F0CFEF17F0D5EF17F0000E3C6E010ECF
:102FA4003B6ED9EF17F04DC53BF54EC53CF54BC50F
:102FB4003DF54CC53EF52BC53FF52CC540F52DC55B
:102FC40041F52EC542F52FC543F530C544F531C54D
:102FD40045F532C546F5000E486E1F0E476E000ECD
:102FE4000501A86F6CEF18F04706D8A04806890EB3
:102FF4004724D96E050E4820DA6E3FC50CF540C54E
:103004000DF541C50EF542C50FF543C510F544C590
:1030140011F545C512F546C513F50A0E146E000EDA
:10302400156E000E166E000E176E000E186E000E52
:10303400196E000E1A6E000E1B6EEAEC1AF00CC527
:1030440033F50DC534F50EC535F50FC536F510C588
:1030540037F511C538F512C539F513C53AF53350AE
:10306400300FDF6E3B06D8A03C063D06D8A03E06D6
:103074003FC50CF540C50DF541C50EF542C50FF52C
:1030840043C510F544C511F545C512F546C513F5FC
:103094000A0E146E000E156E000E166E000E176EDC
:1030A400000E186E000E196E000E1A6E000E1B6EC6
:1030B40094EC19F00CC53FF50DC540F50EC541F56E
:1030C4000FC542F510C543F511C544F512C545F5C4
:1030D40013C546F547504810D8B473EF18F075EF90
:1030E40018F0A5EF18F03F50401041104210431063
:1030F400441045104610D8A482EF18F084EF18F05D
:10310400F6EF17F03CBE91EF18F03C5006E13B049B
:10311400D8B08FEF18F091EF18F0F6EF17F03EBE2D
:103124009CEF18F03E5008E13D04D8A09CEF18F045
:103134009EEF18F0A5EF18F04FB2A3EF18F0A5EF2B
:1031440018F0F6EF17F029C51EF52AC51FF5890EEC
:103154004724206E050E4820216E3DC522F53EC54C
:1031640023F552EC1BF01EC529F51FC52AF51200E4
:10317400146E1450D8B4C1EF18F0C3EF18F0E5EF93
:1031840018F00FBECAEF18F0C8EF18F0E5EF18F00A
:103194000CC510F50DC511F50EC512F50FC513F5C7
:1031A400101E111E121E131E102A000E11221222AE
:1031B400132210C516F511C517F512C518F513C558
:1031C40019F5EDEF18F00CC516F50DC517F50EC57C
:1031D40018F50FC519F50C500D100E100F10D8A4CA
:1031E400F6EF18F0F8EF18F002EF19F0000E0C6E7D
:1031F400000E0D6E000E0E6E000E0F6E93EF19F0A2
:10320400960E156E0CEF19F0152AD8901932183253
:1032140017321632000E1614106E000E1714116EAB
:10322400000E1814126EFE0E1914136E10501110A5
:1032340012101310D8A421EF19F023EF19F006EFA0
:1032440019F031EF19F0152A010E1626000E172277
:1032540018221922D8901932183217321632000E59
:103264001614106E000E1714116E000E1814126E40
:10327400FF0E1914136E1050111012101310D8A44D
:1032840046EF19F048EF19F025EF19F050EF19F057
:103294001506D890163617361836193618BE55EF57
:1032A40019F057EF19F05FEF19F0020E15605DEF9A
:1032B40019F05FEF19F04AEF19F015B064EF19F047
:1032C40066EF19F067EF19F0189ED890153215C5FE
:1032D40010F5116A126A136A10C513F5126A116A9D
:1032E400106A10501612115017121250181213505F
:1032F40019121450D8B481EF19F083EF19F08BEF41
:1033040019F00FBE8AEF19F088EF19F08BEF19F05E
:10331400198E16C50CF517C50DF518C50EF519C58A
:103324000FF5120021EE1CF1070EDE6AE806FDE23D
:103334001450151016101710181019101A101B100D
:10334400D8B4A7EF19F0A9EF19F0FBEF19F0010EAB
:10335400246EB7EF19F0D890143615361636173692
:10336400183619361A361B36242A1BAEBCEF19F050
:10337400BEEF19F0ADEF19F0D8901C361D361E368D
:103384001F36203621362236233614500C5C155055
:103394000D5816500E5817500F58185010581950F1
:1033A40011581A5012581B501358D8A0DCEF19F0BA
:1033B400DEEF19F0EFEF19F014500C5E15500D5AB2
:1033C40016500E5A17500F5A1850105A1950115AB5
:1033D4001A50125A1B50135A1C80D8901B321A329E
:1033E400193218321732163215321432242EBEEF27
:1033F40019F01CC50CF51DC50DF51EC50EF51FC530
:103404000FF520C510F521C511F522C512F523C508
:1034140013F512008CEC1DF046EC1DF084EC1DF04D
:1034240059EC1DF0800E0C6E250E0D6E000E0E6E06
:10343400000E0F6E03EC1DF0000E1BEC1DF00CC50E
:10344400ADF50DC5AEF5330E1E6E330E1F6E530E65
:10345400206E400E216EADC50CF5AEC50DF50E6A9D
:103464000F6A000EBAEC18F00CC51AF50DC51BF561
:103474000EC51CF50FC51DF592EC12F01AC533F5F7
:103484001BC534F51CC535F51DC536F5000E376E64
:10349400F00E386E7F0E396E450E3A6EB9EC14F0AC
:1034A40033C5A9F534C5AAF535C5ABF536C5ACF5B4
:1034B4001C0E0501796F250E7A6FA9C57BF57C6B0F
:1034C40032EC1DF01F0E0501796F250E7A6FADC524
:1034D4007BF5AEC57CF532EC1DF0090E0501856F58
:1034E4001E0E846FE40EE82EFED7842FFCD7852FA2
:1034F400FAD700F01EEF1AF07DEF02F04B504C109B
:10350400D8A487EF1AF089EF1AF08FEF1AF04BC5A1
:103514001DF54CC51EF595EF1AF0FF0E4B241D6EDC
:10352400FF0E4C201E6E4FA09AEF1AF09CEF1AF07B
:10353400A5EF1AF019C50EF50F6A17C510F518C5D1
:1035440011F5B3EC1BF01EBEAAEF1AF0ACEF1AF0A3
:10355400AEEF1AF0B2EF1AF0000E1E6E000E1D6EE2
:10356400000E1C6E000E1B6EC4EF1AF0000E0F6EE0
:10357400200E0E6E17C510F518C511F5B3EC1BF02F
:103584001B4A1C2A1D501B5C1C50800A1A6E1E50BC
:10359400800A1A58D8A0D1EF1AF0D3EF1AF0B8EF76
:1035A4001AF04FB0D8EF1AF0DAEF1AF0E3EF1AF08E
:1035B40019C50EF50F6A17C510F518C511F5B3EC4A
:1035C4001BF0010E1B24176E000E1C20186E120037
:1035D4001450151016101710181019101A101B106B
:1035E400D8B4F7EF1AF0F9EF1AF041EF1BF0010E1F
:1035F4001C6E07EF1BF0D8901436153616361736A6
:10360400183619361A361B361C2A1BAE0CEF1BF063
:103614000EEF1BF0FDEF1AF014500C5C15500D5812
:1036240016500E5817500F5818501058195011585A
:103634001A5012581B501358D8A023EF1BF025EF33
:103644001BF035EF1BF014500C5E15500D5A16503C
:103654000E5A17500F5A1850105A1950115A1A501E
:10366400125A1B50135AD8901B321A32193218327C
:1036740017321632153214321C2E0EEF1BF00CC505
:103684000CF50DC50DF50EC50EF50FC50FF510C5DE
:1036940010F511C511F512C512F513C513F5120075
:1036A4004FA057EF1BF059EF1BF063EF1BF020C541
:1036B40017F521C518F51EC519F51FC51AF5C4EC73
:1036C4001CF023BE68EF1BF06AEF1BF070EF1BF0D9
:1036D40022C527F523C528F574EF1BF0000E286ECC
:1036E400000E276E000E266E000E256E86EF1BF070
:1036F400000E0F6E200E0E6E1EC510F51FC511F5BF
:10370400B3EC1BF0254A262A2750255C2650800A54
:10371400246E2850800A2458D8A093EF1BF095EF0C
:103724001BF07AEF1BF04FB09AEF1BF09CEF1BF0ED
:10373400A6EF1BF020C517F521C518F51EC519F510
:103744001FC51AF5C4EC1CF020C50CF521C50DF5F8
:10375400E6EC1CF027500C241E6E28500D201F6E22
:10376400120010501110D8B4BAEF1BF0BCEF1BF0CC
:10377400C5EF1BF010501110D8A4C3EF1BF0C5EF18
:103784001BF0CAEF1BF00E5092EC1DF0FDEF1BF086
:1037940020EE04F01050D9261150DA22DE50DE104B
:1037A400D8B4D7EF1BF0D9EF1BF0F4EF1BF020EEE9
:1037B40004F01050D9261150DA2210EE02F0105005
:1037C400E1261150E222DE50E65CE650800A166ED5
:1037D400DE50800A1658D8B0F2EF1BF0F4EF1BF05D
:1037E400FDEF1BF020EE02F01050D9261150DA2222
:1037F400DE2A000EDD2212006100D8F308F5610014
:10380400DCF309F56100E0F30AF56100D4F30BF58C
:10381400600084FA52F521EF1CF0C3960F0E026E7D
:10382400250E036E79EC1CF036EF1CF0C386010EF6
:10383400026E250E036E79EC1CF036EF1CF052502C
:10384400066E076A0750000AD8B42BEF1CF036EF57
:103854001CF00650410AD8B40FEF1CF0030AD8B488
:1038640018EF1CF036EF1CF0B29061002CF4F5F464
:10387400610028F4F8F4610024F4F7F4610020F402
:10388400F6F4110075C549F576C54AF5000E050133
:10389400876F000E866F62EF1CF073C560F574C508
:1038A40061F5490E626F050E636F77C564F578C5DF
:1038B40065F587EC16F00501605186276151872371
:1038C400610024F5F6F4610028F5F7F4000EF86EB3
:1038D4000800F5500009D8A472EF1CF074EF1CF036
:1038E4004FEF1CF086C573F587C574F5120002C549
:1038F40004F503C505F58DEF1CF0610010F4F6F432
:10390400610014F4F7F4000EF86E0800F55077EC3B
:103914001DF0044A052A610010F4F6F4610014F461
:10392400F7F4000EF86E0800F5500009D8A49DEFD6
:103934001CF09FEF1CF07FEF1CF012002E0EF66EB1
:103944003B0EF76E000EF86E09006100D4F353F5D8
:1039540009006100D4F354F501EE86F1230EEE6AFA
:10396400E806FDE101EE4BF1080EEE6AE806FDE122
:103974000401000E5D6F040E5E6F000E5F6F0001A8
:103984000CEF1AF0000E1D6E000E1C6ED5EF1CF02D
:103994001BC50EF50F6A19C510F51AC511F5B3EC60
:1039A4001BF01C4A1D2A1C501724D96E1D501820C8
:1039B400DA6EDF501B6E1B50D8A4E3EF1CF0E5EF6A
:1039C4001CF0CAEF1CF012000CC50EF50DC50FF566
:1039D400EEEF1CF00C4A0D2A610030F4D9F46100BA
:1039E40034F4DAF4DF50D8A4FAEF1CF0FCEF1CF046
:1039F400ECEF1CF00E500C5C0C6E0F500D580D6E5D
:103A040012000201AB9F010EAF6FA00EAE6FF00E5D
:103A1400AB17AC8FAB8BAB89200E296FCB82040123
:103A2400289329932C932B832A93290E0201726FD6
:103A34001200106E610040F4ECF30301F381F3B162
:103A440026EF1DF028EF1DF021EF1DF0EB510F6E56
:103A54000E6AEA510E240C6E000E0F200D6E120039
:103A64007B0E05017D6F050E7E6F000E736F000ED9
:103A7400746F79C575F57AC576F57D0E776F050E89
:103A8400786F44EC1CF01200C6800401008103012D
:103A9400F3990F0EFA6FF80EF517F351F30B0409AF
:103AA400F36F0F0EF817F00EF817F38F1200D68E7F
:103AB400D68CD68AA280B29003016681D69E000E6F
:103AC40004015F6F040E5E6F000E5D6FD68E1200F0
:103AD4000C6E0201B2AF71EF1DF073EF1DF06BEFCE
:103AE4001DF0610030F4A3F21200016E0201B2AFC6
:103AF4007EEF1DF080EF1DF078EF1DF0610004F4FF
:103B0400A3F21200CB960401289729972C972A97A1
:103B14002B871200600E0001AD6F080EB16F12000A
:0E3B24000D6E0D506AEC1DF01200A905110087
:020000040020DA
:10000000FF0FFF0FFF0FFF0FFF0FFF0FFF0FFF0F80
:10001000FF0FFF0FFF0FFF0FFF0FFF0FFF0FFF0F70
:10002000FF0FFF0FFF0FFF0FFF0FFF0FFF0FFF0F60
:10003000FF0FFF0FFF0FFF0FFF0FFF0FFF0FFF0F50
:020000040030CA
:0A0000008CDDFFFF9FFFDFFFFFFF15
:00000001FF
