:040000007DEF02F09E
:1004000086098609860986093E0186093E01860914
:100410008609860986098609860986098609860964
:1004200086093E013E013E01860986098609860944
:1004300086098609860986098609860986097F094B
:1004400086098609860986093E013E0186098609D4
:100450008609860986093E01860986098609860974
:100460008609860986098609860986098609860914
:1004700086098609860986093E0186098609860954
:1004800086098609860986098609860986098609F4
:1004900086098609860986093E0186093E013E01D4
:1004A00086098609860986098609860986098609D4
:1004B00086098609860986098609860986098609C4
:1004C00086098609860986098609860986098609B4
:1004D00086098609860986098609860986098609A4
:1004E0003E018609860986093E013E013E013E0124
:0E04F0008609860986098609FF00E2EF12F0F0
:0925000000686F6C610A0D000017
:10250A0002C504F503C505F597EF12F0610010F452
:10251A00F6F4610014F4F7F40800F550F0EC12F048
:10252A00044A052A610010F4F6F4610014F4F7F481
:10253A000800F5500009D8A4A5EF12F0A7EF12F091
:10254A008BEF12F0120005EC13F0800E016E250ECF
:10255A00026E000E036E000E046ECAEC12F0010E3B
:10256A00026E250E036E85EC12F0110E0C6E3C0EF7
:10257A000B6ECB0EE82EFED70B2EFCD70C2EFAD7FD
:10258A0000F0B4EF12F07DEF02F00201AB9F010EF2
:10259A00AF6FA00EAE6FF00EAB17AC8FAB8BAB89E3
:1025AA00200E296FCB820401289329932C932B8325
:1025BA002A93290E0201726F12000401000E5D6F48
:1025CA00040E5E6F000E5F6F000EF86E250EF76E3A
:1025DA000001A8EF12F0016E0201B2AFF7EF12F09C
:1025EA00F9EF12F0F1EF12F0610004F4A3F2120015
:1025FC00100EBF1A030118691969B19E1100600E03
:0A260C000001AD6F080EB16F12005F
:022618001100AF
:020000040020DA
:10000000FF0FFF0FFF0FFF0FFF0FFF0FFF0FFF0F80
:10001000FF0FFF0FFF0FFF0FFF0FFF0FFF0FFF0F70
:10002000FF0FFF0FFF0FFF0FFF0FFF0FFF0FFF0F60
:10003000FF0FFF0FFF0FFF0FFF0FFF0FFF0FFF0F50
:020000040030CA
:0A0000008CDDFFFF9FFFDFFFFFFF15
:00000001FF
