:040000007DEF02F09E
:100400007E017E017E017E013E017E013E017E0174
:100410007E017E017E017E017E017E017E017E01E4
:100420007E013E013E013E017E017E017E017E0194
:100430007E017E017E017E017E017E017E017701CB
:100440007E017E017E017E013E013E017E017E0134
:100450007E017E017E013E017E017E017E017E01E4
:100460007E017E017E017E017E017E017E017E0194
:100470007E017E017E017E013E017E017E017E01C4
:100480007E017E017E017E017E017E017E017E0174
:100490007E017E017E017E013E017E013E013E0124
:1004A0007E017E017E017E017E017E017E017E0154
:1004B0007E017E017E017E017E017E017E017E0144
:1004C0007E017E017E017E017E017E017E017E0134
:1004D0007E017E017E017E017E017E017E017E0124
:1004E0003E017E017E017E013E013E013E013E0154
:1004F0007E017E017E017E01FF00DCEF02F0036ED3
:10050000A8EF02F003011A9F1A99F00E1A171B5157
:100510001F0B40091B6F1B991B51F00B01091B6F2F
:100520007D0E186F1A8FBDEF02F003011A9F1A8912
:100530001A51F00B01091A6F1B511F0B40091B6F59
:100540001B99F00E1B17186919691A8FBDEF02F07D
:100550000350016E026A0250000AD8B4B2EF02F0F2
:10056000BDEF02F00150000AD8B482EF02F0010A98
:10057000D8B495EF02F0BDEF02F01200D68ED68C03
:10058000D68AA18EB19E0301658FD69E000E04010E
:100590005F6F040E5E6F000E5D6FD68E1200F5EC7D
:1005A00002F0E6EC02F0BEEC02F0000E7FEC02F08E
:1005B000D8EF02F07DEF02F00401000E5D6F040E33
:1005C0005E6F000E5F6F0001CFEF02F0C79804016D
:1005D000089909990C990A990B891200100EBF1AF3
:1005E0007D0E0301186FB19E1100600E0001AD6F0A
:0605F000000EB16F1200C5
:0205F8001100F0
:020000040020DA
:10000000FF0FFF0FFF0FFF0FFF0FFF0FFF0FFF0F80
:10001000FF0FFF0FFF0FFF0FFF0FFF0FFF0FFF0F70
:020000040030CA
:0A000000ECDDFFFF9FFFFFFFFFFF95
:00000001FF
