:0400000007EF00F016
:100008005382E8ED09F05CEF09F03BEC0AF009ECEB
:100018000AF0F9EC09F0C4EC09F0000E4B6E000E82
:100028004A6ED8904A34D96E4B34DA6E740ED9269B
:10003800000EDA22000EDE6E000EDD6E000E0001EC
:10004800646F000E656F000E666F000E676F000E1E
:10005800606F000E616F000E626F000E636F4A4A98
:100068004B2A4B5009E10B0E4A5CD8A03EEF00F03A
:1000780040EF00F015EF00F05050D8B446EF00F014
:1000880048EF00F040EF00F086C088F087C089F0A4
:1000980084C086F085C087F082C084F083C085F074
:1000A80080C082F081C083F07EC080F07FC081F084
:1000B8007CC07EF07DC07FF07AC07CF07BC07DF094
:1000C80078C07AF079C07BF076C078F077C079F0A4
:1000D80074C076F075C077F08AC074F08BC075F084
:1000E80060C064F061C065F062C066F063C067F02C
:1000F8005F0E206E5A0E216E170E226E3C0E236E76
:1001080076C00EF077C00FF0106A116A000E36EC58
:1001180007F00EC01CF00FC01DF010C01EF011C07B
:100128001FF021EC05F01CC039F01DC03AF01EC0CC
:100138003BF01FC03CF074C008F075C009F0000E19
:100148000B6E000E0A6EB1EC09F008C00EF009C083
:100158000FF0106A116A000E36EC07F00EC035F089
:100168000FC036F010C037F011C038F0C1EC02F003
:1001780035C090F036C091F037C092F038C093F097
:10018800880E206E790E216E400E226E3D0E236E73
:1001980078C00EF079C00FF0106A116A000E36ECC4
:1001A80007F00EC01CF00FC01DF010C01EF011C0EB
:1001B8001FF021EC05F01CC039F01DC03AF01EC03C
:1001C8003BF01FC03CF090C035F091C036F092C0B3
:1001D80037F093C038F0C1EC02F035C094F036C067
:1001E80095F037C096F038C097F094C035F095C0B8
:1001F80036F096C037F097C038F0100E206E9F0E7C
:10020800216EF70E226E3D0E236E7AC00EF07BC073
:100218000FF0106A116A000E36EC07F00EC01CF0E1
:100228000FC01DF010C01EF011C01FF021EC05F02A
:100238001CC039F01DC03AF01EC03BF01FC03CF096
:10024800C1EC02F035C068F036C069F037C06AF01A
:1002580038C06BF0730E206E710E216E750E226E13
:100268003E0E236E7EC00EF07FC00FF0106A116A3A
:10027800000E36EC07F00EC01CF00FC01DF010C0C9
:100288001EF011C01FF021EC05F01CC039F01DC094
:100298003AF01EC03BF01FC03CF0B70E206EE30ED4
:1002A800216E4F0E226E3E0E236E7CC00EF07DC076
:1002B8000FF0106A116A000E36EC07F00EC01CF041
:1002C8000FC01DF010C01EF011C01FF021EC05F08A
:1002D8001CC035F01DC036F01EC037F01FC038F006
:1002E800C1EC02F035C090F036C091F037C092F002
:1002F80038C093F0B70E206EE30E216E4F0E226EBB
:100308003E0E236E80C00EF081C00FF0106A116A95
:10031800000E36EC07F00EC01CF00FC01DF010C028
:100328001EF011C01FF021EC05F01CC039F01DC0F3
:100338003AF01EC03BF01FC03CF090C035F091C0B1
:1003480036F092C037F093C038F0C1EC02F035C0F7
:1003580094F036C095F037C096F038C097F0100E7C
:10036800206E9F0E216EF70E226E3D0E236E82C008
:100378000EF083C00FF0106A116A000E36EC07F019
:100388000EC01CF00FC01DF010C01EF011C01FF0F1
:1003980021EC05F01CC039F01DC03AF01EC03BF03E
:1003A8001FC03CF094C035F095C036F096C037F0C9
:1003B80097C038F0C1EC02F035C08CF036C08DF033
:1003C80037C08EF038C08FF068C035F069C036F09D
:1003D8006AC037F06BC038F08CC039F08DC03AF085
:1003E8008EC03BF08FC03CF0C1EC02F035C068F025
:1003F80036C069F037C06AF038C06BF05F0E206E07
:100408005A0E216E170E226E3C0E236E86C00EF019
:1004180087C00FF0106A116A000E36EC07F00EC0A4
:100428001CF00FC01DF010C01EF011C01FF021EC11
:1004380005F01CC039F01DC03AF01EC03BF01FC0CB
:100448003CF0880E206E790E216E400E226E3D0E15
:10045800236E84C00EF085C00FF0106A116A000E7A
:1004680036EC07F00EC01CF00FC01DF010C01EF0D7
:1004780011C01FF021EC05F01CC035F01DC036F08E
:100488001EC037F01FC038F0C1EC02F035C090F044
:1004980036C091F037C092F038C093F0000E0B6E62
:1004A800000E0A6E88C008F089C009F0B1EC09F0A6
:1004B80008C00EF009C00FF0106A116A000E36EC81
:1004C80007F00EC039F00FC03AF010C03BF011C071
:1004D8003CF090C035F091C036F092C037F093C030
:1004E80038F0C1EC02F035C094F036C095F037C052
:1004F80096F038C097F068C035F069C036F06AC029
:1005080037F06BC038F094C039F095C03AF096C017
:100518003BF097C03CF0C1EC02F035C068F036C043
:1005280069F037C06AF038C06BF068C008F069C07D
:1005380009F06AC00AF06BC00BF0D9EC08F008C0EB
:100548006CF009C06DF000016D51526E6CC051F035
:1005580032EC0AF0000E086EC00E99EC09F0525009
:10056800D6EC09F05150D6EC09F029EC0AF0000E4F
:10057800506E40EF00F007EF00F03850800B416EEE
:1005880038503824436E37AECCEF02F0CEEF02F08D
:10059800CFEF02F043804350D8B4D5EF02F0D7EF45
:1005A80002F0ECEF02F04328D8A4DDEF02F0DFEF11
:1005B80002F0E7EF02F0000E356E000E366E000E08
:1005C800376E000E386E378E000E386EF4EF02F07C
:1005D800000E356E000E366E000E376E000E386E49
:1005E8003C50800B426E41504218D8B4FEEF02F0E6
:1005F80000EF03F001EF03F0418C3C503C24426EC5
:100608003BAE09EF03F00BEF03F00CEF03F0428071
:100618004250D8B412EF03F014EF03F029EF03F0BF
:100628004228D8A41AEF03F01CEF03F024EF03F0DC
:10063800000E396E000E3A6E000E3B6E000E3C6ED8
:100648003B8E000E3C6E31EF03F0000E396E000E4B
:100658003A6E000E3B6E000E3C6E4350425CD8B0C2
:1006680038EF03F03AEF03F061EF03F041AC3FEFEE
:1006780003F041EF03F043EF03F0800E411A43C04B
:1006880044F042C043F044C042F035C044F039C0A1
:1006980035F044C039F036C044F03AC036F044C0B2
:1006A8003AF037C044F03BC037F044C03BF038C0A4
:1006B80044F03CC038F044C03CF0000E446E435057
:1006C80042C03DF03E6A3D5E000E3E5A3EBE76EFA9
:1006D80003F03E5009E11A0E3D5CD8A076EF03F016
:1006E80078EF03F0AFEF03F03550361037103810BD
:1006F800D8A481EF03F084EF03F0010E85EF03F037
:10070800000E446E000E356E000E366E000E376E0B
:10071800000E386E42C043F0B8EF03F044A097EFE4
:1007280003F099EF03F09FEF03F0D89044300109EC
:10073800446EA1EF03F0D890443235A0A6EF03F041
:10074800A8EF03F0A9EF03F0448E3834383237327B
:1007580036323532432A4250435CD8A0B6EF03F014
:10076800B8EF03F092EF03F041BCBDEF03F0BFEF29
:1007780003F0FFEF03F04350D8A4C5EF03F0C7EF31
:1007880003F0D1EF03F0000E356E000E366E000E4A
:10079800376E000E386E20EF05F0395035263A5086
:1007A80036223B5037223C50382238A0DEEF03F087
:1007B800E0EF03F08CEF04F044A0E5EF03F0E7EF7F
:1007C80003F0EDEF03F0D89044300109446EEFEFE9
:1007D80003F0D890443235A0F4EF03F0F6EF03F0BD
:1007E800F7EF03F0448E3834383237323632353248
:1007F800432A8CEF04F03950355C3A5036583B5058
:1008080037583850800A3D6E3C50800A3D58D8B061
:1008180010EF04F012EF04F03DEF04F03550395CAE
:100828003D6E36503A583E6E37503B583F6E385002
:100838003C58406EFF0E3D24356EFF0E3E20366E4E
:10084800FF0E3F20376EFF0E4020386E800E411A93
:10085800446C4450D8A433EF04F035EF04F045EF6E
:1008680004F0010E3526000E36223722382245EFD5
:1008780004F03950355E3A50365A3B50375A3C509E
:10088800385A3550361037103810D8A44EEF04F0C7
:1008980050EF04F085EF04F04450D8A456EF04F06C
:1008A80058EF04F085EF04F0000E356E000E366E3A
:1008B800000E376E000E386E20EF05F0D8903536F2
:1008C80036363736383644AE6CEF04F06EEF04F047
:1008D8006FEF04F0358044A074EF04F076EF04F075
:1008E8007AEF04F0D88044367CEF04F0D890443690
:1008F8004350D8B482EF04F084EF04F085EF04F09D
:10090800430637AE8AEF04F08CEF04F062EF04F090
:10091800000E426E44AE93EF04F095EF04F0ADEF95
:1009280004F044C03DF07F0E3D16D8B49EEF04F0AD
:10093800A0EF04F0A4EF04F0010E426EADEF04F056
:1009480035A0A9EF04F0ABEF04F0ADEF04F0A0EF91
:1009580004F04250D8B4B3EF04F0B5EF04F0E0EF80
:1009680004F0010E3526000E36223722382238A030
:10097800C0EF04F0C2EF04F0E0EF04F035C03DF042
:1009880036C03EF037C03FF038C040F04034403207
:100998003F323E323D323DC035F03EC036F03FC0BA
:1009A80037F040C038F04328D8B4DDEF04F0DFEF6B
:1009B80004F0E0EF04F0432A4328D8B4E6EF04F04B
:1009C800E8EF04F0F0EF04F04350D8A4EEEF04F0A1
:1009D800F0EF04F002EF05F0000E356E000E366EF3
:1009E800000E376E000E386E4350D8A4FEEF04F0A8
:1009F80000EF05F002EF05F0000E416E43A007EF8F
:100A080005F009EF05F00CEF05F0378E0DEF05F056
:100A1800379ED8904330386E41AE15EF05F017EF8A
:100A280005F018EF05F0388E35C035F036C036F0D1
:100A380037C037F038C038F012001F50800B286ECE
:100A48001F501F242E6E1EAE2CEF05F02EEF05F062
:100A58002FEF05F02E802E50D8B435EF05F037EF84
:100A680005F04AEF05F02E28D8A43DEF05F03FEF3A
:100A780005F047EF05F0000E1C6E000E1D6E000E0F
:100A88001E6E000E1F6E1E8E52EF05F0000E1C6EBD
:100A9800000E1D6E000E1E6E000E1F6E2350800B82
:100AA800281A23502324296E22AE5DEF05F05FEF4C
:100AB80005F060EF05F029802950D8B466EF05F0FD
:100AC80068EF05F07BEF05F02928D8A46EEF05F054
:100AD80070EF05F078EF05F0000E206E000E216E25
:100AE800000E226E000E236E228E83EF05F0000E9C
:100AF800206E000E216E000E226E000E236E29500D
:100B0800D8B489EF05F08BEF05F093EF05F02E5080
:100B1800D8A491EF05F093EF05F09DEF05F0000ED6
:100B28001C6E000E1D6E000E1E6E000E1F6E35EF41
:100B380007F022501C02F3CF33F0F4CF34F03350D7
:100B48002A6E2B6A2C6A2D6A34502F6E306A316AED
:100B5800326A21501D02F3CF33F0F4CF34F0335012
:100B68002A26000E2B222C222D2234502F26000E4E
:100B780030223122322220501E02F3CF33F0F4CF3C
:100B880034F033502A26000E2B222C222D223450EA
:100B98002F26000E3022312232222CC02DF02BC0FD
:100BA8002CF02AC02BF02A6A20501D02F3CF33F014
:100BB800F4CF34F033502A2634502B22000E2C2246
:100BC800000E2D2221501C02F3CF33F0F4CF34F065
:100BD80033502A2634502B22000E2C22000E2D22B0
:100BE8002CC02DF02BC02CF02AC02BF02A6A2050E4
:100BF8001C02F3CF33F0F4CF34F033502A263450AC
:100C08002B22000E2C22000E2D2222501D02F3CF83
:100C180033F0F4CF34F033502F2634503022000E06
:100C28003122000E322221501E02F3CF33F0F4CFCE
:100C380034F033502F2634503022000E3122000E6B
:100C4800322222501E02F3CF33F0F4CF34F0335067
:100C5800246E3450256E266A276A26C027F025C0E0
:100C680026F024C025F0246A24502F26255030224F
:100C780026503122275032222AC024F02BC025F0DA
:100C88002CC026F02DC027F0190E50EF06F0D89092
:100C98002732263225322432E82E4BEF06F0245034
:100CA8002F262550302226503122275032222CC0A0
:100CB8002DF02BC02CF02AC02BF02A6A29502EC008
:100CC80024F0256A2426000E2522820E2424336E61
:100CD800FF0E2520346E86EF06F0D8902F3630367A
:100CE800313632362DAE7BEF06F07DEF06F07EEF23
:100CF80006F02F80D8902A362B362C362D36330620
:100D0800D8A0340631AE8BEF06F08DEF06F071EF08
:100D180006F0000E296E2DAE94EF06F096EF06F061
:100D2800BAEF06F0FF0E2A14246EFF0E2B14256E60
:100D3800FF0E2C14266E7F0E2D14276E24502510BE
:100D480026102710D8B4ABEF06F0ADEF06F0B1EFE0
:100D580006F0010E296EBAEF06F02FA0B6EF06F0E6
:100D6800B8EF06F0BAEF06F0ADEF06F02950D8B4A8
:100D7800C0EF06F0C2EF06F0E6EF06F0010E2F26F0
:100D8800000E30223122322232A0CDEF06F0CFEF12
:100D980006F0E6EF06F02FC024F030C025F031C091
:100DA80026F032C027F02734273226322532243263
:100DB80024C02FF025C030F026C031F027C032F013
:100DC800334A342A34BEF1EF06F0345008E13328B0
:100DD800D8A0F1EF06F0F3EF06F0FDEF06F0000EF5
:100DE8002F6E000E306E800E316E7F0E326E2BEF3E
:100DF80007F034BE0AEF07F0345006E13304D8B0E8
:100E080008EF07F00AEF07F016EF07F0000E2F6E55
:100E1800000E306E000E316E000E326E000E286E1F
:100E28002BEF07F033C02EF0FF0E2F16FF0E3016F3
:100E38007F0E3116000E32162EA025EF07F027EF91
:100E480007F028EF07F0318ED8902E30326E2850F8
:100E580032122FC01CF030C01DF031C01EF032C05D
:100E68001FF01200166E1650D8B43DEF07F03FEF92
:100E780007F061EF07F011BE46EF07F044EF07F007
:100E880061EF07F00EC012F00FC013F010C014F09D
:100E980011C015F0121E131E141E151E122A000E64
:100EA80013221422152212C018F013C019F014C00E
:100EB8001AF015C01BF069EF07F00EC018F00FC04C
:100EC80019F010C01AF011C01BF00E500F101010BE
:100ED8001110D8A472EF07F074EF07F07EEF07F057
:100EE800000E0E6E000E0F6E000E106E000E116ECC
:100EF8000FEF08F0960E176E88EF07F0172AD890B4
:100F08001B321A3219321832000E1814126E000EE3
:100F18001914136E000E1A14146EFE0E1B14156E9F
:100F28001250131014101510D8A49DEF07F09FEF5E
:100F380007F082EF07F0ADEF07F0172A010E182629
:100F4800000E19221A221B22D8901B321A3219328B
:100F58001832000E1814126E000E1914136E000EBB
:100F68001A14146EFF0E1B14156E12501310141061
:100F78001510D8A4C2EF07F0C4EF07F0A1EF07F0EF
:100F8800CCEF07F01706D890183619361A361B36E4
:100F98001ABED1EF07F0D3EF07F0DBEF07F0020E30
:100FA8001760D9EF07F0DBEF07F0C6EF07F017B0CF
:100FB800E0EF07F0E2EF07F0E3EF07F01A9ED890B2
:100FC800173217C012F0136A146A156A12C015F0A6
:100FD800146A136A126A1250181213501912145014
:100FE8001A1215501B121650D8B4FDEF07F0FFEF78
:100FF80007F007EF08F011BE06EF08F004EF08F05D
:1010080007EF08F01B8E18C00EF019C00FF01AC0B9
:1010180010F01BC011F012005D082A09D407F3096B
:101028009D086909350ADE08FB0AA4096E0A380B0F
:10103800DF09FA0B9F0A670B2D0CD10AE70C890B05
:101048004C0C0E0DAD0BBE0D5B0C180DD50D6E0CBA
:10105800790E100DC70D7D0E0F0D140FA30D530E35
:10106800020F8D0D8A0F120EBA0E610FE40DD90F03
:10107800590EF90E980F120EFF0F760E0E0FA40FD1
:10108800160EFB0F690EF90E870FF00DCD0F330EFC
:10109800BA0E400FA10D760FD40D530ED10E2B0DA5
:1010A800F80E4F0DC70D3E0E910C560EA70C180DDD
:1010B800890DD60B950DE00B4C0CB70CFF0AB90C3B
:1010C800FF0A670BCD0B110AC80B0A0A6E0AD20A6F
:1010D8001309C70A07096909CB090A08BD09FC07EA
:1010E8005D08BE08FD06B008EF065107B307F30513
:1010F800A807E8054C06B006F204A906ED04530556
:10110800BB050104BC0503046E04DA042503E504E9
:101118003203A203130464022A047D02F3026B0360
:10112800C3018F03E9016702E602450119037A0149
:1011380000028702EE00CA023401C1015102BF0059
:10114800A4021601AC014402BB00A8022301C1019C
:101158006202E100D60259010002A90230012D0302
:10116800B80167021703A601AB033D02F302AB0304
:1011780041024D04E502A2036004FC020E05AC0323
:101188006E043105D303EA058D0453051B06C0041C
:10119800DB0682054C061607BF05DC0785065107E6
:1011A8001D08C806E60890075D080A340B34116E5E
:1011B8001150D8A4E2EF08F0E4EF08F0EEEF08F0E1
:1011C800000E086E000E096E000E0A6E000E0B6E01
:1011D8005BEF09F008C00CF009C00DF00AC00EF072
:1011E8000BC00FF0200EFEEF08F0D8900F320E3231
:1011F8000D320C32E82EF9EF08F00C50106E0A8E02
:10120800FF0E0816FF0E0916FF0E0A16000E0B1623
:10121800960E115E11BE15EF09F013EF09F02BEFD2
:1012280009F01150800A970FD8B01DEF09F01FEF91
:1012380009F021EF09F0E4EF08F0D8900B320A32F8
:1012480009320832113E21EF09F043EF09F01F0E71
:10125800116431EF09F033EF09F03BEF09F0E4EFE7
:1012680008F0D890083609360A360B3611061150A0
:10127800D8A441EF09F043EF09F035EF09F0105019
:10128800D8B449EF09F04BEF09F053EF09F00B1E02
:101298000A1E091E086C000E09220A220B2208C029
:1012A80008F009C009F00AC00AF00BC00BF01200E0
:1012B800200EF66E100EF76E000EF86E00EE98F027
:1012C80011EE92F00900F5CFEEFFE550E150FAE19A
:1012D800E250F8E100EE60F02C0EEE6AE806FDE15F
:1012E80000EE4AF0090EEE6AE806FDE153905392CB
:1012F800000109EF00F0076E075014EC0AF03EEC0D
:101308000AF01FEC0AF0E806D8B48DEF09F08FEF69
:1013180009F085EF09F0C450066E056AC35005242C
:10132800036E000E0620046E12000A6E08C009F053
:10133800010E09160A50FE0B0910C96EC7B0A7EFB7
:1013480009F0A9EF09F0A2EF09F0C7B4AEEF09F070
:10135800B0EF09F0A9EF09F0120008500A02F3CF24
:101368000CF0F4CF0DF008500B02F3500D26095085
:101378000A02F3500D260CC008F00DC009F0120047
:10138800F28EF28CF28AF294D59ED59CD59AD59697
:10139800D550F80B0209D56EF60ED76E3C0ED66EF8
:1013A800D58E1200086E08C0C9FFC7B0DEEF09F07D
:1013B800E0EF09F0D9EF09F0C7B4E5EF09F0E7EF7E
:1013C80009F0E0EF09F012000600000E7FEC09F0CA
:1013D80003C08AF004C08BF0010E506EF60ED76E73
:1013E8003C0ED66EF29453921100C280C292CF0E78
:1013F800C116F00EC116C08EC050C70B1009C06EC2
:10140800C050F80B0409C06E1200030E9312C78E69
:10141800C68AC650F00B0809C66E130EC86E1200B5
:10142800026E02C001F001460146C2500118C30B0A
:101438000118C26E1200C2B224EF0AF027EF0AF0B8
:10144800010E28EF0AF0000E1200C584C5B42FEF74
:101458000AF031EF0AF02AEF0AF01200C580C5B091
:1014680038EF0AF03AEF0AF033EF0AF01200700E84
:08147800D3121200C28212001F
:020000040020DA
:08000000FFFFFFFFFFFFFFFF00
:020000040030CA
:0E000000000A1F1EFF8385FF0FC00FE00F4098
:00000001FF
